:020000040000FA
:10800000C89C002001AA000079F20000D5A9000058
:10801000D5A90000D5A90000D5A90000D5A9000068
:1080200000000000000000000000000039A3000074
:10803000D5A9000000000000D9A20000D5A90000C9
:10804000BDA30000BDA30000BDA30000BDA30000B0
:10805000BDA30000BDA30000BDA30000BDA30000A0
:10806000BDA30000BDA30000BDA30000BDA3000090
:10807000BDA30000BDA30000BDA30000BDA3000080
:10808000BDA30000BDA30000BDA30000BDA3000070
:10809000BDA30000BDA30000BDA30000BDA3000060
:1080A000BDA30000BDA30000BDA30000BDA3000050
:1080B000BDA30000BDA30000BDA30000BDA3000040
:1080C000BDA30000BDA30000BDA30000BDA3000030
:1080D000BDA30000BDA30000BDA30000BDA3000020
:1080E000BDA30000BDA30000BDA30000BDA3000010
:1080F000BDA30000BDA30000BDA30000BDA3000000
:10810000BDA30000BDA30000BDA30000BDA30000EF
:10811000BDA30000BDA30000BDA30000BDA30000DF
:10812000BDA30000BDA30000BDA30000BDA30000CF
:10813000BDA30000BDA30000BDA30000BDA30000BF
:10814000BDA30000BDA30000BDA30000BDA30000AF
:10815000BDA3000053B94AB9002908BF00281CBFBD
:108160004FF0FF314FF0FF3000F00CB8ADF1080CCC
:108170006DE904CE00F008F8DDF804E0DDE9022343
:1081800004B07047704700BF2DE9F04786468C4623
:108190000846089E154674461946002B40F0C180DB
:1081A0008542B2FA82F245D94AB1C2F1200300FAFF
:1081B00002FC954094402EFA03F343EA0C0C4FEA7C
:1081C000154EA8B2230CBCFBFEF80EFB18CC08FB26
:1081D00000F943EA0C43994528D9EB1808F1FF3719
:1081E00004D2994502D9A8F102072B44A3EB090355
:1081F000A4B2B3FBFEFC0EFB1C330CFB00F044EA04
:108200000344A04214D92C190CF1FF3304D2A0422C
:1082100002D9ACF102032C44241A43EA07401EB1F0
:10822000D440002334607360BDE8F0874746DDE743
:108230006346F1E792BB431B01214FEA154EAFB2F3
:10824000200CB3FBFEFC0EFB1C330CFB07F840EAD2
:108250000343984561D9EB180CF1FF3004D29845DF
:1082600002D9ACF102002B44A3EB0803A4B2B3FB88
:10827000FEFC0EFB1C330CFB07F744EA0344A74249
:108280004DD92C190CF1FF3304D2A74202D9ACF11D
:1082900002032C44E41B43EA0040C0E7C2F1200380
:1082A0009540944020FA03F12EFA03F34FEA154E5D
:1082B0009040AFB20343B1FBFEFC0EFB1C10190C47
:1082C0000CFB07F841EA0041884522D969180CF1F6
:1082D000FF3004D2884502D9ACF102002944A1EB59
:1082E00008019BB2B1FBFEFC0EFB1C110CFB07F757
:1082F00043EA01439F420ED9EB180CF1FF3104D23F
:108300009F4202D9ACF102012B44DB1B41EA004140
:1083100093E76046E3E76146F7E76046A4E7634614
:10832000B8E7834206D916B9002108467CE7C6E9BA
:1083300000E0F9E7B3FA83F78FB9834201D37245BE
:1083400008D8BEEB020460EB030301209C461EB973
:10835000002169E73846FAE7C6E9004CF8E7C7F1BB
:10836000200CBB400EFA07F522FA0CF42EFA0CF1A1
:10837000BA401C4320FA0CF3B8404FEA14490143B9
:108380001FFA84FEB3FBF9F809FB18300B0C08FB4D
:108390000EFA43EA00439A4540D9E31808F1FF304A
:1083A00004D29A4502D9A8F102002344A3EB0A03A0
:1083B00089B2B3FBF9F809FB183308FB0EFE41EA5A
:1083C00003418E452CD9611808F1FF3304D28E4544
:1083D00002D9A8F10203214443EA0040A1EB0E01B7
:1083E000A0FB02984145CE46434602D306D14D45F7
:1083F00004D20138B9EB020E68EB0403002EA7D0BB
:10840000B5EB0E0261EB030101FA0CFC22FA07F353
:10841000F9404CEA0303C6E9003199E74046C5E755
:108420004346D9E72DE9F04786B000AF394E3046D4
:1084300007F076FA0346002857D06C4688B03368B8
:108440006A463549C2E905134FF400739383334BF1
:1084500042F8103F00234FF4E651314801F092FA00
:10846000A546304B7B6102233B6100242546DFF8A3
:10847000B880DFF8B89000234FF48651284807F100
:10848000100201F07FFA60220021274806F048FF21
:10849000042209EB840108EB850006F036FFB3687F
:1084A000182230461B682049984778B1EA4688B0C0
:1084B0006A461F4BC2E90530032342F8103F0023F0
:1084C0004FF4C251164801F05DFAD5460135182D1A
:1084D00005D1022C0BBF00240025254601340021C4
:1084E00040F2676005F088FFCDE788B06A463168E2
:1084F0001048C2E905014FF400719183074942F821
:10850000101F4FF4E251064801F03CFA1837BD46FF
:10851000BDE8F08720FD00009C020100030000017F
:10852000C8FF0000B6020100D88900200D03010039
:10853000F3020100D20201002DE9F04F95B000AF27
:10854000D7F878B0BB61CBF3C00304467A623B61D5
:10855000396251B90D4603784678807800EB830084
:108560002044AE421AD8031B3B6294F80290E37891
:108570004E467B61B9F1000F02D01BF0010F16D1FE
:108580007B6953BB7B6A1BB12046BA69396A98473D
:108590003D6A28465437BD46BDE8F08F00F101081A
:1085A000404606F0A2FE013040440135D9E7636839
:1085B00094F800A0FB617B6A4FEA8A02FA6004EB40
:1085C0008A0A002B40F00281D04600263D6A09EB62
:1085D0000A0343454ED1CA4413E01BF0020FD1D029
:1085E00094F800A04FEA8A03FB60636804EB8A0AF0
:1085F000FB617B6A002B78D13D6AB9F1000F4ED147
:108600004E461BF0050F0CBF022301237B627B69E2
:108610000AEB43090BF002033B62CA45B9D01AF8D2
:10862000021B1AF8013C54F82380AD4B984502D345
:10863000AC4B984539D33B69002B43D0F86906F021
:10864000BEF900283ED0E8468AB06A46A64B536180
:10865000FB69C2E906314FF400731384A34B42F85F
:10866000103F00234FF41251A14801F08BF9023D55
:10867000C546D2E718F8012B7B6254F8220006F0B9
:1086800034FEFA6F7B6A01303AB1D7F88020964207
:108690003EBFFA6F22F816000136054499E71BF039
:1086A00004061CBF7E6ACA44ABE73B6923B1F86984
:1086B00006F085F90028C6D11BF0010F05D17B6AB1
:1086C000ED1AAAE73B6A002BA7D0404606F00DFE44
:1086D000FB6F43B1D7F880309E423FBFFA6F431C17
:1086E00022F816300136054497E7B9F1000F72D031
:1086F0001BF0040672D0C846002607F140004A4627
:10870000514606F002FE7B69CA445B00BB607B6990
:108710000AEB43037B610BF002037B607B699A45A4
:108720005ED123781BF0020FFB61637818BF002134
:1087300006EB030208BF4FEA58011BF0010FD2B24B
:1087400040F09D801BF0040F14BF4046002094F8B9
:1087500002B094F803A03B616270A070E170204603
:10876000BA69F9687B6A9847051EFFF612AFFB6984
:10877000414623703B69BA69637084F802B07B6A32
:1087800084F803A007F140009847B0F10008C0F258
:10879000A3803B6ABA69A3EB0901FB687869C91A2F
:1087A000BB68C91A7B6A98470028C0F297804FF0CF
:1087B000000BA84408EB000507F1300AB34560DB65
:1087C0000021BA6908467B6A9847E2E64FF0000844
:1087D00007F1300093E74E46C84694E7B04692E76B
:1087E0001AF8021B3E4A1AF8015C54F825309342ED
:1087F00002D33C4A93421CD33B6923B1F86906F08B
:10880000DEF800288AD17B68F3B908F1280207F165
:108810002800024408F1010302F8101C07F150027D
:1088200008F1020852FA83F35FFA88F803F8105C43
:1088300074E73B692BB1F86906F0C1F800287FF4B2
:108840006DAF1BF0010F09D006F1280207F12801D6
:10885000731C561806F8205CDEB25FE71BF0040FAD
:108860003FF45CAF08F1280207F1280108F1010389
:1088700002EB010808F8105C5FFA83F84EE700206D
:1088800065E71BF80A3054F8239087F82F30FB6F08
:10889000FBB133F81B800121BA697B6A07F12F0015
:1088A000984700281ADB0544B8F1000F06D1484666
:1088B00006F01BFD00F101081FFA88F84146484602
:1088C000BA697B6A9847002808DB05440BF1010B65
:1088D00074E7D7F87C80DEE745465AE6054658E659
:1088E00008FC0000E80D01001E0301000400000167
:1088F00098FF0000014B1B68184700BF0080002054
:10890000014B1860704700BF0080002007B50B4680
:10891000002102460091034800F02AF903B05DF8F7
:1089200004FB00BFF588000030B5002587B0CDE915
:1089300003010446009503A90548059500F018F9C0
:10894000DDE904309842B8BF255407B030BD00BF00
:108950000DEA00002DE9F047058B044628079046F4
:1089600011D4022905F0070540F0CD80204606F01D
:1089700084F878B10138218B042811D8DFE800F0A1
:10898000C3106D85950001290CBF45F0100545F019
:108990002005258388F31188BFF36F8FBDE8F0872A
:1089A00001F0070AAA4500F0A6800027B9463E4616
:1089B000A368002B00F0BD8041F00801218388F3FB
:1089C0001188BFF36F8FA168002900F0BB800D688C
:1089D000002900F0B780334652462046D1F8048083
:1089E000C047002D76D02B6829461D46F0E701F0E0
:1089F00007035A1F012A1BD8002221F00701062B6A
:108A0000276889B2C4E9002209D13B4603E0628BA2
:108A1000013262831B68002BF9D141F0020120462C
:108A2000218306F02AF800287BD041F0200177E06E
:108A3000042B0AD121F0070189B22046218306F0D8
:108A40001CF810B141F020012183218B01F0070AAD
:108A5000AA4550D00027B946AAE7236921F00701AB
:108A600041F00601062DD3F8009021832DD1B9F1F4
:108A7000000F40D041F00801218388F31188BFF333
:108A80006F8F20463949C84729E021F00701236943
:108A900041F0040189B2042DD3F804902183E6D07B
:108AA00000274FF0040A3E4682E721F007012369C0
:108AB00041F0050189B2052DD3F808902183D6D065
:108AC00000274FF0050A3E4672E700274FF0060ADE
:108AD0003E466DE72B4687E7B9F1000FD1D14FF045
:108AE0002003EFF3118883F31288BFF36F8F238B7A
:108AF00023F008032383258BEA062ED525F01003E7
:108B0000238305F007056669218B002EBFF66FAF42
:108B100000232768C4E9003321F0070141F0010177
:108B20002183218B4FF0000901F0070AAA457FF449
:108B30003FAF002F9BD041F00801218388F31188BB
:108B4000BFF36F8F002FC7D03D683946334652467A
:108B5000204605F0BEFF2F46F4E7AB067FF51AAFBF
:108B600025F02003238305F00705FFE6FFEA000058
:108B70002DE9F04F81468B4617461C46002595B0DF
:108B8000387808B9284657E37B1C2528039306D07C
:108B90005946C8470028C0F24F830135FBE118222F
:108BA00000210EA806F0BCFB7B78252B7DD000238E
:108BB00098469E469C461E46781C014610F8012B9E
:108BC0002B2A00F0A18000F29880202A00F09F80DC
:108BD000232A00F09F802BB19DF8403043F04003E2
:108BE0008DF84030B8F1000F05D09DF8403043F0CB
:108BF00020038DF84030BEF1000F05D09DF84030C5
:108C000043F010038DF84030BCF1000F05D09DF803
:108C1000403043F008038DF840302EB19DF84030CD
:108C200043F004038DF840309DF8403003F04400D9
:108C3000442803D16FF386138DF840309DF84030FF
:108C40002A2A43F080038DF840307FD19DF84120DF
:108C50004B1C42F001028DF841201A782E2A0CBFDD
:108C6000012100219DF8412061F341028DF841204E
:108C700078D15A782A2A6ED000224FF00A0C01339C
:108C8000194611F8010BA0F13006092E40F295802B
:108C90009DF840101292C1F3400040EAD2700A469B
:108CA00060F341028DF840205CE0BA1C03928DF81D
:108CB00043309DF84130DA0740F12E8154F8048B9F
:108CC000B8F1000F07DA9DF84020C8F1000842F023
:108CD00004028DF840205E0740F1278154F804AB70
:108CE000BAF1000F80F226819DF841306FF3410305
:108CF0008DF841304FF0FF3A1CE12D2A0DD0302A7B
:108D00007FF469AF012358E74FF0010C55E74FF0AE
:108D1000010E52E74FF001084FE701264DE70346E9
:108D20000EFB0262303A184610F8016BA6F1300CC7
:108D3000BCF1090FF3D999428FD09DF840101192E0
:108D4000D20F62F341018DF8401086E70B460022F6
:108D50004FF00A0EE7E79DF84120023342F004028B
:108D60008DF841201A786C2A47D02BD8682A31D048
:108D70006A2A4BD04C2A51D01A4612F8013B782B64
:108D800003928DF843309DF8412000F2BE806D2B98
:108D900051D8692B00F2B980572B67D8412B03D0EB
:108DA000453B022B00F2B18004229DF8423062F371
:108DB00002038DF84230012373E00CFB02020B46E4
:108DC000303A5DE7742A25D07A2AD5D106219DF85C
:108DD00041200CE05A78682A9DF8412006D10121F3
:108DE00061F3C6028DF841200233C5E7022161F329
:108DF000C6028DF841200133BEE75A786C2A9DF8EF
:108E0000412001D10421EBE70321F0E705219DF882
:108E10004120ECE707219DF84120E8E7BDF840201C
:108E200022F4F04222F0020242F4804242F00202B6
:108E3000ADF84020DFE76E3BD9B201238B4040F212
:108E400082410B4237D113F0240F51D1D8075CD5A2
:108E500003219DF8423061F302038DF8423002F0A5
:108E60007803A3F140014B424B411AE00120A3F1EA
:108E70005801C9B200FA01F111F4624F94D140F6E1
:108E8000010631421DD111F4043F3ED09DF842301D
:108E900060F3020302F07802402A8DF8423034D0A9
:108EA00000239DF84020C2F340010B4363F34102CD
:108EB0008DF84020FDE602219DF8423061F3020367
:108EC000E8E702209DF8421002F0780260F3020108
:108ED000402A8DF8421002BF9DF8401041F0010178
:108EE0008DF84010632BDBD1131E18BF0123D8E788
:108EF00003219DF8423012F0780F61F302038DF8E0
:108F0000423014BF01230023CBE79DF8403043F0EB
:108F100001038DF84030C3E79DF94020002AACBF23
:108F20004FF0FF38DDF84480D5E698077FF5E2AED4
:108F3000DDF848A00023CDE911339DF842309DF8BB
:108F4000411003F00703012BC1F3C30133D1CB1E42
:108F5000042B04D8DFE803F02146462121002368D2
:108F600001294FEAE372CDE90E321CD19DF9383068
:108F7000DA17CDE90E3204349DF8403013F00306C1
:108F800050D03A4659464846039B05F095FE0028C6
:108F9000C0F252810544039FF2E554F8043BDA170E
:108FA000CDE90E32E8E70229E5D11AB243F3C03326
:108FB000CDE90E23DFE7022B24D1CB1E042B04D8EE
:108FC000DFE803F018101018180001294FF0000214
:108FD00054F8043B14D00229CDE90E32CCD19BB217
:108FE0000E93C9E7073424F00704F4E80223CDE91F
:108FF0000E23C1E754F8043B0E9300230F93BBE705
:10900000DBB2CDE7042B08D1073424F00704D4E900
:1090100000230834CDE90E23AEE7032BACD154F87E
:10902000043BDDE79DF843007828B4D862281CD8BB
:1090300025283FF4ADAD5828ADD1DDE90E010DF185
:109040003603009310AA08AB05F0F0FDBAF1000F4B
:10905000074680F29980002F9DD00DF13603D81B72
:10906000002E00F0C0800130BDE06338152892D892
:1090700001A252F820F000BF4D9100005F91000066
:10908000978F0000978F0000978F0000978F000048
:109090005F910000978F0000978F0000978F00006E
:1090A000978F0000EB91000083910000A9910000D0
:1090B000978F0000978F0000D1900000978F0000DD
:1090C00083910000978F0000978F0000839100002C
:1090D000BAF1000F0E9F35DB5146384606F00CF909
:1090E00007EB000A002F3FF456AF00269DF84230F0
:1090F00013F01002059200F0928002305B06119A84
:1091000048BF129B104448BFC018B8F1000F04922A
:1091100040F39F809DF84020A8EB0008C2F3800335
:109120005007069300F19580510640F188803EB1CA
:1091300059463046C84700287EDB069B01351E464F
:1091400030227DE0384606F0D0F8C9E70E9B0026B5
:1091500001208DF8203008AF0DF1210AC6E719076C
:109160005ABFC3F300135E012B26DDE90E23002B4B
:10917000BFF663AF524263EB43032D26CDE90E23C6
:109180005BE7002659E700269DF840200DF13603E5
:10919000DB1B6FF386129A458DF840207FF65BAF9C
:1091A000AAEB0303119356E70E9890B30DF1360323
:1091B0000093002108AB10AA05F038FDBDF842303D
:1091C000BAF1000F03F0EF0343F4F04343F0100350
:1091D0000746ADF84230D6DA00283FF4DCAE002670
:1091E0000DF13603181A9A4680E70E9B07293FF6C1
:1091F000D2AEDFE801F00C04060C08080C0C1D7060
:10920000C9E61D80C7E6EA17C3E90052C3E61D6040
:10921000C1E62F4F064607F1050A052066E71A0743
:1092200048BF01306AE71046079306925946C8477F
:10923000DDE90623002804DA15B0BDE8F08F20220E
:1092400043461946002903F1FF33ECDC45449846B8
:109250006D1A2EB159463046C8470028ECDB01355F
:109260009DF84230DA0601D41B0705D55946302057
:10927000C8470028E0DB0135059B33B159469DF80E
:109280004300C8470028D7DB0135049E2E4405E083
:1092900059463020C8470028CEDB0135731B002B10
:1092A000F6DC53463A465946484605F005FD002887
:1092B000C2DB0544A844A8EB0503002B7FF76BAE87
:1092C00059462020C8470028B6DB0135F3E700BF28
:1092D000D203010048B1054B054A1B68B3FBF2F30A
:1092E0005843044B43F0010318477047A480002003
:1092F00040420F0030000100F0B583B000AF381DD0
:1093000003F046FC274B984249D102F0A7FF041E08
:1093100013DA387903F042FC6D4688B06A46224B76
:10932000C2E90534032342F8103F00234FF4C25131
:109330001E4800F027FBAD462DE040F607031C4D0C
:109340007C71AE68FB8074687B6814B96FF0570459
:10935000E2E708212846174AA047041EDCDB3369F0
:10936000002BF3D00122082128469847041ED3DBA6
:1093700001233D79104AAB40C2F804357879FE7973
:1093800006F017FA0D4B45F00045B600C0F88050C6
:109390009D51002CC0D120460C37BD46F0BD6FF06A
:1093A0001204B9E70000AD0BDC030100000001006E
:1093B000F0FC0000059400000070014080A1024014
:1093C00038B5049CC4F30725284602F0AFFD002100
:1093D0000A4BA20B02F0FC02C0F880109950012346
:1093E000E4B2074AA3402846C2F8083502F054FF09
:1093F0002046BDE8384003F0D1BB00BF80A002404A
:1094000000700140F7B5144683681B690BB1002258
:109410009847C4F30726304602F090FD05463046D3
:1094200006F0C7F90027104B220E9200C0F880709A
:109430009F50304602F07AFDA20B0C4B02F0FC026A
:109440001344E2B242F000421A60094BC0F8802097
:1094500005F13202009330463B460194520006F07B
:10946000B1F903B0F0BD00BF80A1024080A002406E
:10947000C193000006F0D8B92DE9F047044607462D
:109480004FF00109DFF8508014B93846BDE8F08785
:1094900094FAA4F5B5FA85F509FA05F32E0108EB5F
:1094A00005156FEA030A24EA03042B7B002BEBD09B
:1094B00058F806301B694BB94644736804222846A5
:1094C000196807EA0A0700F049FADDE728469847D5
:1094D0000028D9D1F0E700BF1800010030B5002204
:1094E00089B00F490F4806F061FB002200230024D9
:1094F000CDE906230E230C4DCDE903344FF4407221
:109500002846CDE90144094B0949009404F00AFBBF
:109510000849284606F019FA204609B030BD00BFB8
:109520003995000028860020A081002009980000BD
:10953000888C00200D040100014804F04DBC00BFE0
:10954000908100202DE9F04780461F480F4605F026
:1095500006FE0646002830D000252846BDE8F087E4
:10956000237B73B12368DB680BB1204698472368DF
:109570001B69D3B9636804222046196800F0EEF92C
:10958000013610344C45EBD3B8F1000FE5D0002D77
:10959000E2D02846FFF770FF0546002FF7D00021E4
:1095A0004FF4A47004F028FFF1E720469847002804
:1095B000E0D00AFA06F31D43E2E705464FF0010A40
:1095C000024CDFF80C90DDE7A887002018000100AE
:1095D00028000100014B53F8200070474C000100A7
:1095E00008B5034608462BB1044A136000F0F2FBAD
:1095F000002008BD6FF01500FBE700BF04800020CD
:1096000010B5044C237813B9034804F0E5FB01239B
:10961000237010BD388A00209081002010B50446C8
:10962000064805F09CFD3CB1054BD3E8EF1F01391E
:10963000C3E8E21F002AF8D110BD00BFA0870020B8
:10964000A487002000200146034BD3E8EF0FC3E8B6
:10965000E21F002AF9D17047A087002070B5FFF7FC
:10966000F1FF0546074C084EB44200D370BD636855
:109670005B792BB123685B6813B129462046984774
:109680001034F1E7180001002800010010B5044C67
:109690000449204605F0D4FB034B1C6010BD00BFFD
:1096A00040810020380001009887002008B5002381
:1096B000064A4FF400411370054A06481360FFF74D
:1096C0008FFFBDE80840FFF7E1BF00BF398A0020E7
:1096D000A08700205BF10000014600220023014822
:1096E00005F0CFBB40810020014805F068BC00BFF9
:1096F00040810020024B0146186805F0B0BC00BF55
:1097000098870020014805F0DEBC00BF40810020A2
:1097100070B5264B1878002847D0FFF7E5FF0546BF
:1097200070B1234BD3E8EF1F0139C3E8E21F002AD1
:10973000F8D1204C204EB4422DD32846FFF7DAFF53
:109740001E4B1F4C1B68002B19DD06F029FA4FF445
:109750007A72A0FB020302FB0131C30B43EA4143CF
:10976000D4E900209B1A40F2E9324FEAD13161EB93
:109770000001934271F1000101D3FFF76FFFD4E9BB
:10978000003213F57A7342F10002C4E90032BDE8F9
:109790007040FFF7B7BF63685B7923B12368294640
:1097A00020461B6898471034C5E770BD388A0020F2
:1097B000A48700201800010028000100A0870020D5
:1097C0002086002070B50D4D297861B90120FFF782
:1097D000B9FE0B4C0B4EB44206D3FFF799FF00289D
:1097E000FBD101232B7070BD63685B791BB12368CB
:1097F00020469B6898471034EDE700BF398A002067
:10980000180001002800010000212DE9F04708465A
:10981000FFF798FE044648B340F267684FF000092E
:1098200004F01EFE1A4B186030B11A4B1B68092B4E
:1098300002DD194804F0D0FA0025184FDFF858A0CF
:1098400044B12046FFF718FE044618B94FF0FF3820
:109850004FF0FF39FFF75CFF064628B9B5B942461D
:109860004B46504604F0D8FA3546E9E74FF0FF384A
:109870004FF0FF39D4E72B689B691BB100222846C3
:10988000114698471035BD42F5D3E8E7044DFAE795
:109890009C870020A48700209081002028000100E0
:1098A0001800010013B5184805F059FC174B1B7838
:1098B0007BB14FF02003EFF3118483F31288BFF3E1
:1098C0006F8FFFF725FF84F31188BFF36F8F02B00E
:1098D00010BD0F4B1B68002BF9D050B9002200239C
:1098E0000C48CDE900234FF40042002304F0E4FFCC
:1098F000EDE70A28EBD1074806F064F9064802B004
:10990000BDE8104004F068BAA4870020398A00201E
:109910009C870020288600209081002010B5064BEF
:1099200004461B6898472146A060044805F027FBC1
:10993000BDE81040FFF7B6BF048000204081002042
:10994000044A054B9B1AB1EBD30F34BF52F83100D8
:109950000020704798FF000018000100084B10B469
:10996000C31A44681B110133237143689A710122A1
:109970004368196043685A7110BCFFF741BE00BFCD
:10998000180001002DE9F04FC1F3CB448FB0C1F3B3
:1099900049260D469046994605901734002E3CD036
:1099A0004FF0040B4FF00A0A002209AF31460BAB0F
:1099B0004046CDF808B00197CDF800A0CDE90B22C4
:1099C0000D920796FEF7B8FDC0F30903181920F0B1
:1099D000070080081E4663F352250693FFF77CFEBE
:1099E000044678B10022069B10300B900C930D9228
:1099F0004046CDE9017B0C4A0799CDF800A00BAB9E
:109A0000FEF79AFD66F352254B462A4620460599F5
:109A10000FB0BDE8F04F05F0C6BB24F0070080088A
:109A2000FFF75AFE0446EDE77BF100000EB403B5E4
:109A300003AB53F8042B01460448019305F0DAFB0D
:109A400002B05DF804EB03B0704700BF1DF20000E8
:109A5000CA0605D48B064CBF02490349FFF7E6BF8F
:109A6000704700BF23040100220401002DE9F04FDC
:109A700089B09B46DDE915769DF84830044604938D
:109A8000DDE913930593049B0D460692002B00F02D
:109A9000878006F00803079305F06DFB06F0020AC5
:109AA000024600284BD020468549FFF7BFFF80467D
:109AB000BAF1000F08D016F0440F42D12A462046D2
:109AC0008049FFF7B3FF804406F001035BB17E4B92
:109AD000049A204653F822207C4B7D49002A08BF77
:109AE0001A46FFF7A3FF06F00803002B55D0794B69
:109AF000049A204653F822207749FFF797FF05463E
:109B0000069B2BB11A4620467449FFF78FFF054488
:109B1000BBF1000F05D05A4620467149FFF786FF7A
:109B200005444544B9F1000F49D1002F4FD1F30747
:109B300000F1C08031462046FFF78AFFB4E080463E
:109B4000B6E7684B18680028BDD0674B4FF47A7EA3
:109B50001B684FF46162B5FBF3F5B5FBF0F300FB56
:109B600013550EFB05F5B3FBF2FAB5FBF0FC3C21F7
:109B700002FB1A3200FB1C55B2FBF1F30EFB05F59C
:109B8000B5FBF0F501FB132220460092CDE901C59B
:109B900052465649FFF74AFF95E706F00805AFE73A
:109BA000BBF1010F06D1B9F1000F64D1002F7BD0BA
:109BB00000250CE0B9F1000FF8D04D485CE04D48AD
:109BC0004B4622464C4904F0C9FE002F68D0DFF80E
:109BD0002C91DFF82CA1102F31462046B8464FF0CB
:109BE000000B28BF4FF01008FFF732FF5D4545DC42
:109BF000059B514620461A78FFF718FF4FF0010BDE
:109C00001BF0070F03D149462046FFF70FFFD84549
:109C10003BD9059B5146204613F80B20FFF706FF62
:109C20000BF1010BBBF1100FEAD14FF0000B2046F6
:109C30003449FFF7FBFE5A46059B20469A5CA2F189
:109C400020015F2928BF2E222F49FFF7EFFE0BF1DD
:109C5000010BBBF1100F1DD01BF0070F03D14946BC
:109C60002046FFF7E3FED8455A46E5D84946204648
:109C7000FFF7DCFEEBE71F48049DA1E749462046BD
:109C8000FFF7D4FE0BF1010BB0E720461F49FFF7A9
:109C9000CDFEC5E7059BB7EB0807434405939AD172
:109CA000049B002B7FF443AF204609B0BDE8F04F82
:109CB00005F0A7BA2046054A0549FFF7B7FE39E780
:109CC0002A0401002E0401005C00010025040100AB
:109CD000B3020100700001005304010059040100A7
:109CE0005D040100B0870020AC870020370401002C
:109CF0004BF200001DF20000F5F100006A040100C3
:109D0000620401006C0401006E040100680401009B
:109D10002DE9F0410F884B6805460C4690468E6849
:109D200086B0C7F382175BB1134A9B1A43F3CF0186
:109D300000291FDB2078C0F3C200FFF701FE0346B5
:109D4000214651F8102B6088C2F34922002A01EB0A
:109D5000020408BF0021C0F3CB00CDE90308CDE920
:109D600001140022314628460097FFF77FFE06B017
:109D7000BDE8F0810023E3E798FF000042F20F7393
:109D800073B58B4228BF0B4605680446052168461B
:109D90000D4A04F05BFE0646636828460B225B68AA
:109DA0000A4905F01AFA63683246694628465B6834
:109DB00005F013FA63681B2228465B68044905F026
:109DC0000CFA02B070BD00BF0A0301008D0401004F
:109DD0007104010000210123064A904206D8064A78
:109DE00001B901231360054B186070470121400839
:109DF0005B00F2E740420F00AC870020B0870020F4
:109E0000014B002019607047C88700200122024BD7
:109E100002481A7005F0F5B93B8A0020A000010045
:109E20000148FFF7ABBF00BFA000010010B5064B13
:109E30000C461868FFF7CEFB2146BDE810400346EC
:109E40000F220248184700BFC8870020A000010069
:109E5000F8B50D460446064F4618B44201D12846CF
:109E6000F8BD14F8011BBB6801485B689847F4E72C
:109E7000D8FC00002DE9F84305464FF02003EFF32E
:109E8000118683F31288BFF36F8F4FF00C090D4BCF
:109E90000D4F1C68DFF834802CB986F31188BFF3AE
:109EA0006F8FBDE8F883D4E90123002D18BF134656
:109EB0002BB198F8142009FB02F2B85C984724688B
:109EC000EAE700BFE4870020D8870020A0890020AF
:109ED000012270B5164B1C7D04F01F039A40D0433D
:109EE000144B610903EB8103D3E8EF1F01EA00057E
:109EF000C3E8E65F002EF7D10A4213D00E4B0F4D98
:109F00008BB10C236343EA185178E85C05F00CF937
:109F10000020FFF7AFFF0C235C4300232A192B51CD
:109F2000C2E9013370BD83F31188BFF36F8FEFE790
:109F3000A0890020EC87002029F10000D8870020AC
:109F40002DE9F041324B07461D7D4FF02003EFF322
:109F5000118883F31288BFF36F8F0C246C432D4B51
:109F60002D4E195D1A19002947D007CA06EB040CBB
:109F70008CE8070000221A5588F31188BFF36F8F11
:109F80000C236B43F05CF218A8B37B1C10D04FF489
:109F900000400021D2F808C0204C0023ECFB004117
:109FA0001F4A2046FEF7D6F80121381A05F0D8FDE1
:109FB00004F064F90120FFF75DFF1A4B6A0903EB17
:109FC0008203012205F01F018A40D3E8EF0F1043FE
:109FD000C3E8E10F0029F8D1134B3BB10C2303FB7D
:109FE00005F033185978305C05F092F8FFF770FFF0
:109FF00004F058F90120BDE8F0810146284600F040
:10A0000015F80028B8D007C8344484E80700B3E73F
:10A01000A0890020CC870020D88700203F420F0075
:10A0200040420F00EC87002011F100002DE9F04FB5
:10A0300085B00E4603A900F043F84FF400470446EC
:10A040004FF0000B1B4B039DD3F800A0431E1BB227
:10A0500003EB4303DFF8608005EB830524B9A146D9
:10A06000484605B0BDE8F08FC446594668680023ED
:10A07000E0FB07C1114A6046FEF76CF8C44659463A
:10A080000190A8680023E0FB07C10C4A6046FEF778
:10A0900061F8BAF1FF3FA94601D0824505D9731C8A
:10A0A000DED0019B1844B042DAD9013CA4B20C3D89
:10A0B000D4E700BF088000203F420F0040420F005D
:10A0C00008B9024B0B600020704700BFB0000100D0
:10A0D000014910220A60704710ED00E072B640405E
:10A0E00080F31188BFF36F8FBFF34F8F30BF62B61D
:10A0F000BFF36F8F704700BF72B6494081F311887C
:10A1000020BF80F3118862B6704700BF2DE9F04789
:10A1100081460C4600AF00294CD0D1E900126E46B2
:10A120008AB0A3686D464FF0050AA8462548C5E9E0
:10A130000723C5E9050148F810AF002342464FF454
:10A1400021512148FFF71EFCD4E90312B54663698B
:10A15000AD461E48C5E90723C5E90501C5F810A0AD
:10A16000002342464FF421511748FFF70BFCB54638
:10A1700088B0E3696D464FF0030AA846144AC5E962
:10A18000052348F810AF002342464FF4C2510E4851
:10A19000FFF7F8FBB546A369AD460E4AC5F810A017
:10A1A000C5E90523002342464FF4C2510648FFF794
:10A1B000E9FBB5462146484603F01AFBBD46BDE81B
:10A1C000F08700BFD6040100E0FF00000505010094
:10A1D000340501004305010040B2002807DB0123DC
:10A1E0004109034A00F01F00834042F821307047C4
:10A1F00000E100E040B200280CDB012206494309DF
:10A2000000F01F008240203341F82320BFF34F8F1E
:10A21000BFF36F8F704700BF00E100E0054B4209BC
:10A2200053F82220012300F01F0003FA00F0104031
:10A23000704700BF00E100E040B2002801F10101D9
:10A24000ACBF00F16040064B4FEA4111C9B2ABBF51
:10A2500000F5614000F00F0080F8001319547047BA
:10A2600014ED00E030BFFFF7FDBF00BF0B4A08B59B
:10A270000B4B22F07F029A60BFF34F8FBFF36F8FBB
:10A28000D3F8882022F47002C3F8882003F06AFB18
:10A2900004F04CF900F0A8FB03F0A4FB00800000E0
:10A2A00000ED00E0094A0A49936809685867996710
:10A2B00008494B6843F080534B60002383F31188B7
:10A2C000BFF36F8F9368986F704700BFA08900201D
:10A2D0006C02010000ED00E015498A6882F87DE01B
:10A2E0004FF030001044EFF3098C80E8F01F20207D
:10A2F00080F31288BFF36F8F0E4F4FF00066CA696C
:10A300008A603E6092F97DE0506F0023536780F3CE
:10A31000118802F1300090E8F01F8CF3098802F1F7
:10A32000000004B504F0AFFFBDE804407047000032
:10A33000A089002004ED00E01EF0040F0CBFEFF335
:10A340000880EFF30980816911F8021C0229FFD00F
:10A3500001B504F089FF01BD42F8203C009B0C4987
:10A3600042F81C3C019B21F0010142F8183C029B81
:10A3700042F8081C42F8143C4FF0807342F8043C49
:10A38000002343674FF43C43203A0265C36770479C
:10A3900067EA0000084B9860436E83F30B88104611
:10A3A00081F30988002163B681F31188BFF36F8FB1
:10A3B0000022002304F057FBA089002001B572B6EB
:10A3C0000B4A906900281EBF0021916105F0C2FA76
:10A3D00062B6EFF30580A0F110004FEAC000054916
:10A3E000014409C99847BDE80140034908470000F6
:10A3F000A089002038FD0000FDA30000044B9968EF
:10A40000D869884203D003494FF080520A607047F0
:10A41000A089002004ED00E02DE9F04186B0064659
:10A420000D4600AF0224414B4FF482517B614048FE
:10A430003C6107F1100204F02AFF3E4B9B6ADB06E9
:10A4400009D53D4B4FF48251C7E90443384807F121
:10A45000100204F01CFF374B9B6A18070AD5374BD4
:10A460004FF482517B61022331483B6107F11002B6
:10A4700004F00DFF2F4CA36A990722D5E846304B14
:10A4800007F110027B6102234FF482513B6128489F
:10A4900004F0FDFE636BA26A120612D588B06A460C
:10A4A00028492348C2E9051303234FF4C25142F857
:10A4B000103F04F0ECFEC5461EB1A36A23F08003F2
:10A4C000A3621C4B9B6ADC070AD51F4B4FF48251D9
:10A4D0007B61022316483B6107F1100204F0D7FEAE
:10A4E000144B9B6A98060AD5184B4FF482517B6136
:10A4F00002230F483B6107F1100204F0C8FE002060
:10A500000C4B18379A6AD10658BF9A6A9A6A920613
:10A5100042BF5A6A22F400525A629A6A42F0FF021B
:10A520009A622870BD46BDE8F08100BF7105010048
:10A53000E0FF000000ED00E087050100BA05010022
:10A54000CD050100E5050100FB0501001A0601002B
:10A550002DE9F04186B006460D4600AF02243E4B81
:10A560004FF482517B613D483C6107F1100204F0D9
:10A570008EFE3B4B9B6AD90409D53A4B4FF482516E
:10A58000C7E90443354807F1100204F080FE344B5C
:10A590009B6A1A050AD5344B4FF482517B61022322
:10A5A0002E483B6107F1100204F071FE2C4CA36AA7
:10A5B0009B0522D5E8462D4B28487B61022307F1F5
:10A5C00010023B614FF4825104F061FEA36BA26A5A
:10A5D000100412D588B06A4625492048C2E90513FF
:10A5E00003234FF4C25142F8103F04F050FEC54619
:10A5F0001EB1A36A23F40043A362194B9B6A590559
:10A600000AD51C4B4FF482517B61022313483B61F6
:10A6100007F1100204F03BFE114B9A6AD20515D5E2
:10A62000154B7B6102234FF482510C483B6107F1CB
:10A63000100204F02CFE0020094A1837936A43F4F4
:10A640007F4393622870BD46BDE8F0819B6A9B04FE
:10A65000F1D50A4BE5E700BF49060100E0FF000025
:10A6600000ED00E05F060100BA0501007006010080
:10A67000890601009E060100B90601001A060100C4
:10A6800010B586B002243A4B4FF48251394804AADF
:10A690000593049404F0FBFD374B9B6A9B0108D59E
:10A6A000364B4FF48251334804AACDE9044304F0F9
:10A6B000EEFD314B9B6ADC0109D5314B4FF48251E1
:10A6C000059302232B4804AA049304F0E0FD2A4BCF
:10A6D0009C6A14F4801409D002242A4B4FF482514E
:10A6E000244804AA0593049404F0D1FD224B9B6AEC
:10A6F000180309D5244B4FF48251059302231D48BA
:10A7000004AA049304F0C3FD1B4B9B6A590309D5AB
:10A710001E4B4FF4825105930223164804AA04935A
:10A7200004F0B5FD144B9B6A9A0309D5184B4FF4FE
:10A730008251059302230F4804AA049304F0A7FD55
:10A740000D4B9B6ADB0309D5124B4FF482510593E5
:10A750000223084804AA049304F099FD064A2046FF
:10A76000936A6FEA03436FEA1343936206B010BD26
:10A77000D1060100E0FF000000ED00E0E906010065
:10A78000FC06010016070100400701005E070100FA
:10A79000830701009D0701002DE9F0478AB07A4B3D
:10A7A0000546D3F804908A461446002600AFC9F344
:10A7B000080886F31188BFF36F8F02F07F43B3F16F
:10A7C0007F4F25D1D30723D4500603D411070FD4CC
:10A7D00001260FE06D4B4FF48251FB6102236C4860
:10A7E000BB6107F1180204F052FD14F0040400D01C
:10A7F000554600260023FB71A8F10303092B00F244
:10A80000A280DFE803F007959891A0A0A0A0A09BEC
:10A810003546EFE7E9464FF002085E4B07F11802B4
:10A82000FB614FF482515A48C7F8188004F02FFD9D
:10A830000023554CFB71E36A9A070BD5564BC7E9C9
:10A8400006834FF48251524807F1180204F01FFDAD
:10A85000002438E0E36A002B01DA504BEFE7E36AAB
:10A860005B00F5D54E4B07F11802C7E906834FF49C
:10A870008251474804F00BFD6369AA6943F4807371
:10A880006361BFF34F8FBFF36F8F636932F8022CA0
:10A8900023F480736361BFF34F8FBFF36F8F4DF667
:10A8A00002739A422BD188B02B686A463D493848DA
:10A8B000C2E9051303234FF4C25142F8103F04F0DC
:10A8C000E6FCCD462C68FB79ABB92022294607F17E
:10A8D000080004F01AFD7B6A002E50D0C3F3080272
:10A8E00022B96FEA53236FEA43237B62204607F1C4
:10A8F0000801FFF70BFC2837BD46BDE8F087A36AC7
:10A90000DBB223B10120F91DFFF786FD0EE0A36A3B
:10A9100013F47F4F04D00120F91DFFF719FE05E065
:10A92000A36AB3F5803F93D3FFF7AAFE0446CAE7B4
:10A930000020F91DE8E70020F91DEEE71A4BFB6146
:10A940000223BB617DE7194A6C4619F4F87F8AB08F
:10A95000174B18BF13466A4616490D48C2E905133E
:10A96000A8F11003D3614FF400731384124B4FF41A
:10A97000115142F8103F04F08AFCA54668E723F421
:10A98000FF7323F00103B0E700ED00E0F6070100DC
:10A99000E0FF000019080100300801005108010023
:10A9A0005F0801007E0801009A080100DD07010030
:10A9B000C8070100BE08010004000001044B5A69E9
:10A9C00042F010025A615A6942F480625A6170473B
:10A9D00000ED00E0EFF30880EFF3098101B5724666
:10A9E000FFF7DAFE01BD00BF002320210348C21893
:10A9F0000133452B82F80013F9D1704700E100E0E4
:10AA0000002080F31488BFF36F8F002080F30A8842
:10AA100080F30B88FEF72EFD00200E490860BFF37F
:10AA20004F8F0D4880F3088800F03EF8202080F317
:10AA300011880A484FF40061401880F30988EFF349
:10AA400014800221084380F31488BFF36F8FFFF74F
:10AA50000DFC000094ED00E0C89C0020888F0020D1
:10AA6000BFF34F8F0549064BCA6802F4E0621343F7
:10AA7000CB60BFF34F8F00BFFDE700BF00ED00E0EC
:10AA80000400FA05002318460649D1F89020C2F3C5
:10AA90000722934200DB7047C1F89830C1F8A0004C
:10AAA0000133F6E700ED00E010B572B6002484F340
:10AAB0001388FFF7E7FF23464FF0FF300C4A03F1FE
:10AAC00020010133102B42F82100F8D100234FF070
:10AAD000FF30074A03F160010133102B42F82100D7
:10AAE000F8D162B6BFF34F8FBFF36F8F10BD00BFB9
:10AAF00000E100E0084B9B6883420BD1EFF3058334
:10AB000043B1064B5A6842F080525A605A6A22F4A6
:10AB100000425A6203F0AABCA089002000ED00E0C8
:10AB20001FB5094C094A23460121094800F02AF9BA
:10AB300000230393074B0121E41A01A80193029417
:10AB400000F02AF904B010BD0000082000800020A9
:10AB5000B0000100A081002010B50C7A0B6804F051
:10AB60001F0223F01F031A43CB68640923F01F035D
:10AB7000054943EA440343F00103C1F89800C1F8D2
:10AB80009C20C1F8A03010BD00ED00E080B500AF02
:10AB900088B06A46074BC2E90530032342F8103FEC
:10ABA00000234FF4C2510448FEF7ECFE6FF015008D
:10ABB000BD4680BDD5080100D8FF00002DE9F04F4B
:10ABC000144606464FF0000987B05F4D00AF79602C
:10ABD0007B68994535DAD6F80480B8F1000F54D077
:10ABE000B8F11F0F1BD918F01F0F18D1D6F800B0FD
:10ABF0001BF01F0F13D1584604F04EFB824608EBA2
:10AC00000B00013804F048FB82451FD06FF0150A95
:10AC10006C4688B06A464D49C2E9051A05E06C46A3
:10AC200088B06A464A4BC2E90539032342F8103F0F
:10AC300000234FF4C2514748FEF7A4FEA5466FF02B
:10AC4000150420461C37BD46BDE8F08F1AF1160FDB
:10AC5000DED05445DCDDC5F898A0D5F89C00C5F8D9
:10AC600098A0D5F8A02020F01F0042F01F08D6E9D8
:10AC700000211144904201F1FF3B1ED1D84508D17B
:10AC800031465FFA8AF004F010FB09F101090C3635
:10AC90009EE7C5F898A0D5F89C3021F01F0103F07D
:10ACA0001F030B433146C5F89C30E0B204F0FDFAB7
:10ACB00010F1160FC3D0441CE7E7013AD845E0B2C3
:10ACC00022F01F02C5F898A008D1D5F8A03031466F
:10ACD00003F01F031343C5F8A030E7E7D5F8A01031
:10ACE00001F01F010A43C5F8A020314604F0DDFA47
:10ACF00010F1160FA3D0C5F898A0D5F89C203B7C86
:10AD000008F1FF3862F304033B74D5F8A0303A7CB5
:10AD10005B0863F347123A74D6E900321344BB6010
:10AD200023F01F03441C4344A3EB0B03E0B223F0C6
:10AD30001F0307287B6102D9FFF728FFB8E707F157
:10AD40000801FFF709FFB6E700ED00E01E0901006A
:10AD5000FB080100D8FF00000522044BC3F8942033
:10AD6000BFF34F8FBFF36F8F704700BF00ED00E060
:10AD7000BFF35F8F0022024BC3F89420704700BFDF
:10AD800000ED00E010B5034C2278FFF717FF2070AC
:10AD900010BD00BF3C8A00202DE9F74F294D8A469F
:10ADA00006464FF00008AB46274FD0451BDAD6F8D1
:10ADB0000490B9F1000F3FD031680846019104F0CA
:10ADC0006BFA0199044609EB0100013804F064FABA
:10ADD00084424FF014021D4B08D002FB08F36FF0C1
:10ADE00015024BF8032003B0BDE8F08F14F1160FE5
:10ADF0002C60F8D01978A142F5DD02FB08B0C7F845
:10AE00009840C7F89840D7F89C4000F10801007BB3
:10AE100064F304000871D7F8A0000C79400860F3CF
:10AE200047140C71D7F89C1021F01F016960D7F806
:10AE3000A01021F01F01296108F1010814350C361A
:10AE4000B3E700BFF087002000ED00E03C8A00205F
:10AE500038B50E4D2C68082C15D80020FFF788FF58
:10AE60000B4B0C4AC3F8C020844205D10A4B00208A
:10AE70001C70FFF771FF38BD696801EB0011FFF727
:10AE80006BFE0130F0E74FF0FF30F4E7BC0001004B
:10AE900000ED00E0AAFF44003C8A0020014B18604E
:10AEA000704700BF0C800020084B70B5C31A0D46D8
:10AEB00007499B10044659434022064804F058FABB
:10AEC0002B4601462046BDE87040184718880020F0
:10AED000B76DDBB678FC0000402373B50B4C0093D4
:10AEE000041B0B460D460A49A41061430646094A55
:10AEF000094804F069FA011E05DA30462B4602B013
:10AF0000BDE87040184702B070BD00BF188800202F
:10AF1000B76DDBB633F4000078FC00002DE9F84390
:10AF20000022012106460520FFF786F9114801F0AD
:10AF300059FD114B984219D101F064FD00244FF0E6
:10AF40001C090C27DFF834803569414609FB0450A1
:10AF500003F0E3FD002807DB012307FB04551C4435
:10AF6000042CAB67F0D10020BDE8F8836FF004003B
:10AF7000FAE700BFB5AF00000000AD0BE400010030
:10AF800001460C23002270B54B430848C41878339F
:10AF9000D4E91C561844226704F0D7F92DB1324683
:10AFA0002B46BDE870400248184770BD1888002045
:10AFB00078FC0000052811D8DFE800F0030E10101F
:10AFC0000C0A074B986F10F0070007D1FFF7D8BFA6
:10AFD0000220FBE70320F9E70120F7E7704700BFF5
:10AFE0001888002008B54FF02003EFF3118183F398
:10AFF0001288BFF36F8F114A136843F0020010608C
:10B00000DA0708D481F31188BFF36F8FBDE80840D9
:10B01000012001F00BBD0A4BD3F80C24D3F80C34FB
:10B02000D307EFD5074804F090F981F31188BFF3F7
:10B030006F8FBDE808400020FFF7A2BFB88800204E
:10B0400000500040908800201FB500220123CDE968
:10B0500002236B46084ACDF800D0CDF804D004F0A6
:10B06000E1F9002805DB4FF480420023684602F036
:10B07000D3FE05B05DF804FB69F40000074BD3E88C
:10B08000EF2F22F00201C3E8E01F0028F7D1D30719
:10B0900002D4012004F0CDBB704700BFB888002067
:10B0A0002DE9F041012207463549D1E8EF3FC1E8DB
:10B0B000E02F0028F9D133B9324933484B60CB60D7
:10B0C0008A6003F03DFD7B1E012B28D8012F06D19D
:10B0D0002E4BD3F81C3403F00303022B1FD004F0D3
:10B0E0002EFC0546E8B92A4B1B78D3B1022206464E
:10B0F000264BC3F80823254CDFF89880D4F8183481
:10B10000D4F81824D20316D503F00303022B01D080
:10B11000012F10D175B386F31188BFF36F8FBDE88F
:10B12000F0814FF02003EFF3118683F31288BFF311
:10B130006F8F0125DFE7C5B13046FEF7DDFFD4F89C
:10B140001835DBB2012BD9D1D4F80421002AD5D08F
:10B150000022C4F80421D4F804210222C4F81825DE
:10B160002022C8F88021A360C8E70021212003F035
:10B1700043F9E4E70222054BC3F80423CFE700BFFD
:10B1800014880020048800203488002000500040EB
:10B19000878C002000E100E008B5074804F0C0FB00
:10B1A00038B10648FFF77AFE0448FDF7A9FB0020F6
:10B1B00008BD6FF01200FBE7D8FC0000C1B1000031
:10B1C0000A2838B50446074D04D1AB680D2128463E
:10B1D0005B689847AB6803485B68E1B298472046D4
:10B1E00038BD00BFD8FC000030B5406801F01F0436
:10B1F000057BB2F5001F85B044EA451405D1204611
:10B2000001F01CFF002005B030BD0025B2F5800F15
:10B21000CDE9025514D1B3F1007F0CBF04230523FF
:10B220008DF8083000232046194602AA01F044FD9B
:10B230001F4B984238D10121204601F0B9FEE1E7C9
:10B24000B3F1C06F25D0B3F1007F14BF01230223F7
:10B250008DF808308368CB40D907E3D4B2F1A07FE2
:10B26000E0D1144A14486109012908BF024604F0DC
:10B270001F03803352F82330DB07D3D40DF10705C9
:10B280002946204601F040FE0C4B984203D003951E
:10B29000C8E70323DCE7284601F084FE044B98420C
:10B2A000F5D06FF00B00AEE76FF01500ABE700BF15
:10B2B0000000AD0B00258440002884400400AD0B45
:10B2C00010B501F05FFE044668B901F033FE084B8B
:10B2D00098420AD12146074801F010FE2246052176
:10B2E0002F20FEF7A9FF002010BD6FF00400FBE740
:10B2F0000000AD0BF9B200004209034670B502D060
:10B30000012A17D070BD0D4E326951680029F9D05D
:10B31000012503F01F030C689D400029F2D08A68C4
:10B320002A4002D030464B6898472CB1236821460A
:10B330001C46F2E7024EE7E72346F8E7A8FC0000C8
:10B3400090FC00002DE9FF41476801F01F053B7BA1
:10B35000144645EA43150E4628460DF1030101F057
:10B36000D3FD14F4403F80460BD1284601F08EFEF9
:10B370003C4B984503D19DF8030001F00DFE0020E1
:10B380000CE000232846194602AACDE9023301F059
:10B3900093FC344B984204D06FF0150004B0BDE824
:10B3A000F081804503D19DF8030001F0F5FDA30372
:10B3B00049D540F206332340B3F5837F19D00CD82A
:10B3C000062B17D004D8ABB1022BE5D1042311E032
:10B3D000B3F5807FE0D101230CE040F202229342DA
:10B3E00026D0B3F5407F25D0B3F5007FD4D102231A
:10B3F00000E007238DF8043084F48033C3F3004366
:10B40000E0068DF805304CBF0323C4F3401321033D
:10B410008DF8063010D501237A68B340936000227E
:10B42000284601A901F0F6FC0E4B9842A7D0B3E7DD
:10B430000523DFE70323DDE7620341BF01237A68C9
:10B44000B340D360EBE7E3064FF000034CBF0324A7
:10B45000C4F340141A46284601A98DF8044001F0AF
:10B460002BFCE1E70000AD0B7FB5084B05930223F1
:10B47000049300234FF48251054804AAFEF782FA90
:10B480006FF0850007B05DF804FB00BFA209010062
:10B4900010000100B0B54468054600AF206804F014
:10B4A0003FFA68B1E36833B90023A17EDAB2914272
:10B4B0001FD800201BE0186804F032FA0028F3D1EE
:10B4C00023686C4688B01B686A461849C2E90513B0
:10B4D0004FF400739383164B42F8103F1548002336
:10B4E0004FF4E251FEF74EFA6FF01200A546BD464A
:10B4F000B0BDE269D25C0133032AD7D96C4688B06B
:10B500006A462B680C49C2E905134FF40073938314
:10B51000074B42F8103F074800234FF4E251FEF773
:10B5200031FA6FF01500A546E1E700BFC20901003E
:10B530000300000110000100DA0901002DE9F043C9
:10B5400083B0446800AFA66A0569002130463A1D01
:10B5500004F03EF9002832DB7B68326819791868FC
:10B5600000F0E2FE00282ADB0126636A9847AC68F7
:10B57000D5E9023203EBC2039C4204D3284604F00F
:10B580006CF800201BE0206804F0CAF9D8B92368E1
:10B59000196823796C468AB06A46D3614FF4007308
:10B5A0001A4813841A4BC2E905011A484FF4115185
:10B5B00042F8103F04F018F86FF01200A5460C375F
:10B5C000BD46BDE8F08320682179E388D0F810E01B
:10B5D000DA0754BF43F4B01383F4D013DEF800C08D
:10B5E00023F4801206FA01F8DB074CBF4CEA08038B
:10B5F0002CEA0803D0F80890CEF80030D9F80030D3
:10B6000098470028DBDB0834B2E700BF3A0A0100A4
:10B6100004000001F8FF00007FB504694668A56CCE
:10B62000236D8DB9002B37D11D46002220461146CF
:10B6300003F0F1FF256304F1200002F0CDFB0023AD
:10B6400084F85C3004B070BD616C0BBB39BB4FF645
:10B65000FF72AA4228BF2A46636CA26500911BB103
:10B66000A36C002B18BF13460193E36C02931BB12C
:10B67000236D002B18BF1346002269463046039302
:10B6800002F01CF80D4B9842DCD06FF00405CCE7BB
:10B690009D4228BF1D46D9E71D46616CD7E701F0E2
:10B6A0006043B3F1005FD2D0082D28BF0825206E7B
:10B6B0002A4603F02AFE216EC9E700BF0000AD0B49
:10B6C00010B503780C4686B0002B54D18B6C8A6D74
:10B6D0005BB19A421ED9294B4FF482510593022344
:10B6E000274804AA049303F07FFF236DA26D5BB18A
:10B6F0009A4227D9214B4FF48251059302232048C7
:10B7000004AA049303F070FF606D06B0BDE810401A
:10B71000FFF782BF9B1A8B6473B94B6B01F1480230
:10B7200008334B638B6B04F13400013B8B6338317E
:10B7300003F047FF6064D8E74B6C002BD5D013446F
:10B740004B64D2E79B1A23657BB9E36B04F150028B
:10B750000833E363236C04F14001013B236404F1EB
:10B760003C0003F02EFFE064CEE7E36C002BCBD06F
:10B770001344E364C8E706B010BD00BF5E0A0100D1
:10B78000F8FF00002DE9F04F8BB09A468B8800AF90
:10B790009B0480460E460469BA6038D44FF0FF32ED
:10B7A0004FF0FF3304F1100002F036FB6660D8F86A
:10B7B0000430D8F810909D68FB6099F85D307B608C
:10B7C00023B1D9F800309E4200F0E880B6F804C0FA
:10B7D0001CF4006F22D0A84B6FF085057B6202231A
:10B7E0004FF48251A5483B6207F1200203F0FCFEB2
:10B7F00023689B8813F4005304D1636004F11000A4
:10B8000002F0EAFA28462C37BD46BDE8F08FA3695E
:10B81000002BC3D163689942C0D1C8E71CF0010F67
:10B8200016D06D4688B0D8F800306A4694499348DF
:10B83000C2E905134FF400739383924B4FF4E25126
:10B8400042F8103F03F0D0FEAD466FF01505CFE78C
:10B850001CF0080F0BD08C4B7B6202234FF48251FB
:10B8600086483B6207F1200203F0BEFEEDE7CCF311
:10B870004513082B01D0854BEEE733683B603A68EF
:10B88000834B9A4201D8834BE6E7834B9D4206D90E
:10B89000824AD2F8582512F0030F18BF1D46FB68E4
:10B8A00007F1100E03F10C0BBBE80F00AEE80F0020
:10B8B0003B689BE80300AB4228BF2B461D46784BF4
:10B8C0008EE803009D424BD9764B9D424BD9764B77
:10B8D0009D424BD9754B9D424BD9754B9D424BD9DF
:10B8E000744B9D424BD36C4B9D424BD3724B9D424C
:10B8F0002CBF4FF0A0554FF020651CF0020FBD612A
:10B900000CF0040341D0002B14BF032302233B7728
:10B910007B68CCF3001C87F81DC02BB1F86801F0E0
:10B920007BFE002389F85D304B46644AF86807F1D6
:10B93000100101F053FD624B98422AD06D4688B049
:10B940006A46604B4FF4C251C2E9053003234B48AD
:10B9500042F8103F03F048FEAD466FF0040547E79C
:10B960004FF00075C9E74FF08065C6E74FF00065FE
:10B97000C3E74FF08055C0E74FF00055BDE74FF0EB
:10B980008045BAE74FF00045B7E7003B18BF0123F9
:10B99000BDE70123C9F8006089F85D30012384F810
:10B9A0005C30BB68002B54D163630023A36304F1B4
:10B9B000480204F1380104F1340003F002FE60642F
:10B9C000BAF1000F4DD1C4F83CA00023236404F168
:10B9D000500204F1400104F13C0003F0F2FD0026A6
:10B9E00001213246E0642663204603F014FE4046FF
:10B9F000FFF712FE256DA36CA0469D4238BF1D4681
:10BA00004FF4FA535D4358F8203B4FF4004C1B6849
:10BA10003146B5FBF3F540F2E730C8354FF47A72A2
:10BA20000023E5FB0C01FCF795FB02460B46404664
:10BA300002F0F2F9E8B1244B4FF482517B62022309
:10BA40000E483B6207F1200203F0CEFD6FF0730554
:10BA5000CEE6BB681B686363002BA6D0BB685B683F
:10BA6000A4E7DAF80030E363002BAED0DAF8043054
:10BA7000ACE7256BBCE600BF7C0A0100F8FF0000C4
:10BA8000960A010003000001B80A0100D70A01006C
:10BA900047E80100060B01000024F40000500040BC
:10BAA0008FD003001FA107003F420F007F841E00BC
:10BAB000FF083D0000127A000048E801C1B600000E
:10BAC0000000AD0B370B01005E0B0100F0B54B79A8
:10BAD000012B29D0032B24D110278B79032B20D1C4
:10BAE000CE790EB1012E1CD10A79012A1ED0022A6C
:10BAF00020D0B2B914460B684568B3F5164FD5F897
:10BB000000C06ED033D8B3F5165F6DD01CD8B3F536
:10BB1000966F6BD010D8B3F5967F6AD0B3F5167FC9
:10BB20006AD06FF085005BE00027D6E74FF48074A1
:10BB30000E22E0E70024FBE7B3F5166F5FD0B3F504
:10BB4000965FEED1384B3CE0B3F5E14F5AD007D8C1
:10BB5000B3F5615F58D0B3F5964FE2D1334B30E087
:10BB600047F61225AB42DCD14FF4000329E0B3F5D0
:10BB7000613F4BD013D8B3F5963F4AD009D84DF664
:10BB8000C025AB4247D0B3F5614FCAD14FF46B0328
:10BB900017E0B3F5E13FC4D14FF0EB7311E0B3F51B
:10BBA000612F3BD008D8224DAB423AD0B3F5E12FFC
:10BBB000B7D14FF0E86304E01E4DAB42B1D14FF076
:10BBC00080530569CCF8243543683A431B683443F5
:10BBD0002243C3F86C252B1D03C983E80300002012
:10BBE000F0BD4FF41D03ECE7134BEAE74FF49E233F
:10BBF000E7E74FF4A033E4E74FF41C33E1E74FF4F9
:10BC00001D23DEE70D4BDCE70D4BDAE74FF06C73DD
:10BC1000D7E70C4BD5E74FF46503D2E74FF07063DD
:10BC2000CFE74FF08063CCE700B0130000A04E00D8
:10BC300090D0030040420F000050270000C0750064
:10BC400000F03A0000903A012DE9F043804687B0B9
:10BC5000002201210820FEF7EFFA0820FEF7BCFAC7
:10BC60000021D8F80470D8F810603C686A46C4F81F
:10BC70000015C6F80080D7F80C90484603F0A8FDE0
:10BC8000051E25DB009BD9F800201979186800F003
:10BC90004BFB051E1CDB4046311DFFF717FF054619
:10BCA000B0B97B68990724D506F1180000F070FF41
:10BCB000244B984210D0244B0593022304932B4627
:10BCC0006FF004054FF48251204804AAFDF75AFE94
:10BCD000284607B0BDE8F083337E43F00043C4F844
:10BCE000A031C4F88C300123327E9340184AC2F848
:10BCF00004350823C4F800353B7A53B9C4F8103131
:10BD0000D4F810317369C4F834350123C4F83835D8
:10BD100023607B689A075CBF4FF48073C4F80433D8
:10BD20007B68DB0644BF4FF48003C4F804333369F7
:10BD3000C4F844350023C4F848350123A360E36008
:10BD4000C6E700BF0000AD0B9B0B0100080001001F
:10BD500000700140F8B504460D46076903F0EFFD99
:10BD6000B0B92E4B1B789BB16426606803F0BAFC17
:10BD700000BB012003F05BFD013EF6D10021212034
:10BD800002F03AFBF0E786F31188BFF36F8FF5E717
:10BD90004FF02003EFF3118683F31288BFF36F8F08
:10BDA0006068314603F09EFC90B986F31188BFF3BA
:10BDB0006F8FEDE74FF02003EFF3118683F31288C6
:10BDC000BFF36F8F6068314603F08CFC0028DAD037
:10BDD0003B691D70626838691368C3F84405012027
:10BDE000C3F848050020C3F82001D3F82051C3F858
:10BDF00058015268D3F85801D20608D50820626865
:10BE00001268C2F800054FF48002C3F8042301222F
:10BE10009A6081F31188BFF36F8FF8BD878C002083
:10BE20000123834070B5DC430B4AD2E8EF1F01EADF
:10BE30000405C2E8E65F002EF7D14FF4803282405D
:10BE40000648C0F80823BFF35F8FBFF36F8F0B4224
:10BE500014BF0120002070BDDC880020005001408C
:10BE6000F8B51B49044622F07F450868C1E9002364
:10BE7000A5F50013101AB3F5400F0FD302F03CFCE8
:10BE8000A30003F1804303F5A833D3F8402595427E
:10BE90001DD14FF40002C3F8402512E00D4B1B6882
:10BEA0001A0A1B065E190C4B42F10007C3E9006732
:10BEB00002F022FC094A04F5A87352F823309D428F
:10BEC00005D14FF48033054AA340C2F84433F8BD8E
:10BED00080860020E08800208886002000500140F5
:10BEE000D9B101230D4A8340D2E8EFCF4CEA030CCD
:10BEF000C2E8E1CF0029F7D14FF48033084A8340EC
:10BF0000C2F80433074BD3E8AF3FC340DB0742BF5F
:10BF10004FF40012044BC3F800217047DC88002066
:10BF200000500140D488002000E100E0C3B2024884
:10BF30009B001844704700BF40510140024B00F580
:10BF4000A87053F820007047005001400D4B18684E
:10BF5000010A0006BFF35F8F0B4BD3F804351818A6
:10BF600041F10001B3F5801F0AD2084BD3E9002349
:10BF7000904271EB030303D210F1807041F1000194
:10BF8000704700BFE08800200050014088860020F4
:10BF90002DE9F74F14461D460746FFF741FF009075
:10BFA000FFF7D4FFA04271EB050371D23F4B201A7B
:10BFB00065EB0101984271F1000174D23C4B03EB37
:10BFC0000713D3E902239D4208BF94424BD04FF49C
:10BFD000803924F07F4A5646BB0003F1804808F5BB
:10BFE000A83809FA07F3D8F84005DFF8C89001939C
:10BFF000D9F804B5A0EB0B0020F07F402BF07F4375
:10C000000128C8F8403502D1132003F0CBFD0BF115
:10C01000020CA6EB0C0020F07F40B0F5000F88BFAB
:10C020006646384603F0B9FB019B26F07F40C9F80D
:10C030004433C8F84005D9F8040583450AD0C0F157
:10C04000FF2000F57F00FE30304420F07F40B0F547
:10C05000000F1BD8A6EB0A0626F07F46361945F1DD
:10C06000000334461D4612490C9801EB0712C2E941
:10C07000024500243B01C8500D9B5360384600998F
:10C08000FFF72EFF204603B0BDE8F08F3046AFE744
:10C090000123094ABB40D2E8EF0F1843C2E8E10F81
:10C0A0000029E0D0F7E76FF01504E7E70100000191
:10C0B0006086002000500140D488002073B54FF402
:10C0C000803200254FF0FF304FF0FF31194C1A4BF2
:10C0D000C4F80855C3E90201C4F80423C3E9060102
:10C0E0004FF4003302264FF40012C4F80433134B0C
:10C0F0000121C4F804631520C3F880212A46FEF705
:10C100009BF81520FEF768F801230322A360236043
:10C110000B4B28461A600B4B0B4A1E600B4B0195CC
:10C1200000930023FFF734FF3046FEF7B9FF28469F
:10C1300002B070BD005001406086002000E100E0C8
:10C14000DC880020D8880020FFFF7F0061BE00004F
:10C150002DE9F74F3C4BD3F8042392070BD5D3F8C6
:10C16000042142B10022C3F80421384AD3F8043133
:10C17000136801331360364D00242F464FF4803A84
:10C18000314E4FF02003EFF3118183F31288BFF398
:10C190006F8FD6F804330AFA04F919EA030F0AD1AB
:10C1A00081F31188BFF36F8F103514B103B0BDE870
:10C1B000F08F0124E5E70123A340DB43254AD2E8C1
:10C1C000EF0F00EA030CC2E8EECFBEF1000FF6D18C
:10C1D00020B9214B53F82430002BE1D0204603F046
:10C1E000DCFA81F31188BFF36F8FFFF7AFFE4FF0DA
:10C1F0002003EFF3118C83F31288BFF36F8F07EBEB
:10C20000041EDEE902239042994104D28CF3118886
:10C21000BFF36F8FC8E70021D5E9008B4FF0FF30E7
:10C2200029604FF0FF31CEE902010749C1F8489378
:10C230008CF31188BFF36F8FB8F1000FB4D0204694
:10C24000CDF800B0C047AFE700500140E0880020C3
:10C2500060860020D48800204051014070B5012440
:10C260000C4B186890B1B0FA80F0C0F11F0004FACE
:10C2700000F1C943D3E8EF2F02EA0105C3E8E65F06
:10C28000002EF7D1C240D207EBD570BD6FF00B0086
:10C29000FBE700BFD88800200123054A8340D2E88D
:10C2A000EF0F1843C2E8E10F0029F8D1704700BF33
:10C2B000D8880020431C13B520D0012820DDB0F51C
:10C2C000000F1FDA441EFFF741FE0F4BD3E90013A6
:10C2D000421AB2F5000F28BF00240C480132224454
:10C2E000824228BF0246002052180949019000915D
:10C2F00043F10003FFF74CFE02B010BD0348E1E735
:10C300000024E0E7014CDEE780860020FFFF7F008D
:10C3100061BE000008B5FFF719FE024B1B68C01A8A
:10C3200008BD00BF808600204FF0010C2DE9F047CA
:10C330005B4E5C4F00EB8101814202D10020BDE8E1
:10C34000F087046804F07F03C4F343257F2B4FEA92
:10C35000144408BF4FF0FF33222C00F29D80DFE829
:10C3600004F0122328422B3E429B9B9B9B45729BD1
:10C370009B9B9B9B9B9B9B9B757D80839B9B9B8699
:10C380008C8F92959800C2F80C354FEA5318B8F18B
:10C39000010F14BFB646BE4603F01F040CFA04F4A6
:10C3A000CEF80840012402E0C2F814350024A64665
:10C3B00023E0C2F80835E8E70024C2F808354FEA60
:10C3C0005319B9F1010F14BFB046B84603F01F0E60
:10C3D0000CFA0EFEC8F80CE04FF0010E0DE0C2F8AA
:10C3E0000C350124EBE7C2F81035DFE7C2F8083559
:10C3F000002DDBD100240625A64650F804AB03F03F
:10C400001F090AF40058B8F1000F4FEA53131CBF7C
:10C4100001244FF0000E012B0CBFB846B04608EBCC
:10C420008908D8F80032CAF3C11A03F0E0492B0298
:10C4300043EA8A0343EA0E0343EA440343EA090357
:10C44000C8F8003278E7C2F80C35D1E7C2F8603599
:10C450000468C4F38034002CC3D096E7C2F8643576
:10C46000F6E7C2F86835F3E7C2F86C35F0E7C2F8D2
:10C47000243501244FF0000EBFE7C2F8283584E7C9
:10C48000C2F83035F5E7C2F83435F2E7C2F838358E
:10C49000EFE7C2F83C35ECE76FF085004FE700BFEF
:10C4A000002584400028844010B504460269A8B0E5
:10C4B000C2F880002549002000F0E8FE002201219A
:10C4C0002A20FDF7B9FE64688422002107A802F043
:10C4D00027FF6368B3F5803F0AD31D4B0593022302
:10C4E000049300234FF484511A4804AAFDF74AFA32
:10C4F0002368B3F5803F0AD3174B059302230493B7
:10C5000000234FF48451134804AAFDF73BFA00239B
:10C510000120279307AA61680432D940C90744BFA4
:10C5200000FA03F142F8041C2168D940C90748BF4A
:10C5300000FA03F103F1010348BFD163102BEAD1E4
:10C5400007A800F0BBFE002028B010BD51C60000B7
:10C55000E20B0100D0FF00000E0C010030B50F29E6
:10C560000C46056987B042D843681B68CB40DB079F
:10C570003DD5D5F88430CB4003F001031AB913BB85
:10C580006FF0770031E0002BFAD155F821304BB92C
:10C59000184A0592022204924FF48451164804AAC4
:10C5A000FDF7F0F9D5F8843013B92A20FDF714FE11
:10C5B0000122D5F88430A2401343C5F88430E0B29C
:10C5C00000F09CFE0AE0C8B200F0A0FE0122D5F8FF
:10C5D0008430A24023EA0203C5F88430D5F88430C1
:10C5E00013B92A20FDF706FE002007B030BD6FF01A
:10C5F0001500FAE73A0C0100D0FF000030B50546FF
:10C600000C4687B052B1104B0593022304930023CC
:10C610004FF484510D4804AAFDF7B4F90F2C0FD83C
:10C620006B685B68E340DB070AD501230020A400A8
:10C63000E4B204F1804404F52834236007B030BD2F
:10C640006FF01500FAE700BF6A0C0100D0FF000090
:10C6500070B5D1F880600F2804460D46736886B027
:10C6600003D81B68C340DB070AD4154B059302238C
:10C67000049300234FF48451124804AAFDF782F971
:10C68000D5F88430E34013F0010309D10E4A059236
:10C69000022204924FF484510A4804AAFDF772F969
:10C6A00005EB840255F8245045B10023214630465D
:10C6B000AC46126C06B0BDE87040604706B070BD75
:10C6C000850C0100D0FF0000A10C01007FB5FDF733
:10C6D00079F8074B059302230493064800234FF48F
:10C6E000825104AAFDF74EF90020FEF7B9F900BF08
:10C6F000D70C0100A8FF00002DE9F0411F46154BA3
:10C70000044693F800800D461646A2B0B8F1000F1B
:10C7100015D1684602F0BEFD3A4631462846289BB0
:10C72000A0470446684602F0B6FDB8F1000F02D0FB
:10C73000094801F015FB204622B0BDE8F0814FF01A
:10C74000FF324FF0FF33044801F090FA0028E0D0A8
:10C750001F24F0E7878C00207C81002030B595B045
:10C7600005460C463022002108A802F0D9FD3F23DF
:10C77000079307AB039334230694CDE9043554B1F2
:10C78000012305AA009200210448019303AA00F0A6
:10C7900007F815B030BD2046FBE700BF00010040A0
:10C7A00030B401F50045B5F5803F039C0DD243EA56
:10C7B0000405FF2D09D844EA0324134644EA014244
:10C7C000014630BC0348FFF797BF6FF0800030BCD4
:10C7D000704700BF217C0000044BD3F85825044B60
:10C7E00002F00302D340034A136070470050004038
:10C7F0000020A107A480002070B501250268B2FACC
:10C8000082F3C3F11F03DBB205FA03F422EA040446
:10C81000D0E8EF6F964204D1C0E8EC4FBCF1000FB6
:10C82000F6D1EBD101480B7070BD00BF0000AD0B1D
:10C8300010B50368CB40DB0710D401238B4002689E
:10C8400043EA0201D0E8EF4F944204D1C0E8EC1F64
:10C85000BCF1000FF6D1F2D1014810BD0148FCE750
:10C860000000AD0B0400AD0B73B5032800F2A080EF
:10C87000DFE800F0021825320222594BC3F80823E2
:10C880000022C3F80421D3F804210122DA60002435
:10C8900001238DF80730032800F28A80DFE800F0DA
:10C8A00029657394012200214D4B0DF10704C3F853
:10C8B0000823C3F80011D3F800115A60E8E74FF4D9
:10C8C0000072474BC3F808230022C3F82421D3F891
:10C8D000242101225A62DAE74FF48072404BC3F8F8
:10C8E00008230022C3F82021D3F820210122DA6195
:10C8F000CDE742F210753A4E6CB3D6F8183403F017
:10C9000003032370D6F81834D90351D59DF80700D6
:10C9100001284DD102F08BFF013DEDD148E09DF89B
:10C920000700012844D102F082FF013D4FD13FE0D2
:10C930009DF8070001283BD102F079FF013D37D077
:10C94000BCB1D6F80C3403F001032370D6F80C34D4
:10C95000DB032DD5ECE7D6F81834DA0328D501200F
:10C9600002F065FF013DF6D122E042F210751C4E47
:10C97000E6E7D6F80C34D8031AD5012002F057FFA9
:10C98000013DF6D114E042F21075154E94B1D6F87F
:10C990005C3403F001032370D6F85C34D90307D567
:10C9A0009DF80700012803D102F041FF013DEDD1C0
:10C9B00002B070BDD6F85C34DA03F9D5012002F07C
:10C9C00036FF013DF6D1F3E742F21075044ED6F87A
:10C9D0005434DB03ECD5002CA1D10120A3E700BF28
:10C9E00000500040044B1A7922B9012218601A71D4
:10C9F00002487047024870476C8900200000AD0B68
:10CA00000C00AD0B08B50520FDF708FC10B905209A
:10CA1000FDF7E2FB0122044BC3F81825C3F81425E7
:10CA2000C3F8802508BD00BF0050004008B50328AA
:10CA300018D8DFE800F002303B48294AD2F8183411
:10CA4000D2F81814C9030ED4D2F81434DB0713D566
:10CA5000D2F81C3403F00303013B012B09D8022355
:10CA6000C2F8043308BD03F00303022B05D0012BE9
:10CA700002D00020FFF7F8FE0123194AC2F818354A
:10CA80000023C2F80431D2F804310223C2F804337F
:10CA900001239360E6E70022114BC3F80021D3F88D
:10CAA00000210122C3F804231A60DBE700220C4BAB
:10CAB000C3F82421D3F824214FF40072C3F80423CF
:10CAC00001221A62CEE70022054BC3F82021D3F8D9
:10CAD00020214FF48072C3F8042301229A61C1E738
:10CAE0000050004010B5284BD3F8002152B100206F
:10CAF000C3F80001D3F800210122C3F80823234B17
:10CB00001B689847204BD3F804218AB10022C3F850
:10CB10000421D3F80421D3F81824D3F8181402F010
:10CB20000302012A4FF0020126D1C3F818159A60BA
:10CB3000154BD3F8202162B10022C3F82021D3F88D
:10CB400020214FF48072C3F80823104B04201B6887
:10CB500098470D4BD3F82421AAB10022C3F8242111
:10CB6000D3F824214FF40072C3F80823074B0520A3
:10CB7000BDE810401B681847C3F80813034B012099
:10CB80001B689847D4E710BD005000406C89002016
:10CB900001460148FFF730BEA88000200123044A67
:10CBA00083400146C2F808350248FFF741BE00BF86
:10CBB00000700140A8800020036803F01F0202609B
:10CBC000034A04485B09012B18BF1046704700BF99
:10CBD0000025844000288440034B083033F81000BF
:10CBE000C0F34010704700BFAC80002070B50D4C02
:10CBF00000F1080334F813300546DA050E4607D570
:10CC0000C3F3432304EBC302526854F8333098470C
:10CC1000A3682BB131462846E268BDE8704018474A
:10CC200070BD00BFAC80002010B4124A083032F84A
:10CC30001030D9051BD5C3F3432123F4F85322F850
:10CC40001030002002F10E0434F8023F13F4807F0C
:10CC500003D0C3F34323994209D001303028F3D1E4
:10CC6000002342F83130044810BCFFF7E1BD10BC8E
:10CC7000704700BFAC8000202081002038B50246FC
:10CC8000FFF7AAFF0B4C02F1080560B1002134F850
:10CC900015305B0B9B0003F1804303F53C33C3F875
:10CCA0001015C3F810151046FFF7BEFF002324F837
:10CCB000153038BDAC8000202DE9FF410446904678
:10CCC0001D4601B34F4E00F1080736F817309B0799
:10CCD00002D5FFF781FF28BB00232046CDE90033B2
:10CCE0008DF80E308DF80F300DF10F020B460DF15F
:10CCF0000E0102F0A0FD36F8173023F0020343F0D6
:10CD0000010326F81730B8F1000F2DD03D4E04F185
:10CD1000080736F8171098F800008A07D8F804308A
:10CD200002D5CBB1384821E021F02001C904C90C5B
:10CD300026F8171083B10328F4D8D8F8043093F8F4
:10CD400000C06246920002F1804202F53C3280B996
:10CD5000C2F81005C2F8100536F8173023F01C038E
:10CD600043EA800326F817301DBB284804B0BDE80D
:10CD7000F081D2F8103541EA4C3123F00303C2F8B8
:10CD80001035D2F8103541F0200123F44F3323F44D
:10CD90004073C2F810352302D2F810E503F47C5337
:10CDA00043EA004343EA0E03C2F8103526F8171091
:10CDB000D2E72046D5E90067FFF736FF002ED4D032
:10CDC000104DD5E90023964201D19F4218D010485A
:10CDD0000DF10F01FFF710FD0C4B9842C6D19DF8E5
:10CDE0000F2005EBC20308345F6035F8143045F8B6
:10CDF000326043EA422343F4807325F81430B4E7E9
:10CE00000022EEE7AC8000200400AD0B0000AD0B6B
:10CE100020810020F0B50446154685B019B3344E84
:10CE200000F1080736F81720930703D4FFF7D4FE64
:10CE300000285AD112F01C0F02D04B78012B54D08D
:10CE400001238DF80F3000234A1CCDE90013204642
:10CE50008B1C0DF10F0102F0EEFC36F8173043F099
:10CE6000030326F8173015B9224805B0F0BD204E4F
:10CE700004F1080736F81700830736D595F800C087
:10CE80000023614620F02000890001F18041C004A8
:10CE900001F53C31C00CC1F8103526F81700C1F877
:10CEA00010356A78002ADFD0D1F81035AD7823F438
:10CEB000991323F4F853C1F81035D1F810E5230283
:10CEC00003F47C53120402F4403243EA0E0313438A
:10CED0002A0502F4801240EA4C30134340F020004F
:10CEE000C1F8103526F81700BEE70348BDE700BFBC
:10CEF000AC8000200000AD0B0400AD0B014BC3E97A
:10CF000002017047AC80002008B50246FFF764FEBE
:10CF100038B1054B083233F8123004485B0B0B7004
:10CF200008BD0348FCE700BFAC8000200000AD0B4B
:10CF30000400AD0B38B50F4C94F87850BDB96022A1
:10CF4000294604F1100002F0EBF92F20FDF744F917
:10CF5000094B0A48C3F87C51D3F87C214FF00042BA
:10CF6000C3F80423012384F87830636738BD04488C
:10CF7000FCE700BFAC80002000F002400000AD0BD9
:10CF80000500AD0B034B93F87800003818BF012063
:10CF9000704700BFAC80002001460148FFF748BC45
:10CFA0001C81002001460148FFF726BC1C8100209F
:10CFB00037B50446FFF710FE1D4B04F1080233F8A5
:10CFC0001230D0B113F0020517D11A485B0B9A004A
:10CFD0008550805802F1804202F53C32D2F81005AB
:10CFE00040F00100C2F8100529B1012202FA03F352
:10CFF000114AC2F8043303B030BDC3F38203042BDB
:10D0000011D0052B11D001A80194FFF7D5FD019B8C
:10D010000169D94001F001010231204603B0BDE8A9
:10D02000304002F051BC0321F7E70221F5E700BFD1
:10D03000AC80002000F1024000F0024008B502463A
:10D04000FFF7CAFDC0B10F4B02F1080133F81130F0
:10D05000990711D401225B0B9A400B499B0003F105
:10D060008043C1F8082303F53C33D3F8102522F0A0
:10D070000302C3F8102508BD0021BDE80840104692
:10D0800002F022BCAC80002000F0024013B5104B2F
:10D0900000F1080233F812300446DB0716D5FFF71B
:10D0A000CDFF2046FFF7EAFD01A80194FFF784FDBC
:10D0B000019B00EB8300D0F8003203F0E04343F023
:10D0C0000203C0F80032034802B010BD0248FBE77B
:10D0D000AC8000200000AD0B0400AD0B2DE9F04F3B
:10D0E000002601223446634B6348644987B01D68BB
:10D0F00035B1D0F8045315421EBF1C601D6816439D
:10D1000004338B424FEA4202F1D1DFF86CA1DAF826
:10D110007C31002B00F09180DFF86481D8F820305A
:10D120000493C8F82030574B1A6A05921A624FF0E0
:10D1300000090DF1100B4FEA4913009348E094FAEF
:10D14000A4F4B4FA84F4009B4F4A1C4404F108038D
:10D1500032F813700123E00804F0070203FA02F228
:10D160001BF80030039423EA02030BF8003003A8F5
:10D17000FFF722FD039BB908803350F82330C7F333
:10D1800082054A072F46C3F301432BD52046394673
:10D19000DDB2FFF72BFD03A80394FFF70DFD039B02
:10D1A000803350F82330C3F301439D4207D100215F
:10D1B000204602F089FB2946204602F085FB03A8A1
:10D1C0000394FFF7F9FC0122039B02FA03F30362C5
:10D1D0005BF82940002CB2D1B9F1000F1DD14FF0FE
:10D1E0000109A8E7022B0CD10321204602F06CFBB9
:10D1F00005F00503012BE2D139462046FFF7F6FC86
:10D20000DDE702212046019302F05EFB032DF3D0FF
:10D21000019B032BD3D1022DEDE7CAF87C41DAF84C
:10D220007C31D8F8203017490493C8F820300A6AB6
:10D23000134305920A627FF47AAF012416B907B04E
:10D24000BDE8F08F96FAA6F3B3FA83F304FA03F27B
:10D250009B0003F1804303F53C33D3F81005D3F86A
:10D260001015C0F30520C1F3014126EA0206FFF7BD
:10D27000BDFCE3E700F1024000F0024020F1024073
:10D280000025844000288440AC80002070B5084C04
:10D290000E462379154643B92A20FCF79DFF01234A
:10D2A000044823712660A56070BD0348FCE700BFF9
:10D2B000748900200000AD0B0C00AD0B002330B5CD
:10D2C0000D4A50F8234003F5A2710133102B42F8A8
:10D2D0002140F6D10023084A00F13C0103F5B27465
:10D2E00051F8045F0133102B42F82450F6D1D0F8E6
:10D2F0008030C2F8043330BD00A002400123024A4E
:10D300008340C2F80433704700A002400123024A60
:10D310008340C2F80833704700A00240F8B50126E8
:10D3200000270B4B0B4DD3F80C4304B9F8BD94FA0E
:10D33000A4F0B0FA80F006FA00F324EA0304064BE6
:10D3400082009F502B68002BEFD0A9689847ECE72C
:10D3500000A002407489002000A10240054A064B4B
:10D3600000F01F014009012818BF134601228A401E
:10D37000DA607047002584400028844070B50D4C69
:10D380000D4E00F01F054009012818BF34469DF8D6
:10D39000100004EB85040002D4F8005240EA830038
:10D3A000084305F0E04540EA42002843C4F8000283
:10D3B00070BD00BF0028844000258440054A064B0C
:10D3C00000F01F014009012818BF134601228A40BE
:10D3D0009A60704700258440002884402DE9F74377
:10D3E000874D07790C4605EB4711097F80460029D8
:10D3F00040F00081002F40F0FF80D0F80090A0683E
:10D40000E67BB0F1206FE17C27D0B0F1A05F24D1A2
:10D4100019B1207D002840F0D5807A4881451CD183
:10D420002078FF2802D0082840F0E880E078FF2824
:10D4300002D00B2840F0E280FF2E02D00C2E40F0EC
:10D44000DD806078FF2802D0092840F0D780A078DE
:10D45000FF2802D00A2840F0D180C5E90023AB7F25
:10D4600061F30003AB772279DBB262F34103AB7760
:10D47000627CDBB262F38203AB77E378EB77E37C29
:10D48000D8F80060002B42D1A3682078B3F1A05FE8
:10D49000237B08BF0327012B00F29680FFF75EFF76
:10D4A0000023009720781A460121FFF767FF607874
:10D4B000FF2808D0FFF752FF0122009700231146F2
:10D4C0006078FFF75BFFA078FF2805D00022009767
:10D4D0001146A37BFFF752FFE078FF280BD023799A
:10D4E000002B74D0FFF73AFF01220097002311466A
:10D4F000E078FFF743FFE07BFF2808D0FFF75EFFEF
:10D500000122009700231146E07BFFF737FF237DC0
:10D510006BBB63782178FF2B18BF1A46A37808BF2E
:10D520004FF0FF32FF2B08BF4FF0FF33C6F808154E
:10D53000C6F80C25C6F8103598F80430BBB9E37866
:10D54000FF2B47D0627C002A44D02179A27CC6F808
:10D550001435C6F86815C6F8642598F8043033B950
:10D56000E37BFF2B08BF4FF0FF33C6F86C35237CFD
:10D57000C9F86035A368C9F82435637B227B003B7A
:10D5800018BF0123022A2FD0032A30D0012A01D14B
:10D5900043F00203C9F85435A379C9F8C03507230D
:10D5A000C9F800352B682BB1D8F8000040F30730DC
:10D5B000FCF712FE00236B77012313482B7703B08F
:10D5C000BDE8F083014648E7FFF7F8FE68E7FFF79C
:10D5D000F5FE89E74FF0FF33C6F814350023C6F88F
:10D5E0006835C6F86435B8E743F00403D2E743F082
:10D5F0000603CFE70548E2E70548E0E70548DEE730
:10D600008089002000A000400000AD0B0500AD0B9C
:10D610000300AD0B0400AD0B2DE9F3410379254D5B
:10D620005E0105EB4318AB5907460468CBB144F3E0
:10D630000730FCF7DFFD204BC4F8083398F81D30A5
:10D640007BB101234FF064086361D4F804312BB936
:10D65000012002F0ECF8B8F10108F6D10022AB1974
:10D660005A770023C4F80035AB199B7FDB071BD426
:10D67000D4F8080502F037F9D4F8100502F033F9B0
:10D68000D4F80C0502F02FF93B791BB9D4F86C05DE
:10D6900002F029F9AB19D87FFF2805D00023012219
:10D6A00019460093FFF76AFE002335442B7702B03A
:10D6B000BDE8F08180890020520108002DE9F8437F
:10D6C000384F0379154607EB431898F81D2081461B
:10D6D0000C465E01002A63D1BA592AB115F0140F25
:10D6E00004BF012288F81D2007EB060C0CF10C0C7E
:10D6F00094E80F008CE80F000121404602F0FFF88B
:10D700002168D9F8003021B101F06042B2F1005F28
:10D7100006D1A26852B102F06042B2F1005F05D0BA
:10D7200000233E4420487377BDE8F8836268C3F85D
:10D730004415C3F84825D4E90212C3F83415C3F8D8
:10D7400038250022C3F81821D3F8182115F001025A
:10D7500018BF0122C3F8502515F0020218BF01229C
:10D76000C3F840252A0707D5BA5972B900214046A7
:10D7700002F0C5F80D48D7E701221A61BA5922B95B
:10D78000D3F81821002AFBD0F0E715F0040F4FF072
:10D79000400202D0C3F80823ECE7C3F80423E9E70A
:10D7A0000348C1E7808900200A00AD0B0000AD0BE3
:10D7B0000B00AD0B70B50C4BD3F8182192B10025BE
:10D7C0000A4C29462046C3F81851D3F8183102F004
:10D7D00096F8D4E900316577257204F10800BDE8B8
:10D7E0007040184770BD00BF00A000408089002035
:10D7F0002DE9F04786B005460E4600AF4FF02003F6
:10D80000EFF3118883F31288BFF36F8F00F028FEC7
:10D81000042D98BF2C4BE9468AB004466A4694BF53
:10D8200053F82530294BD36140F201334FF0000A01
:10D8300093842749274BC2E90515C2F820A042F876
:10D84000103F4FF4315153462348FCF79BF8CD4627
:10D850007EB1F369C3F308035BB1204B7B61022304
:10D860003B614FF4825153461B4807F11002FCF70D
:10D8700089F82CB1204602F06BF808B1037803B99F
:10D880001748E9468AB06A46164BD061C2E90534AA
:10D8900040F201331384144B42F8103F00234FF43D
:10D8A00011510D48FCF76EF83146CD462846FEF77B
:10D8B0000DFF88F31188BFF36F8F2046FDF71AF92B
:10D8C0001837BD46BDE8F08770020100F40C010076
:10D8D0000A0D010005000001E0FF0000320D01000B
:10D8E000020D0100530D0100040000010F4B70B543
:10D8F00053F82040013053F82060A64200D870BD94
:10D90000D4E90035284698476DB138B10028B8BF32
:10D910004042FF28A8BFFF20EB681870EA685378E0
:10D9200043F0010353700834E7E700BF84020100AD
:10D93000012208B5094B03201A70FFF7D7FF01F049
:10D9400007F80420FFF7D2FF00F018F9FAF76AFD94
:10D95000034A137B23F00103137308BD878C002057
:10D960001087002008B50348034A0021121A01F06D
:10D97000E2FF08BDA0810020888C00200023012246
:10D9800070B586B0CDE904230F220193CDE90232B0
:10D9900018234FF4A0720E4D0E4E03FB00550E4996
:10D9A00006EBC016044602FB00110C4B30460095F6
:10D9B00000F088F8737B2C7523F004037373084B15
:10D9C000013403EBC423EE606B6006B070BD00BF92
:10D9D000A0890020908600208897002035DC000078
:10D9E000888F002080B50020A6B0FFF77FFF2E4B68
:10D9F00003F5006282F3088883F30A880024E02399
:10DA00002A4D2B4E85F82230EC772C766C76AC764E
:10DA100085F820406B6A274F43F4E0236B6285F85A
:10DA20002340FCF7CBFFFCF753FB4FF0FF33AB6217
:10DA3000EB62FDF70DFAFDF773F8FBF737FE40F2E6
:10DA40000113ADF8243006ABB360CDE91F44229436
:10DA500001F065FF0120FFF749FF0220164DFFF797
:10DA600045FF00F03BFC154BF5610593012314497C
:10DA70004FF48062CDE9034328463B46CDE901449B
:10DA8000009400F01FF806466A7B284622F0040244
:10DA90006A7301F0D6FF2046FFF770FF3A46314621
:10DAA0002846FCF777FC00BF888F002000ED00E0DF
:10DAB000A089002031D9000010870020190301003F
:10DAC000C89800202DE9FF410E9E00F1580506730D
:10DAD0000426C0E916550025044646730D9EC0E98C
