:020000021000EC
:10000000809D0020FD35010095950100B53501006A
:10001000B5350100B5350100B5350100B535010034
:10002000000000000000000000000000D1260100D8
:10003000B5350100000000006D260100B535010056
:10004000692701006927010069270100692701006C
:10005000692701006927010069270100692701005C
:10006000692701006927010069270100692701004C
:10007000692701006927010069270100692701003C
:10008000692701006927010069270100692701002C
:10009000692701006927010069270100692701001C
:1000A000692701006927010069270100692701000C
:1000B00069270100692701006927010069270100FC
:1000C00069270100692701006927010069270100EC
:1000D00069270100692701006927010069270100DC
:1000E00069270100692701006927010069270100CC
:1000F00069270100692701006927010069270100BC
:1001000069270100692701006927010069270100AB
:10011000692701006927010069270100692701009B
:10012000692701006927010069270100692701008B
:10013000692701006927010069270100692701007B
:10014000692701006927010069270100692701006B
:04015000692701001A
:1001540053B94AB9002908BF00281CBF4FF0FF312A
:100164004FF0FF3000F00CB8ADF1080C6DE904CE8F
:1001740000F008F8DDF804E0DDE9022304B070477C
:10018400704700BF2DE9F04786468C460846089E16
:10019400154674461946002B40F0C1808542B2FAD8
:1001A40082F245D94AB1C2F1200300FA02FC95401B
:1001B40094402EFA03F343EA0C0C4FEA154EA8B20E
:1001C400230CBCFBFEF80EFB18CC08FB00F943EA39
:1001D4000C43994528D9EB1808F1FF3704D2994507
:1001E40002D9A8F102072B44A3EB0903A4B2B3FB81
:1001F400FEFC0EFB1C330CFB00F044EA0344A0425B
:1002040014D92C190CF1FF3304D2A04202D9ACF159
:1002140002032C44241A43EA07401EB1D4400023AD
:1002240034607360BDE8F0874746DDE76346F1E775
:1002340092BB431B01214FEA154EAFB2200CB3FB16
:10024400FEFC0EFB1C330CFB07F840EA0343984505
:1002540061D9EB180CF1FF3004D2984502D9ACF106
:1002640002002B44A3EB0803A4B2B3FBFEFC0EFB79
:100274001C330CFB07F744EA0344A7424DD92C195D
:100284000CF1FF3304D2A74202D9ACF102032C448F
:10029400E41B43EA0040C0E7C2F1200395409440C8
:1002A40020FA03F12EFA03F34FEA154E9040AFB251
:1002B4000343B1FBFEFC0EFB1C10190C0CFB07F8EE
:1002C40041EA0041884522D969180CF1FF3004D273
:1002D400884502D9ACF102002944A1EB08019BB284
:1002E400B1FBFEFC0EFB1C110CFB07F743EA0143B8
:1002F4009F420ED9EB180CF1FF3104D29F4202D970
:10030400ACF102012B44DB1B41EA004193E7604658
:10031400E3E76146F7E76046A4E76346B8E783424C
:1003240006D916B9002108467CE7C6E900E0F9E7DA
:10033400B3FA83F78FB9834201D3724508D8BEEB71
:10034400020460EB030301209C461EB9002169E707
:100354003846FAE7C6E9004CF8E7C7F1200CBB4081
:100364000EFA07F522FA0CF42EFA0CF1BA401C43EB
:1003740020FA0CF3B8404FEA144901431FFA84FEF3
:10038400B3FBF9F809FB18300B0C08FB0EFA43EA2F
:1003940000439A4540D9E31808F1FF3004D29A4546
:1003A40002D9A8F102002344A3EB0A0389B2B3FBE8
:1003B400F9F809FB183308FB0EFE41EA03418E45A8
:1003C4002CD9611808F1FF3304D28E4502D9A8F163
:1003D4000203214443EA0040A1EB0E01A0FB029872
:1003E4004145CE46434602D306D14D4504D2013899
:1003F400B9EB020E68EB0403002EA7D0B5EB0E0296
:1004040061EB030101FA0CFC22FA07F3F9404CEA10
:100414000303C6E9003199E74046C5E74346D9E7F7
:100424002DE9F04188B000AF9F480AF062F9002836
:1004340079D09D4B19686C4600233B7102237B7174
:1004440088B06E4616F1100211D00E201AB104289D
:1004540001DD964B736100233B7002237B709AB1DC
:10046400082800DDB16106F11C0300210AE06FF0E9
:100474000040EBE701F1200CBC441CF820CC03F84D
:1004840001CB01310129F5D90D2849DD0E2342B1F3
:100494000321397100217971B9710121F9717868E9
:1004A400306100216FF300016FF341016FF38201AA
:1004B4006FF3C5014FF0030868F38811C3F3090310
:1004C40063F352216FF3DE416FF3DF71784E002343
:1004D400304608F046FFA546764BFB6102233B718C
:1004E40000247C71BC71FC717B68BB61214664F3A0
:1004F400000164F3410164F3820164F3C50168F30C
:100504008811082363F3522164F3DE4164F3DF713D
:10051400234607F11802304608F023FFA0468DE079
:100524006FF01B03B3E7604B196800233B71022390
:100534007B7188B06C4614F1100211D00E201AB1F0
:10054400042801DD5C4B636100233B7002237B7054
:100554009AB1082800DDA16104F11C0300210AE01E
:100564006FF00040EBE701F120053D4415F8205CF5
:1005740003F8015B01310129F5D90D2826DD0E238D
:1005840042B10321397100217971B9710121F971E5
:100594007868206100216FF300016FF341016FF36C
:1005A40082016FF3C501012060F38811C3F30903CD
:1005B40063F352216FF3DE416FF3DF7100233C4894
:1005C40008F0CFFE2037BD46BDE8F0816FF01B0375
:1005D400D6E76FF000414FE06FF01B013AB1032002
:1005E400387100207871B871F871786818616FF308
:1005F40000056FF341056FF382056FF3C505012311
:1006040063F3881501F47B7363F352256FF3DE45BE
:100614006FF3DF7500232946254808F0A2FEB5468E
:100624000134172C05D908F10108B8F1030F36D0AD
:10063400002440F26760002107F0D6FB1F4E6022C1
:100644000021304609F09FF804221D4901EB88017E
:1006540006EB840009F068F8134883681B681822C5
:100664003146984784460028DAD06E4688B06B46F7
:1006740013F11002ADD00C2152B10846042903DD58
:10068400DFF840E0C3F814E00828A5DDC3F818C07B
:100694000B2901DD0C21A1E76FF01B019EE74FF050
:1006A40000084446C5E700BFF8AC010058B001009B
:1006B400A0AF010074B0010090B001004088002098
:1006C400D0B00100B4B001002DE9F04F97B000AFF5
:1006D4008346BA613B61D7F88030C3F3C0033B6201
:1006E400F96051B19BF80260B14656B1D7F8803039
:1006F40013F0010F11D1002304E007F05DFEF86050
:10070400F0E700239BF803207A6242B1D7F88020F7
:1007140012F0020F22D1002202E00123F2E70022AC
:1007240002B9EBB19BF80050AA00BA60DBF80420D0
:100734007A610BEB8505BA69F2B1002B40F01281A6
:10074400B9F1000F00F01D81D7F8803013F0040FC9
:1007540040F01B810020F861064607E10122DFE733
:10076400BB691BB13A69F96858469847FC6820464A
:100774005C37BD46BDE8F08FFC682BBBB9F1000FB8
:1007840038D0D7F8803013F004033B6127D04D44B0
:1007940000233B6123E00444013501364E451AD25F
:1007A4002A7800235BF822201946B86907F019FE5D
:1007B400BAF1000FEFD0D7F888309845EBD22AF879
:1007C400180008F10108E6E70026B046C7F81CA0A7
:1007D400D7F884A0E2E7C7F81080D7F81CA0D7F8B0
:1007E400803003F00503FB604FF00008A146C7F812
:1007F4001CB0A1E0C7F81090F1E700253B6A7BB973
:10080400002D7BD0D7F8803013F0010F7BD1FB682B
:10081400002B71D10223A9EB03098AE00125EDE73E
:100824005946786907F024FE0028E9D06C46002375
:1008340087F82C30022387F82D308AB0694611F1ED
:10084400100239D012251AB1042D01DDB34B4B61CE
:10085400002387F82830022387F829307ABB112D2A
:1008640047DD122362B1042087F82C00002087F8AA
:100874002D0087F82E00012087F82F00F86A086100
:100884006FF3000A6FF3410A6FF3820A6FF3C50A2C
:10089400022161F3881AC3F3090363F3522A6FF345
:1008A400DE4A6FF3DF7A002351469D4808F059FD74
:1008B400A546A9F102093CE06FF00045C3E72B46C9
:1008C400082D01DD786988610C2B01DDC1F81CB0AD
:1008D40001F12003002009E000F1300C07F1280E9B
:1008E400F4441CF830CC03F801CB01300128F3D9CF
:1008F400B5E76FF01B03B5E701238CE7D7F8803029
:1009040013F0020F15D0002322461946B86907F0E8
:1009140068FDD7F8843053B13B69D7F888209342F7
:1009240005D2D7F8842022F8130001333B61013843
:10093400814408F1010835467B6A984510D22E4659
:1009440016F802BB6B78FA6952F82340754B9C4247
:10095400FFF453AF744B9C42FFF460AF00254DE7A6
:100964004C4604E707F144000023FB6118B14A46F2
:10097400294608F0D9FE4D444FF00008C7F804900A
:100984001EE00020F8610646F0E7FE6107F134003E
:100994000026EBE700253B6A33BB002D3BD0D7F89C
:1009A400803013F0010F26D0731C06F1300207F1DA
:1009B4002801561806F8149CDEB208F101082546F1
:1009C4007B6A98454AD22C4614F802AB95F80190FC
:1009D4005BF82930534A9342DCD3534A934201D300
:1009E4000025D8E70125D6E75146786907F040FD90
:1009F4000028D2D0E1E7D7F8803013F0040FDCD020
:100A0400FA69531C303207F128010A4402F8249C85
:100A1400DBB2FB61D1E7D7F8803013F0020F09D0C5
:100A2400731C06F1300207F12801561806F8149CCD
:100A3400DEB2C2E7F869431C00F1300107F1280275
:100A44008A1802F824AC02460232D2B2FA6107F1E3
:100A5400580252FA83F303F8249CAEE7D7F80490C3
:100A64009BF8003087F854309BF80130334487F802
:100A74005530D7F8803013F0020F0ED1FB69C3F361
:100A8400470387F85730D7F8803013F0010F06D1A9
:100A940013F0040F3FD1002302E00023F1E7002309
:100AA40087F85630DBF800003863786DCBF8000027
:100AB400D7F810804246B9685846D7F818A0D047EE
:100AC400041EFFF654AE386BCBF80000C7F8108054
:100AD4004246F96907F13400D047002857DB04EB9C
:100AE4000008B96849447B6A01EB4301D7F81090C8
:100AF4004A46FB68591A2846D047041EFFF637AE0B
:100B040008EB04054FF000087E62C7F820B0564693
:100B1400D7F884B01FE0FB69C2E700BFE4B001006E
:100B240070AF0100E0AB0100ACBE01004FF0000A61
:100B34004A46012107F12C00B047002829DB05446F
:100B4400534622464946304607F04BFC002822DB38
:100B5400054408F101087B6A984511DA08F130036D
:100B640007F12802134413F8143C87F82C303A6A2E
:100B740052F82340BBF1000FD8D03BF818A0D7E7B8
:100B84003A6900210846BB6998472C46EFE50446BC
:100B9400EDE50446EBE50446E9E500BF08B5024B84
:100BA4001B68984708BD00BF00800020014B1860F7
:100BB400704700BF0080002000B583B002460B469A
:100BC40000210091024800F035F903B05DF804FB00
:100BD400A10B010010B586B00446039004910021D6
:100BE4000591009103A9064800F024F9059B049A95
:100BF400934201DA0022E254059806B010BD00BF0A
:100C0400C78401002DE9F04383B004460846154625
:100C1400238B13F0080F05D103F00706002300937C
:100C2400019355E0012909D043F02003238385F380
:100C34001188BFF36F8F03B0BDE8F08343F0100356
:100C44002383F4E7204607F0A4FC43E0D4F814908F
:100C54004A466946204607F0B5FC4FF00008238B4E
:100C640003F00707B74269D0A268002A66D00122C0
:100C740043F00803238385F31188BFF36F8F002AA1
:100C840064D1009B2BB14B463A466946204607F097
:100C940012FDB8F1000F02D034492046C0474FF08E
:100CA4002003EFF3118583F31288BFF36F8F238B37
:100CB40023F008032383238B13F0100F4CD023F06D
:100CC400100323830120268B06F007060028AED0EC
:100CD4000228B7D00028AAD0013804282AD801A3B2
:100CE40053F820F0510C0100390D0100FD0C0100F6
:100CF400110D0100250D01002369D3F800800621A0
:100D0400204607F01CFC4FF00009A8E72369D3F83C
:100D140004800421204607F012FC4FF000099EE7EE
:100D24002369D3F808800521204607F008FC4FF01A
:100D3400000994E74FF00008C14690E7009A0AB111
:100D4400002295E7B8F1000F92D1B4E74A4639463C
:100D5400204607F0FCFB94E713F0200F04D023F0A7
:100D6400200323830220AEE70020ACE7E9860100DC
:100D740084460846012226E09CF8003043F0040330
:100D84008CF80030F2B101301CE09CF8003043F0E4
:100D940008038CF80030F5E79CF8003043F01003AA
:100DA4008CF80030EEE79CF8003043F020038CF818
:100DB4000030E7E79CF8003043F040038CF8003043
:100DC400E0E7002242B30378203B102BF9D801A1BD
:100DD40051F823F09D0D0100C70D0100C70D01005E
:100DE400AB0D0100C70D0100C70D0100C70D0100C7
:100DF400C70D0100C70D0100C70D0100C70D01009B
:100E04008F0D0100C70D01007D0D0100C70D01000C
:100E1400C70D0100B90D01009CF8003003F0440334
:100E2400442B00D070479CF800306FF386138CF885
:100E34000030F7E72DE9F04F91B006460D46914694
:100E44000393002499F80000002800F0B9822528B3
:100E540008D009F101092946B0470028C0F2B1823F
:100E64000134EFE700230493059306930793089353
:100E74000993494606A807F051FE02909DF81930DF
:100E840013F0010F00F09780039B1A1D03921F6853
:100E9400002FC0F288809DF8193013F0040F00F081
:100EA4009C80039B1A1D0392D3F800A0BAF1000F93
:100EB400C0F28A800023079308939DF81A3003F048
:100EC40007039DF81910C1F3C301012B00F08E80B4
:100ED400022B00F0D380042B00F02481032B00F0BC
:100EE4003B819DF8188018F0030B40F03B819DF87E
:100EF4001B30253B532B00F2CA81DFE813F040017D
:100F0400C801C801C801C801C801C801C801C80195
:100F1400C801C801C801C801C801C801C801C80185
:100F2400C801C801C801C801C801C801C801C80175
:100F3400C801C801C801C801C801C801C801C80165
:100F4400C801C801C801C801C801C801C801C80155
:100F5400C801C801C801C801C801C801C801C80145
:100F6400C801C8018101C801C801C801C801C8017C
:100F7400C801C801C801C801C8015E016701C801F0
:100F8400C801C801C8016701C801C801C801C80176
:100F9400BD018101A101C801C8014D01C801810140
:100FA400C801C80181019DF8183043F004038DF88D
:100FB40018307F426FE79DF91830002B02DB4FF0A9
:100FC400FF3768E7079F66E79DF819306FF3410321
:100FD4008DF819304FF0FF3A6CE713F0020F02D08E
:100FE400DDF820A066E74FF0FF3A63E7CB1E042B41
:100FF40004D8DFE803F00B1D29353500039B1A1DC7
:1010040003921B68DA170493059206E0039B1A1DEA
:1010140003921B68DA1704930592012928D0022948
:101024007FF45FAFBDF91030DA170493059258E7E7
:10103400039B073323F0070303F108020392D3E968
:101044000023CDE90423E8E7039B073323F00703D8
:1010540003F108020392D3E90023CDE90423DCE77A
:10106400039B1A1D03921B68DA1704930592D4E7B5
:101074009DF91030DA170493059232E7CB1E042B46
:1010840004D8DFE803F00B1F35414100039B1A1D10
:1010940003921B680493002305931EE09DF81B3004
:1010A400632B07D0039B1A1D03921B680493002330
:1010B400059312E0039B1A1D03921B6804930023FB
:1010C40005930AE0039B073323F0070303F10802A7
:1010D4000392D3E90023CDE9042301291CD002297A
:1010E4007FF4FFAEBDF81030049300230593F8E6B7
:1010F400039B073323F0070303F108020392D3E9A8
:101104000023CDE90423E8E7039B1A1D03921B681F
:10111400049300230593E0E79DF810300493002323
:101124000593DEE608290BD0039B073323F007035E
:1011340003F108020392D3E90023CDE90423D0E6A6
:10114400039B073323F0070303F108020392D3E957
:101154000023CDE90423C4E6039B1A1D03921B68F4
:101164000493BEE6029F3B464A462946304607F0B2
:101174007BFD0028C0F225810444B94662E6294675
:101184002520B0470028C0F21C810134D8460DF157
:101194003E0A4FF000097FE0DDF81090BAF1000F2D
:1011A40007DB5146484608F0B5FA09EB000AD84671
:1011B40072E0484608F0A5FAF7E7049B8DF828305A
:1011C400D8460DF1290A0DF1280965E018F0080F39
:1011D40005D118F0100804D04FF0200801E04FF0BA
:1011E4002B08049A059B002B02DB0492059308E06C
:1011F400524263EB4303049205934FF02D0800E041
:10120400D8460DF13E0300930AAB06AADDE90401BA
:1012140007F0BBFC8146BAF1000F6CDB0DF13E0315
:10122400A3EB09039DF818206FF386128DF818209C
:101234009A4563D9AAEB030307930DF13E0A2BE009
:10124400049828B9D846DFF880A1AAF1050923E05B
:101254000DF13E0300930AAB06AA002107F095FCAA
:1012640081469DF81A3043F010038DF81A30782324
:101274008DF81B30D846CEE72246049906A807F01D
:10128400D4FCD8460DF13E0A4FF0000904E0D846DC
:101294000DF13E0A4FF00009B9F1000F00F08D8006
:1012A400AAEB0903B8F1000F00D001339DF81A200E
:1012B40012F0100F25D0023307990B4412F0400F9F
:1012C40001D0089A1344002F31DDFF1A9DF818301D
:1012D40013F0040F2BD113F0400F17D0B8F1000F07
:1012E40017D029464046B04700286ADB0134D84667
:1012F4004FF0300B0FE00DF13E0ACDE70DF13E0A41
:10130400CAE712F0080FD7D00133D5E74FF0200B0E
:1013140001E04FF0300B3B465F1E002B07DD2946F2
:101324005846B04700284CDB01343B46F4E7B8F19B
:10133400000F05D029464046B047002841DB013460
:101344009DF81A30C3F30012C3F3C0031A4305D047
:1013540029463020B047002833DB01349DF81A3089
:1013640013F0100F06D029469DF81B00B047002843
:1013740027DB0134079B03F1FF38002B07DD2946E7
:101384003020B04700281CDB01344346F3E75346C2
:101394004A462946304607F067FC002811DB04441E
:1013A400002F07DD29462020B047002809DB01343F
:1013B400013FF5E7DDF8089044E5DDF8089041E5E4
:1013C400204611B0BDE8F08FA1B1010068B108B5A5
:1013D400064A074B1B680749A1FB03139B0C00FB40
:1013E40003F042F00103984708BD704750B0010074
:1013F400A480002083DE1B4300B583B00246084B63
:101404000093082301930749684607F0FAFE002871
:1014140003DB0121684607F003FF03B05DF804FB1A
:10142400C8AC01005392010010B5C4B20123A3401B
:10143400054AC2F80835C0F3072003F04DFF2046E3
:1014440004F032FD10BD00BF0070014038B5044601
:101454000D46C0F3072003F0EFFDC4F307439B00E0
:10146400DBB23DB1E4B2064A44F00044D450C0F8C3
:10147400804038BD0021C0F88010014AD150F8E7FF
:1014840080A0024070B505460E46040EA40004F583
:101494008074C0F3072008F06FFF46B1EDB245F049
:1014A4000045C0F88050A4B2044B1D5170BD002209
:1014B400C0F88020A4B2014B1A51F7E780A0024083
:1014C40070B582B00446C0F30726304603F0BCFD75
:1014D400054600212046FFF7D5FF01212046FFF7EE
:1014E400B5FF05F132020194044B0093520000232E
:1014F400304608F065FF02B070BD00BF3F920100A6
:10150400F0B583B000AF381D04F0C6FC314B9842EF
:101514003BD06FF012046D4688B06B4613F1100295
:1015240052D00C213AB10846042901DD2A4E5E61ED
:10153400082800DD9C610B2949DD4FF00C0C3AB101
:101544000321397000217970B970F9703868186115
:1015540000216FF300016FF341016FF382016FF318
:10156400C501012363F388110CF47B7C6CF35221D5
:101574006FF3DE416FF3DF710023184807F0F1FECB
:10158400AD4620460C37BD46F0BD03F07DFE041E7B
:1015940016DB7C710723BB710823FB717868FFF7A6
:1015A4002BFF041EB7DB3B79012101FA03F30C4A3C
:1015B400C2F804357868FFF765FF002CE1D0AAE78C
:1015C400387904F071FCF8E76FF00041AAE76FF096
:1015D4001B0CB4E70000AD0BA8B10100D8AF0100AB
:1015E4000070014008F02ABF38B505460B4C00E0F6
:1015F40010340B4B9C420FD263685B79002BF7D0FD
:101604002946204607F044FE0028F1D023681B68D1
:10161400294620469847EBE738BD00BFF0AF0100EC
:1016240000B0010070B506460D46084C04E02A4699
:101634003146204698471034054B9C4204D2236817
:101644009B69002BF3D1F6E770BD00BFF0AF01003A
:1016540000B001002DE9F041074605460AE007EA1B
:101664000807144B03EB06135B6804221968204631
:1016740000F08CFAD5B195FAA5F6B6FA86F60D4CBB
:1016840004EB06140123B3406FEA030825EA0305BB
:10169400237B002BEED03301064AD3581B69002B61
:1016A400DDD0204698470028E4D1D8E73846BDE885
:1016B400F08100BFF0AF01002DE9F04180460F46F4
:1016C4001E4BD3E8EF5F6A1CC3E8E12F0029F8D171
:1016D400002D2FD11A4C002607E0636804221968F4
:1016E400204600F053FA01361034164B9C4213D2B4
:1016F400237B002BF8D02368DB680BB12046984786
:1017040023681B69002BE8D0204698470028E4D0C2
:101714000123B3401D43E6E7B8F1000F0BD055B1E8
:101724002846FFF797FF0546002FF8D00A2007F058
:10173400B5FDF4E700252846BDE8F081B488002013
:10174400F0AF010000B0010008B5064B186018B1F5
:10175400054B1B68092B00DC08BD044805F074FF29
:10176400FAE700BFA8880020B088002090810020FC
:1017740008B5024805F068FF08BD00BF908100204D
:1017840030B589B000220F490F4809F002FA0F4D15
:1017940000220023CDE90623002404940E2303939E
:1017A4000294019400940A4B4FF44072094928466C
:1017B40008F0DAFF0849284605F098FD204609B0EC
:1017C40030BD00BF7517010060860020A081002095
:1017D400F11A0100408D0020DCB10100014B53F8E7
:1017E40020007047F8B1010048B108B5054A1060FF
:1017F400054B1960084600F0EBFB002008BD6FF0B4
:101804001500704704800020A488002008B5054B0B
:101814001B781BB1034B01221A7008BD024805F066
:1018240013FFF7E7348D002090810020094BD3E8A3
:10183400EF1F0131C3E8E21F002AF8D100B9704755
:10184400054BD3E8EF1F0139C3E8E21F002AF6D0A5
:10185400F7E700BFAC880020B0880020044B0020CC
:101864000146D3E8EF0FC3E8E21F002AF9D170471D
:10187400AC88002038B5FFF7F1FF0546094C00E0BD
:101884001034094B9C420BD263685B79002BF7D070
:1018940023685B68002BF3D0294620469847EFE77E
:1018A40038BD00BFF0AF010000B00100034B186861
:1018B4000028D4BF00200120704700BFAC8800205E
:1018C40010B5044C0449204607F0D5FA034B1C60BC
:1018D40010BD00BF40810020E4B10100A0880020B9
:1018E40008B50023054A1370054A13604FF40041FC
:1018F4000448FFF779FFFFF7E3FF08BD358D0020AB
:10190400AC8800209992010008B50146014807F00F
:10191400DBFC08BD4081002008B5024807F083FBCA
:1019240008BD00BF4081002008B50146024B18687D
:1019340007F0D0FC08BD00BFA088002008B502480D
:1019440007F0CCFC08BD00BF4081002010B582B078
:1019540000220023CDE90023264B187808B902B0F1
:1019640010BD684607F0C3FC044668B1224BD3E8B7
:10197400EF1F0139C3E8E21F002AF8D12046FFF720
:1019840033FE2046FFF7D0FFFFF790FF58B91B4AFC
:101994001368516813F57A7341F1000113605160C3
:1019A400FFF7CCFFDBE709F0DEF84A0142EAD06238
:1019B40043011B1A62EB0102920042EA93729B00FC
:1019C4001B1842EB0102D20042EA5372C3F31033F4
:1019D40043EA4243D20B0948016840685B1A62EB50
:1019E400000240F2E9318B4272F10002CFD3FFF7DB
:1019F40041FFCCE7348D0020B088002058860020B9
:101A04000F4B1B7803B1704710B500210120FFF77D
:101A140053FE0C4C00E010340B4B9C4208D263681C
:101A24005B79002BF7D023689B6820469847F2E740
:101A3400FFF78CFF0028FBD1014B01221A7010BD67
:101A4400358D0020F0AF010000B0010010B582B068
:101A5400194BD3E8EF2F511CC3E8E01F0028F8D13D
:101A6400164B1B7863B9164B1B68BBB1C2B10A2A6B
:101A740014D1144809F099F8134805F0E5FD0DE078
:101A84004FF02003EFF3118483F31288BFF36F8FB9
:101A9400FFF75CFF84F31188BFF36F8F02B010BDB2
:101AA40000220023CDE900234FF40042002305481F
:101AB40006F014FCF2E700BFB0880020358D00204A
:101AC400A8880020608600209081002010B504467C
:101AD400044B1B689847A0602146034807F00BFCA1
:101AE40010BD00BF04800020408100202DE9F0419A
:101AF40000210846FFF7E0FD804640B140F26766EA
:101B0400002706F0D1F9FFF71FFE002515E04FF07E
:101B1400FF364FF0FF37F4E74046FFF79BFD804662
:101B240070B94FF0FF364FF0FF3709E02C463246CC
:101B34003B46094805F0ACFD2546B8F1000FEBD152
:101B4400FFF704FF04460028F6D1002DEED0002153
:101B54000846FFF767FDEAE7908100200248034B3F
:101B6400C01AC008704700BFF0AF010070AF010099
:101B740010B50C46FFF7F2FFA04203D9024B53F80D
:101B8400340010BD0020FCE770AF010008B5094B1C
:101B9400C31A1B110133D0F804C08CF80430436815
:101BA4009A7143681960436801225A71FFF72EFE47
:101BB40008BD00BFF0AF010000B589B005920693DF
:101BC4000023079362B1074A0C9B02930B9B01937A
:101BD4000A9B009305ABFEF777FD09B05DF804FBA3
:101BE4000022F1E70B9301000EB400B584B0014666
:101BF40005AB53F8042B0393002000900348FFF730
:101C040019F904B05DF804EB03B07047A394010024
:101C140030B585B011F0440F05D01A4B1C6834B9A7
:101C2400002005B030BD1849FFF7DEFFF9E7174B78
:101C34001968B2FBF1F1B1FBF4FC154AA2FB0C32BA
:101C4400D20A4FF4616E0EFB12CE124BA3FB0E535D
:101C54005B0904FB1C114FF47A7C0CFB01F1B1FB12
:101C6400F4F504FB15110CFB01F1B1FBF4F1029145
:101C74000195C3EB0311AEEB810100910649FFF717
:101C8400B3FFCEE7BC88002018B20100B88800205A
:101C9400C5B3A2918988888824B2010061B108B5CE
:101CA4002AB1064A52F8232012B9054A00E0044A30
:101CB4000449FFF799FF08BD704700BFC8B201008F
:101CC40040B2010048B201002DE9F04105469046BA
:101CD4001E46069F81B900242EB13246104928467B
:101CE400FFF782FF0444B7B1B8F1000F0DD0079B92
:101CF400042B13D00B4909E00B4B079A53F822200D
:101D04000A49FFF771FF0446E6E706493A462846C2
:101D1400FFF76AFF04442046BDE8F0810449F5E773
:101D240060B2010050B20100DCB2010058B20100FF
:101D34004CB201002DE9F04F85B005460C4616461D
:101D440003939DF8408001F0020B01F0010AC1F3F6
:101D5400C00907F0D6FAD8B1024612492846FFF75F
:101D640043FF0746BBF1000F14D1424651462846B3
:101D740007F055FBCDF804800F9B00930E9B324671
:101D840049462846FFF7A0FF384405B0BDE8F08F68
:101D94000027E7E7039A21462846FFF739FF07445F
:101DA400E3E700BF64B2010011F0100F0BD108B5D6
:101DB40011F0200F03D00449FFF716FF08BD0349B3
:101DC400FFF712FFFAE77047A8BE010068B20100EE
:101DD4002DE9F04105460F46164698460699FFF749
:101DE400E3FF0024444505DA23492846FFF7FCFEB7
:101DF4000134F7E7002409E01F492846FFF7F4FE01
:101E04000BE01E492846FFF7EFFE01340F2C0CDCD3
:101E1400002C02DD14F0070FEED0B442F1D23A5D8B
:101E240017492846FFF7E0FEEFE716492846FFF773
:101E3400DBFE002409E010492846FFF7D5FE0BE03D
:101E440011492846FFF7D0FE01340F2C12DC002C78
:101E540002DD14F0070FEED0B44206D23A5DA2F1CF
:101E640020035E2BECD92E22EAE703492846FFF72C
:101E7400BBFEE9E7BDE8F0815CB2010074B2010089
:101E84006CB2010078B201007CB201002DE9F0418E
:101E940084B004469DF828500B9F0D9E95B9012BE4
:101EA4001BD017484FF0000827B13B46224615497E
:101EB40006F0AEFAAEB9EDB9204607F0E3FA04B085
:101EC400BDE8F0810295019300920B4600220E9921
:101ED400FFF730FF80460C48E6E70B484FF0000858
:101EE400E2E70E9B0093434632460C99204607F0E6
:101EF400AEFAE0E72A460E99204607F09CFADBE7A3
:101F0400D394010013940100A39401002DE9F0413E
:101F140086B005460C461746D1F808800E88C6F3ED
:101F240082160878C0F3C2004B6833B1114A9B1A79
:101F340043F3CF01002918DA0023224652F8101B7C
:101F4400C1F349216088C0F3CB00541801B90022C1
:101F54000497039002940192009600224146284679
:101F6400FFF794FF06B0BDE8F081FFF701FE0346DA
:101F7400E3E700BF70AF010070B582B004460568A6
:101F840042F20F738B4228BF0B460E4A0521684666
:101F940006F0BDFA064663685B680B220A492846C8
:101FA40007F028FA63685B6832466946284607F0FA
:101FB40021FA63685B681B220449284607F01AFA71
:101FC40002B070BD84B101009CB2010080B2010076
:101FD400074B01221A6004E04008054A13685B00BD
:101FE4001360044B9842F7D8034B1860704700BF46
:101FF400B888002040420F00BC88002070B5064617
:102004000D46002405E0315D044883685B68984709
:102014000134AC42F7D3284670BD00BFB0AC010018
:10202400014B196000207047D888002008B5034B85
:1020340001221A70024807F025FA08BD368D0020E7
:102044002CB3010008B50248FFF796FF08BD00BF96
:102054002CB3010010B50C46044B1868FFF7BEFB07
:1020640003460F2221460248984710BDD888002015
:102074002CB3010070B505464FF02003EFF3118631
:1020840083F31288BFF36F8F0E4B1C680DE0A268B8
:102094003AB10D4B1B7D03EB43030C4911F82300AC
:1020A40090472346246804B123B12CB1002DEED00F
:1020B4006268EDE71C46F8E786F31188BFF36F8F7B
:1020C40070BD00BFF4880020F88C0020E888002050
:1020D40008B5064B23B14178007807F08CF808BDA9
:1020E400002383F31188BFF36F8FF8E7FB9101009E
:1020F40070B50E4B1C7D21460D4807F0F8F900B968
:1021040070BD650004EB44000A4E06EB8000FFF747
:10211400DFFF0020FFF7AEFF2B19990006EB8303C6
:10212400002272505A609A60EAE700BFF88C0020DF
:10213400FC880020E8880020F8B50546384B1C7D53
:102144004FF02003EFF3118683F31288BFF36F8FF0
:1021540004EB4402334B13F82230002B39D0324BBA
:1021640003EB820C2F4F4FEA820E07EB820393E8B6
:1021740007008CE80700002307F80E3086F3118867
:10218400BFF36F8F04EB4403274A12F82330002B6C
:1021940044D0B5F1FF3F2BD105F034FB0120FFF70C
:1021A40069FF2146214807F0BAF9214B5BB11E4A69
:1021B40004EB440302EB830304EB4404597812F860
:1021C400240007F010F8FFF793FF05F01DFD012030
:1021D400F8BD0146204600F031F80028CED004EBCB
:1021E4004401114B03EB810307C883E80700C5E7EB
:1021F40004EB44020C4B03EB82039868410CC003CC
:102204000C4BC0180C4A4FF0000341F10001FDF7DC
:102214009FFF0121281A08F077FCBDE70020D7E7CB
:10222400F88C0020DC880020E8880020FC8800204E
:10223400EB9101003F420F0040420F002DE9F041B5
:1022440082B00E4601A900F045F8441E24B207E00E
:10225400B6F1FF3F33D08044B04530D9013C24B2BD
:10226400002C2BDB019B04EB440203EB8205697811
:1022740013F8220007F062F90028EFD16868410CD6
:10228400C003114FC019114A4FF0000341F100017E
:10229400FDF75EFF8046AB68590CDB03D8190B4A87
:1022A4004FF0000341F10001FDF752FF084B1B689A
:1022B400B3F1FF3FCCD08342CAD8CFE700252846EC
:1022C40002B0BDE8F08100BF3F420F0040420F0062
:1022D4000880002008B9024B0B600020704700BF43
:1022E40040B30100014910220A60704710ED00E07C
:1022F40072B6404080F31188BFF36F8FBFF34F8FE6
:1023040030BF62B6BFF36F8F704700BF72B64940EB
:1023140081F3118820BF80F3118862B6704700BF33
:102324002DE9F04182B000AF0446D0F800E0D0F8C7
:1023340004C086686D468AB06B4613F1100200F043
:10234400F38014218AB10846042903DDDFF80882EA
:10235400C3F81480082801DDC3F818E00C2801DD57
:10236400C3F81CC0102800DD1E62132940F3DF806F
:102374004FF0140C3AB10521397100217971B9710A
:10238400F9717868186100216FF300016FF341015E
:102394006FF382016FF3C501012363F388110CF419
:1023A4007D7C6CF352216FF3DE416FF3DF71002308
:1023B4006A4806F0D6FFAD46D4F80CE0D4F810C055
:1023C40066696D468AB06B4613F1100200F0B28064
:1023D40014218AB10846042903DDDFF88481C3F897
:1023E4001480082801DDC3F818E00C2801DDC3F8C7
:1023F4001CC0102800DD1E62132940F39E804FF09C
:10240400140C3AB10521397100217971B971F9714E
:102414007868186100216FF300016FF341016FF3D5
:1024240082016FF3C501012363F388110CF47D7CF1
:102434006CF352216FF3DE416FF3DF7100234748E1
:1024440006F08FFFAD46E6696D4688B06B4613F122
:10245400100275D00C214AB10846042903DDDFF8C7
:1024640004C1C3F814C0082800DD9E610B296ADD8D
:102474004FF00C0C3AB10321397100217971B97113
:10248400F9717868186100216FF300016FF341015D
:102494006FF382016FF3C501012363F388110CF418
:1024A4007B7C6CF352216FF3DE416FF3DF71002309
:1024B4002A4806F056FFAD46A46988B06B4613F16E
:1024C400100243D00C213AB10846042901DD264DFF
:1024D4005D61082800DD9C610B293ADD0C243AB1CA
:1024E4000321397100217971B971F9717868186122
:1024F40000216FF300016FF341016FF382016FF369
:10250400C501012363F3881104F47B7464F352213D
:102514006FF3DE416FF3DF710023104806F021FFF3
:102524000837BD46BDE8F0816FF000410AE76FF05F
:102534001B0C1FE76FF000414BE76FF01B0C60E7CB
:102544006FF0004187E76FF01B0C93E76FF00041D9
:10255400B9E76FF01B04C2E740B30100B8AF010054
:1025640070B30100A0B30100B0B30100002807DB81
:1025740000F01F02400901239340024A42F8203030
:10258400704700BF00E100E000280CDB00F01F02F0
:102594004009012393402030034A42F82030BFF31E
:1025A4004F8FBFF36F8F704700E100E0002808DB16
:1025B4004901C9B200F1604000F5614080F80013A0
:1025C400704700F00F004901C9B2014B195470471C
:1025D40014ED00E04209054B53F8222000F01F00DF
:1025E400012303FA00F01040704700BF00E100E04F
:1025F40030BFFFF7FDBF00BF08B50B4B0B4A22F0FD
:102604007F029A60BFF34F8FBFF36F8FD3F8882098
:1026140022F47002C3F8882004F0A4FD05F082FCC3
:1026240000F0D0FF04F0FAFD00ED00E0000001002E
:102634000A4A9368C3F8A80009490968C3F8AC10AA
:1026440008494B6843F080534B60002383F311889F
:10265400BFF36F8F9368D3F8AC007047F88C0020F9
:1026640088BD010000ED00E016498A6882F8B1E0F7
:102674004FF030001044EFF3098C80E8F01F202065
:1026840080F31288BFF36F8F0F4F4FF00066CA6953
:102694008A603E6092F9B1E0D2F8A8000023C2F843
:1026A400A83080F3118802F1300090E8F01F8CF319
:1026B400098802F1000004B506F070FFBDE804408B
:1026C40070470000F88C002004ED00E01EF0040FB9
:1026D4000CBFEFF30880EFF30980816911F8021C45
:1026E4000229FFD001B506F037FF01BD10B4A2F1F5
:1026F4002004104942F8081C21F0010142F8081C8A
:1027040042F8203C019B42F81C3C029B42F8183CD6
:10271400039B42F8143C4FF0807342F8043C046578
:102724000023C0F8A830C0F8B030BC2380F8B13022
:1027340010BC70472F850100094B9860D0F8983081
:1027440083F30B88104681F30988002163B681F373
:102754001188BFF36F8F0022002305F0E6FE00BF4F
:10276400F88C002001B572B60B4A906900281EBF90
:102774000021916108F01AF862B6EFF30580A0F128
:1027840010004FEAC0000549014409C99847BDE853
:102794000140034908470000F88C002010AD0100F7
:1027A400A9270100044B9968D869884203D00349DA
:1027B4004FF080520A607047F88C002004ED00E06E
:1027C40081690D4B5A6942F480725A61BFF34F8F8D
:1027D400BFF36F8F31F8021C5A6922F480725A6178
:1027E400BFF34F8FBFF36F8F4DF60273994201D041
:1027F400002070470120704700ED00E0F0B589B07B
:102804001D4600232B7002F07F43B3F17F4F42D16A
:1028140006460F46144612F0010F3FD112F0400F46
:1028240007D100200346BBBB14F0080F2FD0384655
:1028340032E01B4B079302238DF8043000238DF8FC
:1028440005308DF806308DF80730019A0692194646
:1028540063F3000163F3410163F3820163F3C50190
:10286400012262F38811082262F3522163F3DE41EC
:1028740063F3DF7106AA0B4806F073FD14F0040F2E
:1028840002D038460123CEE730460123CBE7304659
:1028940001232B7000E0002009B0F0BD0020FBE70D
:1028A400E0B30100B8AF01002DE9F041A6B000AFDC
:1028B40005460E461446AF4BFB6102233B710023D1
:1028C4007B71BB71FB717A68BA61194663F30001CD
:1028D40063F3410163F3820163F3C501012262F3EF
:1028E4008811082262F3522163F3DE4163F3DF713E
:1028F40007F11802A04806F034FDA04B9B6A13F0C0
:10290400100F35D19D4B9B6A13F0080F53D19B4B8D
:102914009B6A13F0020F71D1984B9B6A13F0010F5D
:1029240040F0E080954B9B6A13F0200F40F0FD804F
:10293400924B9B6A13F0100F01D1904B9B6A8F4B03
:102944009B6A13F0200F04D08C4A536A23F400537B
:1029540053628A4A936A43F0FF0393620121284633
:1029640006F021FE207000209837BD46BDE8F081B6
:10297400834B7B6302233B7100237B71BB71FB712F
:102984007A683A63194663F3000163F3410163F320
:10299400820163F3C501012262F38811082262F304
:1029A400522163F3DE4163F3DF7107F130027248B1
:1029B40006F0D7FCA6E7734BFB6402233B710023AC
:1029C4007B71BB71FB717A68BA64194663F30001C9
:1029D40063F3410163F3820163F3C501012262F3EE
:1029E4008811082262F3522163F3DE4163F3DF713D
:1029F40007F14802604806F0B4FC88E7624B7B6646
:102A040002233B7100237B71BB71FB717A683A66C8
:102A1400194663F3000163F3410163F3820163F335
:102A2400C501012262F38811082262F3522163F383
:102A3400DE4163F3DF7107F160024F4806F091FC59
:102A44004E4B586B9B6A13F0800F3FF465AFE8461A
:102A540088B06B4613F1100211D00C2152B18C4690
:102A6400042903DDDFF824E1C3F814E0BCF1080F06
:102A740008DD98610B2932DD4FF00C0C04E06FF097
:102A84000041EBE76FF01B0C3AB1032139710021CF
:102A94007971B971F9717868186100216FF30001D7
:102AA4006FF341016FF382016FF3C501012363F3F7
:102AB40088110CF47B7363F352216FF3DE416FF3DF
:102AC400DF7100232C4806F04CFCC546002E3FF471
:102AD40023AF2A4A936A23F0800393621CE76FF0C2
:102AE4001B0CD1E72A4BFB6702233B7100237B714C
:102AF400BB71FB717A68BA67194663F3000163F32B
:102B0400410163F3820163F3C501012262F3881179
:102B1400082262F3522163F3DE4163F3DF7107F1AC
:102B24007802154806F01DFCFCE61A4BC7F89430F1
:102B340002233B7100237B71BB71FB717A68C7F878
:102B44009020194663F3000163F3410163F38201AA
:102B540063F3C501012262F38811082262F3522152
:102B640063F3DE4163F3DF7107F19002024806F07C
:102B7400F8FBDDE604B40100B8AF010000ED00E0AD
:102B84001CB4010050B4010064B401007CB4010021
:102B940094B40100B4B401002DE9F041ACB000AF2D
:102BA40005460E461446BC4BFB6102233B710023D1
:102BB4007B71BB71FB717A68BA61194663F30001DA
:102BC40063F3410163F3820163F3C501012262F3FC
:102BD4008811082262F3522163F3DE4163F3DF714B
:102BE40007F11802AD4806F0BCFBAD4B9B6A13F429
:102BF400805F2AD1AA4B9B6A13F4006F48D1A84B7B
:102C04009B6A13F4007F66D1A54B9B6A13F4806F13
:102C140040F0D580A24B9B6A13F4807F40F0F28091
:102C24009F4B9B6A13F4005F40F011819C4A936AA6
:102C340043F47F4393620121284606F0B4FC2070DC
:102C44000020B037BD46BDE8F081964B7B6302237C
:102C54003B7100237B71BB71FB717A683A6319463F
:102C640063F3000163F3410163F3820163F3C5017C
:102C7400012262F38811082262F3522163F3DE41D8
:102C840063F3DF7107F13002844806F06AFBB1E7B1
:102C9400854BFB6402233B7100237B71BB71FB7189
:102CA4007A68BA64194663F3000163F3410163F37C
:102CB400820163F3C501012262F38811082262F3E1
:102CC400522163F3DE4163F3DF7107F14802734875
:102CD40006F047FB93E7754B7B6602233B710023A9
:102CE4007B71BB71FB717A683A66194663F3000124
:102CF40063F3410163F3820163F3C501012262F3CB
:102D04008811082262F3522163F3DE4163F3DF7119
:102D140007F16002614806F024FB614B986B9B6AE3
:102D240013F4004F3FF470AFE84688B06B4613F1DC
:102D3400100211D00C2152B18C46042903DDDFF8B6
:102D440070E1C3F814E0BCF1080F08DD98610B29A9
:102D540032DD4FF00C0C04E06FF00041EBE76FF054
:102D64001B0C3AB10321397100217971B971F971E0
:102D74007868186100216FF300016FF341016FF36C
:102D840082016FF3C501012363F388110CF47B7393
:102D940063F352216FF3DE416FF3DF7100233F4889
:102DA40006F0DFFAC546002E3FF42EAF3C4A936A84
:102DB40023F40043936227E76FF01B0CD1E73D4BEC
:102DC400FB6702233B7100237B71BB71FB717A6843
:102DD400BA67194663F3000163F3410163F38201A7
:102DE40063F3C501012262F38811082262F35221C0
:102DF40063F3DE4163F3DF7107F17802274806F0DD
:102E0400B0FA07E72C4BC7F8AC3002233B71002320
:102E14007B71BB71FB717A68C7F8A820194663F30C
:102E2400000163F3410163F3820163F3C5010122ED
:102E340062F38811082262F3522163F3DE4163F3E3
:102E4400DF7107F1A802154806F08BFAEEE61B4B7A
:102E5400C7F8943002233B7100237B71BB71FB7173
:102E64007A68C7F89020194663F3000163F34101BF
:102E740063F3820163F3C501012262F3881108221E
:102E840062F3522163F3DE4163F3DF7107F19002D1
:102E9400024806F066FAC9E6E4B40100B8AF0100DE
:102EA40000ED00E0FCB4010050B4010010B50100D5
:102EB4002CB5010044B5010060B50100B4B40100B3
:102EC40010B5B2B0AF4B079302238DF80430002342
:102ED4008DF805308DF806308DF80730019A06928A
:102EE400194663F3000163F3410163F3820163F361
:102EF400C501012262F38811082262F3522163F3AF
:102F0400DE4163F3DF7106AA9F4806F02AFA9F4B5D
:102F14009B6A13F0007F2BD19C4B9B6A13F0807F3C
:102F24004CD19A4B9C6A14F480146DD1974B9B6AD4
:102F340013F4002F40F08E80944B9B6A13F4802F7F
:102F440040F0AE80914B9B6A13F4003F40F0CE807A
:102F54008E4B9B6A13F4803F40F0EE808B4A936A59
:102F64006FEA03436FEA13439362204632B010BD05
:102F7400874B0D9302238DF8043000238DF8053020
:102F84008DF806308DF80730019A0C92194663F3D8
:102F9400000163F3410163F3820163F3C50101227C
:102FA40062F38811082262F3522163F3DE4163F372
:102FB400DF710CAA744806F0D4F9ADE7754B13938E
:102FC40002238DF8043000238DF805308DF8063087
:102FD4008DF80730019A1292194663F3000163F3E6
:102FE400410163F3820163F3C501012262F3881195
:102FF400082262F3522163F3DE4163F3DF7112AA04
:10300400614806F0AEF98CE7634B199302248DF8FE
:10301400044000238DF805308DF806308DF8073014
:10302400019A1892194663F3000163F3410163F3B3
:10303400820163F3C501012262F38811082262F35D
:10304400522163F3DE4163F3DF7118AA4E4806F0A0
:1030540088F96BE7514B1F9302238DF8043000234A
:103064008DF805308DF806308DF80730019A1E92E0
:10307400194663F3000163F3410163F3820163F3CF
:10308400C501012262F38811082262F3522163F31D
:10309400DE4163F3DF711EAA3B4806F062F94BE799
:1030A4003F4B259302238DF8043000238DF805301F
:1030B4008DF806308DF80730019A2492194663F38F
:1030C400000163F3410163F3820163F3C50101224B
:1030D40062F38811082262F3522163F3DE4163F341
:1030E400DF7124AA284806F03CF92BE72D4B2B93DB
:1030F40002238DF8043000238DF805308DF8063056
:103104008DF80730019A2A92194663F3000163F39C
:10311400410163F3820163F3C501012262F3881163
:10312400082262F3522163F3DE4163F3DF712AAABA
:10313400154806F016F90BE71B4B319302238DF863
:10314400043000238DF805308DF806308DF80730F3
:10315400019A3092194663F3000163F3410163F36A
:10316400820163F3C501012262F38811082262F32C
:10317400522163F3DE4163F3DF7130AA024806F0A3
:10318400F0F8EBE678B50100B8AF010000ED00E01F
:1031940090B50100A4B50100C0B50100ECB5010073
:1031A4000CB6010034B6010050B60100F0B59BB076
:1031B40000AF06460D46854BFB6102233B7100249C
:1031C4007C71BC71FC717B68BB61214664F30001B6
:1031D40064F3410164F3820164F3C501012363F3E1
:1031E4008811082363F3522164F3DE4164F3DF7131
:1031F400234607F11802764806F0B3F82C70754B95
:10320400DC6A14F002040CD1724BDB6A002B2CDB59
:10321400704BDC6A14F080444AD120466C37BD46BA
:10322400F0BD6D4B7B6602233B7100247C71BC7145
:10323400FC717B683B66214664F3000164F3410141
:1032440064F3820164F3C501012363F38811082345
:1032540063F3522164F3DE4164F3DF71234607F123
:1032640060025B4806F07DF8D7E75C4BFB64022301
:103274003B7100237B71BB71FB717A68BA64194698
:1032840063F3000163F3410163F3820163F3C50156
:10329400012262F38811082262F3522163F3DE41B2
:1032A40063F3DF7107F14802494806F05AF8B4E7BE
:1032B4004B4B7B6302233B7100237B71BB71FB711E
:1032C4007A683A63194663F3000163F3410163F3D7
:1032D400820163F3C501012262F38811082262F3BB
:1032E400522163F3DE4163F3DF7107F130023848A2
:1032F40006F037F83046FFF763FA002842D0346806
:103304006D4688B06B4613F110020FD00C214AB100
:103314000846042903DDDFF8CCC0C3F814C008282C
:1033240007DD9C610B292ADD0C2404E06FF00041C9
:10333400EDE76FF01B043AB1032139710021797173
:10334400B971F9717868186100216FF300016FF3A6
:1033540041016FF382016FF3C501012363F3881107
:1033640004F47B7363F352216FF3DE416FF3DF7177
:103374000023174805F0F5FFAD4634684DE76FF0BC
:103384001B04D8E7134B9B6A13F0FF0F0FD1114BAB
:103394009C6A14F47F4411D10E4B9B6AB3F5803FB1
:1033A400FFF43BAF3046FFF78BFD044635E72A4672
:1033B40001213046FFF778FA04462EE72A46012118
:1033C4003046FFF7E9FB044627E700BF7CB601005F
:1033D400B8AF010000ED00E094B60100B8B60100FA
:1033E400C8B60100E8B6010000B589B000230B702F
:1033F400134A079202228DF804208DF805308DF8C7
:1034040006308DF80730019A0692194663F30001DD
:1034140063F3410163F3820163F3C501012262F3A3
:103424008811082262F3522163F3DE4163F3DF71F2
:1034340006AA044805F095FF09B05DF804FB00BF37
:1034440004B70100B8AF010090B583B000AF0F29F5
:1034540023DC304C103900233B7102237B718AB08A
:10346400EC461CF110021AD0122022B1042802DD0D
:10347400294BCCF8143000233B7002237B70E2B15B
:103484000346082801DDCCF818400C2B01DDCCF8EC
:103494001C100CF1200300210DE0204CDAE76FF042
:1034A4000040E2E701F1080404EB070E1EF808EC03
:1034B40003F801EB01310129F4D9112826DD122387
:1034C4004AB10421397100217971B9710121F9716D
:1034D4007868CCF8100000216FF300016FF341010C
:1034E4006FF382016FF3C501012060F38811C3F308
:1034F400090363F352216FF3DE416FF3DF7100239D
:10350400074805F02EFF0C37BD4690BD6FF01B0336
:10351400D6E700BF28B701005CB7010040B701003F
:10352400B8AF010030B58BB01A4B5C68C4F3080423
:10353400002383F31188BFF36F8F0DF12603FFF788
:103544005DF905460DF12702214606F02EF89DF897
:1035540027300BB10BB030BD04462022294601A808
:1035640006F0E2F89DF826304BB1089BC3F308023D
:103574005AB96FEA53236FEA4323089305E0089B83
:1035840023F4FF7323F00103089301A9204605F0F7
:10359400D7FFDFE700ED00E0044B5A6942F0100268
:1035A4005A615A6942F480625A61704700ED00E042
:1035B400EFF30880EFF3098101B57246FFF7B2FF1C
:1035C40001BD00BF002207E003F1604303F561433E
:1035D400202183F800130132442A09DC53B2002B62
:1035E400F2DA03F00F030349194420230B76F2E7C0
:1035F400704700BFFCEC00E0002015490870002073
:1036040080F31488BFF36F8F002080F30A8880F35F
:103614000B88FDF7E7FF00200E490860BFF34F8FCA
:103624000D4880F3088800F041F8202080F31188C9
:103634000A484FF40061401880F30988EFF31480BE
:103644000221084380F31488BFF36F8FFEF7D4FF81
:103654003A8D002094ED00E0809D002040900020F1
:10366400BFF34F8F0549CA6802F4E062044B134369
:10367400CB60BFF34F8F00BFFDE700BF00ED00E05C
:103684000400FA05084BD3F89000C0F30720002388
:1036940006E0054AC2F898300021C2F8A0100133B0
:1036A4008342F6DB704700BF00ED00E010B572B650
:1036B400002484F31388FFF7E5FF234608E003F1B1
:1036C40020010E4A4FF0FF3042F821000133DBB2F3
:1036D4000F2BF4D9002308E003F16001074A4FF0EF
:1036E400FF3042F821000133DBB20F2BF4D962B66C
:1036F400BFF34F8FBFF36F8F10BD00BF00E100E039
:1037040008B50A4B9B68834202D004F0D3FB08BD82
:10371400EFF30583002BF8D0054B5A6842F0805232
:103724005A605A6A22F400425A62EEE7F88C00208A
:1037340000ED00E010B584B00A4C23460A4A01218A
:103744000A4805F0BCFF0023019302930393084B3E
:103754000193E41A0294012101A805F0B4FF04B016
:1037640010BD00BF000008200080002070B70100D9
:10377400A0810020024B034AC3F8C020704700BF59
:1037840000ED00E0AAFF4400034BC3F89800C3F81F
:103794009C10C3F8A020704700ED00E00E4BC3F866
:1037A4009800C3F89800D3F89C000A7A60F30402E6
:1037B4000A72D3F8A020C2F34202087A62F34710D7
:1037C4000872D3F89C2022F01F020A60D3F8A030BC
:1037D40023F01F03CB60704700ED00E070B5054691
:1037E4000E46002400E00134A6421EDD04EB44032F
:1037F4009A0005EB830359680029F4D0A85805F012
:103804002EFF04EB84030B4A42F8230010F1160F39
:103814000CD0094B1B78984209DA04EB840302EBC1
:1038240083010431FFF7BAFFDDE7002070BD6FF0BC
:103834001500FBE700890020378D0020F0B583B028
:1038440000AF0446072805D805F0E3FE20460C37F0
:10385400BD46F0BD6D4688B06B4613F1100231D001
:103864000C213AB10846042901DD194E5E6108288D
:1038740000DD9C610B2928DD0C243AB10321397148
:1038840000217971B971F9717868186100216FF3B9
:1038940000016FF341016FF382016FF3C50101234E
:1038A40063F3881104F47B7464F352216FF3DE41F3
:1038B4006FF3DF710023074805F053FDAD466FF049
:1038C4001500C4E76FF00041CBE76FF01B04D4E7A9
:1038D40080B70100B0AF01002DE9F04F89B000AF0F
:1038E4008246B9607B6014464FF00008B5E06D462F
:1038F40088B06B4613F1100232D00C2142B1084655
:10390400042901DD944C5C61082801DDC3F81880AA
:103914000B2928DD0C243AB1032139740021797470
:10392400B974F9743869186100216FF300016FF3F9
:1039340041016FF382016FF3C501012363F3881121
:1039440004F47B7464F352216FF3DE416FF3DF718F
:103954000023824805F005FDAD466FF015043CE0F8
:103964006FF00041CAE76FF01B04D4E76D4688B0DE
:103974006B4613F1100235D00C213AB108460429E4
:1039840001DD774C5C61082800DD9E610B292CDD8C
:103994000C243AB10321397400217974B974F9748F
:1039A4003869186100216FF300016FF341016FF36F
:1039B40082016FF3C501012363F3881104F47B735F
:1039C40063F352216FF3DE416FF3DF710023634829
:1039D40005F0C7FCAD466FF0150420462437BD46FC
:1039E400BDE8F08F6FF00041C7E76FF01B04D0E72C
:1039F400814568D12946F0B205F042FE2BE0594AD0
:103A0400C2F89860D2F89C3003F01F0321F01F0124
:103A14000B43C2F89C302946E0B205F031FE04465F
:103A240010F1160FD9D0013415E0013B4D49C1F80E
:103A34009860D1F8A02002F01F0223F01F03134363
:103A4400C1F8A0302946E0B205F01AFE044610F190
:103A5400160FC2D0013408F10108BB689845BCDADE
:103A640008EB48054FEA850B0AEB85056E68002EC6
:103A7400F1D07B682BB1284605F0DFFD00283FF428
:103A840036AF31465AF80B0005F0E9FD064610F151
:103A9400160F3FF46BAF84427FF768AF314BC3F826
:103AA4009800D3F89C2022F01F02C3F89800D3F8A2
:103AB400A03043F01F095AF80B3069681944481EB6
:103AC400F860934294D0934299D0FA689145ACD06F
:103AD400013B2449C1F89860D1F8A02002F01F02EC
:103AE40023F01F031343C1F8A0302946E0B205F0C8
:103AF400C7FD044610F1160F3FF46FAF0130194BA8
:103B0400C3F89860D3F89C103A7E61F304023A76C5
:103B1400D3F8A030C3F34203D2B263F347123A7628
:103B24005AF80B306A6813443B6123F01F03FA68A8
:103B3400A9EB02094B44013B23F01F03FB6107F18E
:103B44001001C0B2FFF77AFE044610F1160F3FF4DD
:103B540044AF01347FE700BFA8B70100B0AF010054
:103B6400CCB7010000ED00E010B5034C012322782E
:103B7400FFF7B2FE207010BD378D0020044B0522E4
:103B8400C3F89420BFF34F8FBFF36F8F704700BF0C
:103B940000ED00E0BFF35F8F024B0022C3F89420D6
:103BA400704700BF00ED00E038B50E4B1D68082DCE
:103BB40015D8FFF7EFFFFFF7DDFD002407E0094B01
:103BC400596801EB0411204605F023FD0134A54298
:103BD400F5D8054B1D70FFF7D1FF002038BD4FF01D
:103BE400FF30FBE7F0B70100378D0020014B186070
:103BF400704700BF0C80002000487047A089002057
:103C0400034BC01A8010034B03FB00F0704700BF46
:103C140028890020B76DDBB638B505460C46FFF79A
:103C2400EFFF01464022034805F07FFE0146284687
:103C3400A04738BD50AC010030B583B005460C46F2
:103C4400FFF7DEFF0146402300932346054A06485A
:103C540005F085FE011E01DB03B030BD2846A047F8
:103C6400FAE700BFAB99010050AC010008B5052884
:103C740015D8DFE800F0031A1414151000210D48BC
:103C840005F0DCFD836813F0070F08D10021094813
:103C940005F039FE03E00221064805F034FE08BDB4
:103CA4000321044805F02FFEF9E70121014805F03E
:103CB4002AFEF4E750AC010010B582B04FF02003A7
:103CC400EFF3118483F31288BFF36F8F144A1368E0
:103CD40043F00201116013F0010F09D1002384F3B2
:103CE4001188BFF36F8FABB905F065FE02B010BD4C
:103CF4000DF1070201210B4805F066FD9DF8073020
:103D0400012B01D00023EAE7FFF776FF05F0E8FD79
:103D14000123E4E70021044805F0F5FDE6E700BFD0
:103D2400C88900200050004050AC010008B5084B81
:103D3400D3E8EF2F22F00201C3E8E01F0028F7D1F7
:103D440012F0010F00D008BD05F049FEFBE700BFEB
:103D5400C889002070B582B00546012806D12E4BD3
:103D6400D3F81C3403F00303022B34D006F0E5FC33
:103D7400044610B9294B1B7873B94FF02003EFF3B5
:103D8400118683F31288BFF36F8F012484B9224B09
:103D94000222C3F808230BE00026F7E7ECB1304613
:103DA400FEF7B4FA1C4BD3F81835DBB2012B18D04C
:103DB4000DF107020021184805F006FD0028EDD09A
:103DC4009DF80730022B01D0012DE7D1F4B186F321
:103DD4001188BFF36F8F02B070BD012005F013FE90
:103DE400E0E70D4BD3F80431002BE1D00A4B00225D
:103DF400C3F80421D3F804210222C3F81825084A81
:103E04002021C2F8801101229A60D1E7024B0222DC
:103E1400C3F80423DFE700BF005000403A8D0020C0
:103E240000E100E000B585B0CDF800D0CDF804D0B5
:103E340000230293012303936B46074A05F0ABFD6D
:103E4400002805DB4FF480420023684603F020FC81
:103E540005B05DF804FB00BF379A010070B5064653
:103E640000220121052005F087FB114801F026FFFF
:103E7400104B984219D101F033FF0024032C12D8BF
:103E84002146304605F0DAFC05462146304605F069
:103E9400E2FC094904F034FC002805DB0123AB6093
:103EA4001C44E4B2EAE7002070BD6FF00400FBE7B5
:103EB400713C01000000AD0B28B8010010B50446A8
:103EC4000E4B0121D3E8EF2FC3E8E01F0028F9D1FE
:103ED4001AB1631E012B0DD910BD094805F0BBFCB6
:103EE400084900234B608B60CB6001238B6004F096
:103EF40024FCEEE72046FFF72DFFEDE724890020A0
:103F040050AC01001489002010B504460A2806D0DC
:103F1400E1B2064883685B689847204610BD0348B1
:103F240083685B680D219847F2E700BFB0AC0100DD
:103F340010B5044C2046FFF759FE2046FCF736FE28
:103F440010BD00BF0D3F010008B5054806F0D1FBC8
:103F540018B1FFF7EDFF002008BD6FF01200FBE77A
:103F6400B0AC010028B1012801D1034870470020FA
:103F740070470248704700BF68AC010080AC010084
:103F8400F0B585B00E46194643681B7B06F01F0545
:103F940045EA4315B2F5001F22D007461446002314
:103FA40001930293104605F01EFE8DF804007B6811
:103FB4009968F14011F0010F02D1B4F1A07F14D03F
:103FC400002301AA1946284602F0ECF91A4B98423C
:103FD4002FD10121284602F049FB002005B0F0BD95
:103FE400284602F075FB0020F8E705F01F036A0974
:103FF400012A12D0114A803352F8233013F0010FF2
:10400400DED10DF10F01284602F0D4FA0C4B984290
:1040140005D00DF10F030293D2E70A4AEBE70DF145
:104024000F0002F01BFB044B9842F2D06FF00B0020
:10403400D4E76FF01500D1E70000AD0B00258440F4
:104044000400AD0B002884402DE9F04186B00E46F3
:104054001446D0F8048098F80C3001F01F0545EAA6
:1040640043150DF11701284602F0A4FA074614F48B
:10407400403F39D00021039104910B4603AA2846FE
:1040840002F090F9324B98425FD19F423CD014F435
:10409400003F47D00DF10301204605F031FD0746EE
:1040A40048BB9DF803308DF8043014F4803F0CBFF6
:1040B400012300238DF80530204605F064FD8DF8BA
:1040C400060014F4002F24D0D8F804200123B340B0
:1040D4009360002201A9284602F0FAF91C4B984289
:1040E40009D06FF0150706E0284602F013FB184BC1
:1040F4009F4204D00027384606B0BDE8F0819DF801
:10410400170002F0A3FAF5E79DF8170002F09EFAF3
:10411400BDE714F4802FDCD0D8F804200123B34089
:10412400D360D6E7204605F02EFD8DF80800002365
:104134001A4602A9284602F035F9054B984201D1E6
:104144000027D8E76FF01507D5E76FF01507D2E71A
:104154000000AD0B08B502F06FFA08B1002008BDED
:1041640002F040FA084B98420AD10021074802F0B5
:104174001BFA002205212F2005F0FEF90020EEE7AE
:104184006FF00400EBE700BF0000AD0B239C0100BF
:1041940000B589B0144B079302238DF80430002333
:1041A4008DF805308DF806308DF80730019A0692A7
:1041B400194663F3000163F3410163F3820163F37E
:1041C400C501012262F38811082262F3522163F3CC
:1041D400DE4163F3DF7106AA044805F0C2F86FF00C
:1041E400850009B05DF804FB20B90100E8AF0100C7
:1041F4002DE9F04184B00E46154605F029FD04462C
:10420400007E677E226902926169039102AB00938A
:1042140001230193A37EDB004FF0000CA5FB033EBA
:10422400BEF1000F06D1BCF1000F06D199420CD2A9
:10423400002303E04FF0010CF5E700233BB14FF0FE
:104244000008A8453FD2002126E00123F6E76FF0DD
:104254000B0540E006EB880393F801E000230DE032
:1042640006EB880393F802E0F8E706EB880393F87B
:1042740003E0F3E7BC4602F803C00133072B08DC74
:10428400C3F1070C2EFA0CFC1CF0010FF2D084468B
:10429400F1E708320131C9B2A37E8B4210D9E36938
:1042A40013F801E0BEF1030F19D801A353F82EF05F
:1042B4006142010059420100654201006F42010060
:1042C40008F10108BDE76946204605F0B7FC05463C
:1042D400208C03F0B3FD284604B0BDE8F0816FF0F4
:1042E4001505F8E7B0B582B000AF054605F0B0FC9F
:1042F400044605F0AFFC08B1002391E02368196877
:104304006C4600233B7102237B7188B06B4613F12A
:10431400100211D00E251AB1042D01DD5548586143
:1043240000203870022078709AB1082D00DD996160
:1043340003F11C0100200AE06FF00045EBE700F1F7
:10434400080CBC441CF808CC01F801CB013001284E
:10435400F5D90D2D26DD0E2542B103213971002139
:104364007971B9710121F9717868186100216FF3CD
:1043740000016FF341016FF382016FF3C501012363
:1043840063F38811C5F3090565F352216FF3DE4128
:104394006FF3DF710023384804F0E3FFA5466FF0A4
:1043A400120063E06FF01B05D6E76FF000404AE0AF
:1043B40001F1080CBC441CF808CC03F801CB013112
:1043C4000129F5D90D2826DD0E2342B103213971C7
:1043D40000217971B9710121F97178682061002196
:1043E4006FF300016FF341016FF382016FF3C501B5
:1043F400012060F38811C3F3090363F352216FF3BF
:10440400DE416FF3DF7100231B4804F0AAFFAD46C1
:104414006FF015002AE06FF01B03D6E70133DBB21F
:10442400A27E934221D2E269D25C032AF6D929689A
:104434006D4600233B7102237B7188B06C4614F1F6
:104444001002B2D00E201AB1042801DD0B4B6361B7
:1044540000233B7002237B70002AB3D0082800DDC0
:10446400A16104F11C030021AAE700200837BD461E
:10447400B0BD00BF40B90100E8AF010058B9010068
:10448400194B984217D9194B984217D9184B98428F
:1044940017D9184B984217D9174B984217D9174B6D
:1044A400984217D3164B984217D3164B984217D2FB
:1044B4004FF0206070474FF0007070474FF08060FD
:1044C40070474FF0006070474FF0805070474FF0D6
:1044D400005070474FF0804070474FF000407047E5
:1044E4004FF0A050704700BF8FD003001FA10700FA
:1044F4003F420F007F841E00FF083D0000127A0037
:104504000024F4000048E8012DE9F043A1B000AF15
:104514000C4605694668D6F8089095F85D80B8F1B0
:10452400000F03D02B688B4200F09A81A38813F408
:10453400006F58D113F0010F7AD113F0080F40F037
:10454400CD80C3F34513082B40F0ED802268C54BA2
:104554009A4240F20D81C44B994507D9C34BD3F815
:10456400583513F0030F01D0DFF8FC9207F1080C63
:1045740006F10C0EBEE80F00ACE80F009EE8030045
:104584008CE803002068484528BF4846FFF778FFB9
:104594003861A38813F0020F00F00F8113F0040FA9
:1045A40000F0108103233B75A38813F0100F00F073
:1045B4000D8101237B75B8F1000F40F009812B4672
:1045C400AB4A07F10801304602F0DAFAA94B9842E7
:1045D40040F00581012385F85D302C60002084378C
:1045E400BD46BDE8F083A44BFB6702233B71002367
:1045F4007B71BB71FB717A68BA67194663F300017A
:1046040063F3410163F3820163F3C501012262F3A1
:104614008811082262F3522163F3DE4163F3DF71F0
:1046240007F17802954804F09CFE6FF08500D6E708
:1046340001686D4600233B7102237B7188B06C4690
:1046440014F1100211D00E201AB1042801DD8C4B94
:10465400636100233B7002237B709AB1082800DD5C
:10466400A16104F11C0300210AE06FF00040EBE7B4
:1046740001F180063E4416F8806C03F8016B0131A9
:104684000129F5D90D2826DD0E2342B10321397104
:1046940000217971B9710121F971786820610021D3
:1046A4006FF300016FF341016FF382016FF3C501F2
:1046B400012060F38811C3F3090363F352216FF3FC
:1046C400DE416FF3DF7100236C4804F04AFEAD460F
:1046D4006FF0150083E76FF01B03D6E7694B7B6629
:1046E40002233B7100237B71BB71FB717A683A66CC
:1046F400194663F3000163F3410163F3820163F339
:10470400C501012262F38811082262F3522163F386
:10471400DE4163F3DF7107F16002584804F021FEC3
:104724006FF015005BE7584BFB6402233B710023D9
:104734007B71BB71FB717A68BA64194663F300013B
:1047440063F3410163F3820163F3C501012262F360
:104754008811082262F3522163F3DE4163F3DF71AF
:1047640007F14802454804F0FCFD6FF0150036E7F8
:10477400464B7B6302233B7100237B71BB71FB714E
:104784007A683A63194663F3000163F3410163F302
:10479400820163F3C501012262F38811082262F3E6
:1047A400522163F3DE4163F3DF7107F130023348D2
:1047B40004F0D7FD6FF0150011E713F0040F03D0D8
:1047C4000123F0E60223EEE60023ECE60023F1E603
:1047D400304602F073FA002385F85D30EFE66D464B
:1047E40088B06B4613F110020DD00C213AB10C467F
:1047F400042901DD264E5E61082C07DD98610B2932
:104804002BDD0C2404E06FF00041EFE76FF01B0494
:104814003AB10321397100217971B971F97178685C
:10482400186100216FF300016FF341016FF38201FE
:104834006FF3C501012363F3881104F47B7363F3FD
:1048440052216FF3DE416FF3DF7100230B4804F054
:1048540088FDAD466FF00400C1E66FF01B04D7E796
:104864000020BCE647E801000024F40000500040AA
:10487400F94901000000AD0BECB90100D0AF010013
:1048840008BA01002CBA01004CBA01007CBA01003C
:10489400B0BA010030B589B00446036D826C93420E
:1048A40038BF13464FF4FA5202FB03F3054655F89A
:1048B400202B1268B3FBF2F3C833590CDB0340F22C
:1048C400E73298184FF47A724FF0000341F1000177
:1048D400FBF73EFC02460B46284602F0D9FE10B90F
:1048E400206B09B030BD144B079302238DF80430BC
:1048F40000238DF805308DF806308DF80730019AC5
:104904000692194663F3000163F3410163F38201E4
:1049140063F3C501012262F38811082262F3522174
:1049240063F3DE4163F3DF7106AA044804F019FD62
:104934006FF07300D5E700BFD8BA0100D0AF010013
:1049440070B584B004694668A36C002B43D0256D10
:10495400002D42D09D4228BF1D46002D45D0616CDC
:1049640069B163B101F06043B3F1005F07D0082D72
:1049740000D908252A46206E04F0D6FE216EB5F52E
:10498400803F01D34FF6FF75A5650091636C33B387
:10499400A36C33BB0193E36C029323B3236D03B97C
:1049A4001D46039500226946304602F0CFF9104BAC
:1049B40098420ED06FF0040500221146204605F0FF
:1049C400ECF9256304F1200002F03EFE002384F894
:1049D4005C3004B070BD256DBFE71D46BDE7002304
:1049E400D8E72B46D6E70025DBE70025E4E700BF40
:1049F4000000AD0B0378002B40F08F8010B58EB013
:104A04000C468A6D8B6C4BB19A4219D89B1A8B64F5
:104A1400002B3BD04B6C0BB113444B64A26D236D44
:104A24004BB19A4242D89B1A2365002B64D0E36CA5
:104A34000BB11344E364606DFFF782FF0EB010BD49
:104A4400364B0D9302238DF8043000238DF8053086
:104A54008DF806308DF80730019A0C92194663F3ED
:104A6400000163F3410163F3820163F3C501012291
:104A740062F38811082262F3522163F3DE4163F387
:104A8400DF710CAA264804F06CFCC7E74B6B0833B3
:104A94004B638B6B013B8B63012301F1480238317B
:104AA40004F1340005F032F96064B7E71B4B079357
:104AB40002238DF8043000238DF805308DF806307C
:104AC4008DF80730019A0692194663F3000163F3E7
:104AD400410163F3820163F3C501012262F388118A
:104AE400082262F3522163F3DE4163F3DF7106AA05
:104AF4000B4804F036FC9EE7E36B0833E363236C56
:104B0400013B2364012304F1500204F1400104F148
:104B14003C0005F0FBF8E0648DE7704700BB010042
:104B2400D0AF0100F0B583B000AF054684685DE006
:104B340023681E6821796D4600233B7102237B7133
:104B44008AB06C4614F1100215D012201AB1042850
:104B540001DD324B636100233B7002237B70C2B1E1
:104B64000346082800DDA6610C2B00DDE16104F199
:104B7400200300210BE06FF00040E7E701F1080695
:104B840006EB070C1CF808CC03F801CB0131012912
:104B9400F4D9112826DD122342B1042139710021F0
:104BA4007971B9710121F9717868206100216FF37D
:104BB40000016FF341016FF382016FF3C50101201E
:104BC40060F38811C3F3090363F352216FF3DE41E9
:104BD4006FF3DF710023124804F0C3FBAD466FF09E
:104BE400120017E06FF01B03D6E70834AB68EA68DD
:104BF40003EBC2039C420CD2206805F07AFD002826
:104C040096D04FF4B011204605F058F80028ECDA9D
:104C140000E000200C37BD46F0BD00BF20BB010002
:104C2400D0AF010043681A68B1F5164F6FD03AD877
:104C3400B1F5165F6ED00AD9B1F5E14F75D024D91C
:104C440047F6122399422BD14FF4000313E0B1F538
:104C5400966F61D007D9B1F5166F63D0B1F5965F41
:104C640010D13C4B07E0B1F5967F58D0B1F5167FD3
:104C740005D14FF41C33C2F82435002070476FF07F
:104C8400150070476FF015007047B1F5615F4ED0A5
:104C9400B1F5964F01D1304BEDE76FF01500704739
:104CA4006FF015007047B1F5613F42D009D9B1F5F5
:104CB400612F46D01FD9294B994248D14FF08053D8
:104CC400D9E7B1F5963F37D005D9B1F5E13F0FD11A
:104CD4004FF0EB73CFE74DF6C02399422ED0B1F5D8
:104CE400614F02D14FF46B03C5E76FF015007047B5
:104CF4006FF0150070471A4B994225D0B1F5E12F9A
:104D040002D14FF0E863B6E76FF0150070474FF437
:104D14001D03B0E7134BAEE74FF49E23ABE74FF40C
:104D2400A033A8E74FF41D23A5E70F4BA3E70F4BD0
:104D3400A1E74FF06C739EE70D4B9CE74FF46503BE
:104D440099E74FF0706396E74FF0806393E76FF055
:104D54001500704700B0130000A04E0040420F0041
:104D640090D003000050270000C0750000F03A0006
:104D740000903A01F8B505460E46076905F0DDFCDA
:104D840010B9124B1B7883B94FF02003EFF3118451
:104D940083F31288BFF36F8F284605F083F940B977
:104DA40084F31188BFF36F8FEEE7284605F0DFF92F
:104DB40004463B691E7001223969284605F08CF9C6
:104DC40084F31188BFF36F8FF8BD00BF3A8D0020C4
:104DD40030B589B005460C4601F1180001F05CF8C5
:104DE4001D4B98420FD1237E43F00043C5F8A031F8
:104DF400C5F88C30227E01239340184AC2F804354A
:104E0400002009B030BD164B079302238DF80430FF
:104E140000238DF805308DF806308DF80730019A9F
:104E24000692194663F3000163F3410163F38201BF
:104E340063F3C501012262F38811082262F352214F
:104E440063F3DE4163F3DF7106AA064804F089FACE
:104E54006FF00400D5E700BF0000AD0B0070014007
:104E6400BCBB0100E0AF010021F07F4100F5A87058
:104E7400014B43F8201070470050014000F5A87022
:104E8400014B53F820007047005001404FF4803329
:104E94008340024AC2F84433704700BF00500140C7
:104EA4004FF480338340024AC2F84833704700BF4E
:104EB40000500140014BD3F80405704700500140F5
:104EC40010B5012383406FEA030C0C4AD2E8EF1FAC
:104ED40001EA0C0EC2E8E4EF002CF7D14FF4803263
:104EE40082400748C0F80823BFF35F8FBFF36F8F7A
:104EF4000B4214BF0120002010BD00BF348C0020E1
:104F04000050014038B5044605F0EDF905464FF46C
:104F14008033A340144AD2F80423134205D1002459
:104F2400284605F0E9F9204638BD0123A340DB43B8
:104F34000E4AD2E8EF1F01EA0300C2E8EC0FBCF10D
:104F4400000FF6D149B904F150039B009BB203F161
:104F5400804303F5A8331B6823B1204605F0B4F958
:104F64000124DDE70024DBE7005001402C8C002005
:104F740001B97047012383400D4AD2E8EFCF4CEAD0
:104F8400030CC2E8E1CF0029F7D14FF4803383400A
:104F9400084AC2F80433084BD3E8AF3FC34013F0C8
:104FA400010FE6D0054B4FF40012C3F80021E0E7EF
:104FB400348C0020005001402C8C002000E100E0E3
:104FC4002DE9F843074614461E461046194605F0D7
:104FD40087F90546154B1A68A01A1C605E60A5F592
:104FE4000013B3F5400F09D3002403F087F83846C3
:104FF400FFF744FFA8420ED0BDE8F8830C4B1B68B2
:105004001A0A1B0615EB030842F10009094BC3E910
:1050140000890124E9E71CB13846FFF737FFEBE7C5
:105024004FF400013846FFF71FFFF5E7B88600206C
:10503400388C0020C0860020C3B29B00014818446D
:10504400704700BF4051014000F5A870014B53F870
:10505400200070470050014038B50D4B1C68250AEC
:105064002406BFF35F8FFFF725FF0346001945F1C0
:105074000001B3F5801F0AD2064BD3E90023904206
:1050840071EB030303D210F1807041F1000138BDCC
:10509400388C0020C0860020F8B5064614461D460C
:1050A4001046194605F01CF90746FFF7D5FFA04244
:1050B40071EB05031DD2201A65EB0101194B9842CF
:1050C40071F100012BD2184B03EB0613D3E9022331
:1050D400AB4208BFA24216D03946304605F011F95A
:1050E400394605F0EDF8001945F1000304461D4664
:1050F40009E00123B3400D4AD2E8EF0F1843C2E898
:10510400E10F0029F8D1084B320103EB0616C6E97A
:10511400024506999950079B73600020F8BD6FF013
:105124001500FBE701000001988600202C8C00206C
:1051340030B583B000231F4AC2F808350FE01E4A79
:1051440002EB03124FF0FF304FF0FF31C2E90201CE
:105154004FF480329A401749C1F804230133012BDC
:10516400EDDD144C0225C4F80453144B4FF4001223
:10517400C3F8802100220121152004F0FDF9152037
:1051840004F0F0F90123A36023600D4B03221A609D
:105194000C4B1D60002401940B4B00930B4A00231D
:1051A400204605F0F4F82846FEF788FE204603B0B2
:1051B40030BD00BF005001409886002000E100E0AF
:1051C400348C0020308C0020C54F0100FFFF7F008D
:1051D4002DE9F04782B00446FFF794FE10B902B0FF
:1051E400BDE8F087FFF738FF82460D4605F07BF8EF
:1051F4000646134B03EB0413D3E90289C24575EB4E
:1052040009050BD20025304605F076F8002DE6D0CE
:10521400009742464B462046A847E0E7084A230148
:1052240002EB0411D5584F680020D0504FF0FF32E4
:105234004FF0FF33C1E902232046FFF731FEE2E7D6
:105244009886002010B50E4BD3F8043313F0020FE8
:105254000DD00B4BD3F804314BB1094B0022C3F8EA
:105264000421D3F80431074A13680133136000247E
:1052740003E02046FFF7ACFF0134012CF9DD10BD3B
:1052840000500140388C0020124B1868F0B100B572
:10529400B0FA80F0C0F11F0001238340DB430D49C5
:1052A400D1E8EF2F02EA030CC1E8EECFBEF1000F04
:1052B400F6D122FA00F313F0010F05D1054B18685B
:1052C4000028E5D16FF00B005DF804FB6FF00B00D4
:1052D400704700BF308C002001238340044AD2E889
:1052E400EF0F1843C2E8E10F0029F8D1704700BF5F
:1052F400308C002010B582B0B0F1FF3F06D00128F9
:1053040006DDB0F5000F05DA441E04E00F48F8E7A7
:10531400002400E00D4CFFF79FFE0D4B1A685B68FC
:10532400801AB0F5000F00D300242044411CB1F5CD
:10533400000F00D30549002052180190054900913F
:1053440043F1000305F023F802B010BDFFFF7F0016
:10535400B8860020C54F010008B5FFF77DFE024B5B
:105364001B68C01A08BD00BFB886002030B400F026
:105374001F0C4009012818D00D4D0CF1800055F880
:10538400204004F0E04C41EA420141EA83039DF8E5
:10539400082043EA02239DF80C2043EA024343EA2F
:1053A4000C0345F8203030BC7047024DE5E700BFE0
:1053B400002584400028844059B900F01F014009A9
:1053C400012804D0094A01238B40D3607047084A5E
:1053D400F9E700F01F014009012804D0034A012322
:1053E4008B4093607047024AF9E700BF0025844070
:1053F400002884402DE9F04F85B007468B4690463F
:10540400002422E04FF0FF352CE0C8F80C550126AB
:10541400039631467F2D16D0B1F1FF3F40F00E8147
:1054240057F80A3013F4005F02D0012600220392D9
:1054340000220192CDF80090C3F3C11332460399C0
:105444002846FFF793FF0134E4B25C4580F0FA800C
:105454004FEA840A57F82430C3F3432903F07F0545
:105464007F2DCFD01B0C222B00F2EE8001A252F82C
:1054740023F000BF0F54010005550100135501002E
:105484001F5501002D5501003B55010047550100F2
:105494004D5601004D5601004D5601004D56010078
:1054A40055550100695501004D5601004D56010046
:1054B4004D5601004D5601004D5601004D56010058
:1054C4004D5601004D5601004D5601007D55010019
:1054D4008F550100A1550100B35501004D5601003F
:1054E4004D5601004D560100C5550100D55501002A
:1054F400E1550100F155010001560100115601006A
:10550400C8F81455002603964FF0FF3182E7C8F817
:1055140008550126039631467CE7C8F81055002645
:1055240003964FF0FF3175E7C8F8085500260123AC
:10553400039331466EE7C8F80C5501260396002103
:1055440068E7C8F81055002603964FF0FF3161E76D
:10555400C8F80855B9F1000F60D0002603964FF043
:10556400FF3157E7C8F80C55B9F1000F5ED000269B
:1055740003964FF0FF314DE7C8F8605557F80A100D
:10558400C1F380310126039644E7C8F8645557F8FF
:105594000A10C1F38031012603963BE7C8F8685529
:1055A40057F80A10C1F380310126039632E7C8F890
:1055B4006C5557F80A10C1F380310126039629E788
:1055C400C8F824550126002303934FF0FF3121E747
:1055D400C8F828550126039631461BE7C8F830550C
:1055E4000126002303934FF0FF3113E7C8F8345525
:1055F4000126002303934FF0FF310BE7C8F8385519
:105604000126002303934FF0FF3103E7C8F83C550C
:105614000126002303934FF0FF31FBE64E46CDF8FD
:105624000C904FF0FF314FF00609F3E64E46CDF8EB
:105634000C904FF0FF314FF00609EBE62846FFF7D8
:10564400BBFEEDE6002001E06FF0850005B0BDE88B
:10565400F08F00BF30B589B00C46056943680F2947
:1056640006D81B68CB4013F0010F1DD1002300E0C6
:105674000023002B61D0CAB9D5F88430E34013F07D
:10568400010F5DD0E0B201F0D1F8D5F884300122E9
:10569400A24023EA0203C5F88430D5F88430002BF5
:1056A40046D0002009B030BD0123E2E7D5F88430AC
:1056B400E34013F0010F46D1002AE3D055F824301B
:1056C4006BB1D5F884307BB3D5F884300122A24085
:1056D4001343C5F88430E0B201F0A0F8DDE71B4BBA
:1056E400079302228DF8042000238DF805308DF8ED
:1056F40006308DF8073001990691194663F30001CD
:1057040063F3410163F3820163F3C50162F388111A
:10571400082262F3522163F3DE4163F3DF7106AAC8
:105724000B4803F01EFECCE72A2003F01BFFCBE757
:105734002A2003F01CFF0020B4E76FF01500B1E746
:105744006FF07700AEE76FF07700ABE758BC01006D
:10575400A8AF010030B589B005460C461AB3204BFA
:10576400079302228DF8042000238DF805308DF86C
:1057740006308DF8073001990691194663F300014C
:1057840063F3410163F3820163F3C50162F388119A
:10579400082262F3522163F3DE4163F3DF7106AA48
:1057A400104803F0DEFD6B680F2C06D85B68E340FD
:1057B40013F0010F0FD1002300E000236BB1E1B21D
:1057C4008900C9B201F1804101F5283101230B6040
:1057D400002009B030BD0123F0E76FF01500F8E7B1
:1057E40088BC0100A8AF0100F0B58FB004460D4697
:1057F400D1F8806073680F2806D81B68C34013F083
:10580400010F16D1002300E00023A3B1D5F88430A2
:10581400E34013F0010F33D055F824703FB104F185
:105824001002002355F8222021463046B8470FB015
:10583400F0BD0123E9E7254B079302228DF80420EC
:1058440000238DF805308DF806308DF80730019966
:105854000691194663F3000163F3410163F3820186
:1058640063F3C50162F38811082262F3522163F3E2
:10587400DE4163F3DF7106AA154803F072FDC5E744
:10588400144B0D9302228DF8042000238DF805306B
:105894008DF806308DF8073001990C91194663F3A1
:1058A400000163F3410163F3820163F3C50162F311
:1058B4008811082262F3522163F3DE4163F3DF713E
:1058C4000CAA034803F04DFDA6E700BFA4BC0100E9
:1058D400A8AF0100C0BC010010B5AEB0446884227A
:1058E400002101A803F04FFF6368B3F5803F06D29F
:1058F4002368B3F5803F27D2002321934AE0364B37
:10590400279302228DF8002000238DF801308DF8B2
:1059140002308DF8033000992691194663F3000193
:1059240063F3410163F3820163F3C50162F38811F8
:10593400082262F3522163F3DE4163F3DF7126AA86
:10594400264803F00EFDD3E7254B2D9302228DF854
:10595400002000238DF801308DF802308DF80330DB
:1059640000992C91194663F3000163F3410163F339
:10597400820163F3C50162F38811082262F35221A4
:1059840063F3DE4163F3DF712CAA144803F0E9FCEE
:10599400B2E701330F2B1AD86268DA4012F0010F14
:1059A40006D001229A402EA901EB830141F8B42CC0
:1059B4002268DA4012F0010FEBD00121994003F183
:1059C40010022EA800EB820242F8B41CE1E701A801
:1059D40000F0FEFE2EB010BDE0BC0100A8AF010037
:1059E4000CBD010010B504460269C2F880000749E5
:1059F400002000F0D5FE002201212A2003F0BCFD86
:105A04002046FFF769FF002010BD00BFED570100DD
:105A140010B588B0FBF7F4FF144B079302238DF8FD
:105A2400043000248DF805408DF806408DF80740B9
:105A3400019B0693214664F3000164F3410164F37E
:105A4400820164F3C501012363F38811082363F31E
:105A5400522164F3DE4164F3DF71234606AA04484D
:105A640003F07FFC204603F0C7FD00BF68BD0100C2
:105A740080AF01002DE9F041A2B0044688461546E6
:105A84001E46114B1F783FB14FF0FF324FF0FF33EA
:105A94000E4801F017FD80B9684603F0ABFD289B62
:105AA400324629464046A0470446684603F0A3FD13
:105AB4002FB9204622B0BDE8F0811F24F9E703483E
:105AC40001F084FDF5E700BF3A8D00207C810020C1
