:10000000000C002055010000B7010000911800000D
:10001000A5180000B9180000E1180000CD18000074
:100020000000000000000000000000008933000014
:10003000D30100000000000049330000DB01000094
:10004000DF010000E301000000000000E701000004
:1000500000000000EB0100000000000000000000B4
:10006000EF010000F3010000F7010000FB010000B8
:10007000FF01000003020000070200000B02000065
:100080000F0200001302000000000000000000004A
:10009000170200001B02000000000000000000002A
:1000A0001F02000023020000270200002B020000B4
:1000B0002F02000033020000370200003B02000064
:1000C0003F02000043020000470200004B02000014
:1000D0004F0200000000000053020000000000007A
:1000E00057020000000000005B0200005F020000F9
:1000F0000000000063020000000000006702000032
:100100000000000000000000000000006B02000082
:100110006F02000000000000730200007702000080
:10012000000000007B020000000000000000000052
:1001300000000000000000000000000000000000BF
:1001400000000000000000000000000000000000AF
:100150007F020000114C124DAC4209DA216862683E
:10016000A368043BA2BFC858D050FAE70C34F3E7A9
:100170000C4B0D4CA34208DA19685A680020043A67
:10018000A4BF8850FBE70833F4E772B60748084974
:10019000086001F053FD01F03BFB00008402000009
:1001A000A8020000A8020000C80200000000000031
:1001B00008ED00E0FEE7FFF7FEBF01F069BB01F0CC
:1001C00071BB01F079BB01F08BBB01F07FBB03F089
:1001D000DBB8FFF7FEBF03F0B7B8FFF7FEBFFFF7CE
:1001E000FEBFFFF7FEBFFFF7FEBFFFF7FEBFFFF743
:1001F000FEBFFFF7FEBFFFF7FEBFFFF7FEBFFFF733
:10020000FEBFFFF7FEBFFFF7FEBFFFF7FEBFFFF722
:10021000FEBFFFF7FEBFFFF7FEBFFFF7FEBFFFF712
:10022000FEBFFFF7FEBFFFF7FEBFFFF7FEBFFFF702
:10023000FEBFFFF7FEBFFFF7FEBFFFF7FEBFFFF7F2
:10024000FEBFFFF7FEBFFFF7FEBFFFF7FEBFFFF7E2
:10025000FEBFFFF7FEBFFFF7FEBFFFF7FEBFFFF7D2
:10026000FEBFFFF7FEBFFFF7FEBFFFF7FEBFFFF7C2
:10027000FEBFFFF7FEBFFFF7FEBFFFF7FEBFFFF7B2
:04028000FEBF00BFFE
:10028400FC9D0000202F002008010000009E0000BB
:10029400401C002000000000009E0000201C0020E4
:0402A4000000000056
:1002A80040300020701A0000401C0020E0120000BE
:1002B800201C002020000000001C0020040000007A
:1002E000009A3D4B9A420FD1EFF314830CB41FB523
:1002F0003A486946002201F033FE0FBC0CBC9E4612
:100300000CBC83F3148874470FDFFEE700BF184668
:10031000009A314B9A420FD1EFF314830CB41FB5FE
:100320002F486946002201F01BFE0FBC0CBC9E4604
:100330000CBC83F3148874470FDFFEE700BF184638
:100340000CB4029A244B9A4212D10CBC9C46EFF397
:1003500014830CB463461FB522486946002201F09D
:10036000FFFD0FBC0CBC9E460CBC83F31488744785
:100370000FDFFEE700BF1846009A174B9A4210D1D4
:10038000EFF314830CB463461FB517486946002287
:1003900001F0E6FD0FBC0CBC9E460CBC83F3148838
:1003A00074470FDFFEE700BF1846009A0A4B9A42D7
:1003B0000FD1EFF314830CB41FB50C48694600222B
:1003C00001F0CEFD0FBC0CBC9E460CBC83F3148820
:1003D00074470FDFFEE700BFA5EDF5FE31200000FA
:1003E0004120000089200000D1230000AD2400003E
:1003F000431810B501D21F2A01D9002010BD0139C0
:1004000002F014030144102B80EA01043CD009DC03
:100410008BB1042BF1D11F2C40E840F315D941E8F2
:1004200040F10EE0142BE8D11F2C40E8C0F30CD9AA
:1004300041E8C0F105E01F2C40E800F305D941E890
:1004400000F11C460B468C42D7D122F01402013A2F
:100450000A2AD2D801A151F822F000BFAB04000053
:10046000A504000097040000FB030000FB0300004C
:10047000FB030000FB030000B1040000AB0400001C
:100480009F040000970400001F2C40E880F3DCD993
:1004900041E880F1D5E713F4001FAFD1ADE713F4C5
:1004A000801FFAE75B02A9D5A7E713F4002FF4E752
:1004B00013F4802FF1E700BF80B487B000AFF8607D
:1004C000B9607A60FB683B61BB68DBB21A461346D1
:1004D0001B0213441B041A46BB68DBB21B02134306
:1004E000BA68D2B213437B6108E03B695A1C3A6197
:1004F000BA68D2B21A707B68013B7B607B68002BC4
:100500000DD03B6903F00303002BEED107E03B69FC
:100510001A1D3A617A691A607B68043B7B607B68CC
:10052000032BF4D805E03B695A1C3A61BA68D2B291
:100530001A707B685A1E7A60002BF4D1FB6818464B
:100540001C37BD4680BC704780B487B000AFF860F0
:10055000B9607A60FB687B61BB683B610AE03A691D
:10056000531C3B617B69591C796112781A707B6856
:10057000013B7B607B68002B15D07B6903F0010396
:10058000002BECD13B6903F00103002BE7D10AE01B
:100590003A69931C3B617B69991C796112881A80C6
:1005A0007B68023B7B607B68012B15D97B6903F07C
:1005B0000203002BECD13B6903F00203002BE7D1CF
:1005C0000AE03A69131D3B617B69191D7961126864
:1005D0001A607B68043B7B607B68032BF1D807E0E3
:1005E0003A69531C3B617B69591C796112781A7016
:1005F0007B685A1E7A60002BF2D1FB6818461C37C4
:10060000BD4680BC7047000080B483B000AF084B8B
:100610001B687B607B685B68002B02D17B681B6872
:1006200000E0044B18460C37BD4680BC704700BF45
:10063000001C002041060000FFF7E6FF004700BF56
:1006400090B595B000AF2F4B1B687B647B6C1B682B
:100650003B647B6C0833FB637B6C5B68012202FAB2
:1006600003F3013BBB633B6C002B06D03B6C98470C
:100670000346002B01D008F0F1FE4FF00041B86BAB
:1006800008F0C0FEF8640023BB642DE00122BB6CBF
:1006900002FA03F37B63FA6C7B6B1340002B20D0D0
:1006A000BB6C9B00FA6B13441B68002B01D108F054
:1006B000D5FE3B1D1946786B08F0AAFEBC68BB6CE2
:1006C0009B00FA6B13441B683A1D1046984703467B
:1006D0001946204608F0B3FE7B6BDB43FA6C1340EF
:1006E000FB64BB6C0133BB64FB6C002B04D07B6CE4
:1006F0005A68BB6C9A42C9D8FB6C002BBDD008F07D
:10070000ADFEBAE7001C0020000000000000000061
:1007100000000000000000000000000000000000D9
:1007200001015F5F030100001F010000930B000047
:1007300000080000000000000100000001000000AF
:100740000000000000000000102200200000000057
:1007500070000000D494000080000000000700003A
:1007600001000000B70B00000100000000015F5F06
:10077000040100001F030000111600000005000026
:100780000000000000000000030000000000000066
:1007900000000000102A002000000000E09400008B
:1007A0004000000000050000010000000000000003
:1007B000100000000095000041000000000500004E
:1007C000010000000000000020000000189500005B
:1007D00042000000000400000100000000000000D2
:1007E0004000000000015F5F00000000FE03000009
:1007F0009D34000000040000000000000000000024
:10080000000000000000000000000000E0310020B7
:100810000000000001015F5F01000000FF03000015
:10082000D5340000000100000000000000000000BE
:10083000000000000000000000000000E035002083
:0408400000000000B4
:1008600080B483B000AF7860044A7B68C2F8043477
:10087000002318460C37BD4680BC7047401C002042
:1008800080B483B000AF786039607B68033323F0B5
:1008900003037B600F4BD3F80034C3F580637A68A1
:1008A0009A4202D96FF08C030FE00A4BD3F8003460
:1008B000084A1A443B681A60064BD3F800247B6848
:1008C0001344044AC2F80034002318460C37BD46CE
:1008D00080BC7047401C002080B584B000AF0C4B3A
:1008E0000022C3F804240A4BD3F80034084AFA6003
:1008F0000022BA607B607A68B968F868FFF7DCFDAF
:10090000034B0022C3F8002400BF1037BD4680BD52
:10091000401C002090B5A5B000AF78600023C7F858
:1009200080300423C7F88C300423C7F8883007F1DF
:100930006003202200211846FFF7BEFD07F14003A7
:10094000202200211846FFF7B7FD07F10C033422DF
:1009500000211846FFF7B0FD0023BB6004E0D7F884
:100960008C30013BC7F88C30D7F88C30002B08D086
:10097000D7F88C305A1E7B68043253F82230002B93
:10098000EDD0D7F88C30002B02D16FF08303E5E077
:100990007B68586807F10C023423002108F03EFD03
:1009A0000346342B02D06FF08303D7E0FB68402B63
:1009B00002D96FF08303D1E007F10C033B663423C7
:1009C0007B660123C7F8843039E07B68D7F8842040
:1009D000043253F8223007F1080211461846FFF797
:1009E0004FFFC7F88000D7F88030002B04D0FFF706
:1009F00073FFD7F88030B1E07B685868B9687B68CE
:100A0000D7F88420043253F822300A46D7F88410ED
:100A100008F004FD0246D7F88430DB0090333B44F5
:100A200043F82C2CBA68D7F88430DB0090333B4471
:100A300043F8302CD7F884300133C7F88430D7F826
:100A40008420D7F88C309A42BFD304E0D7F888309E
:100A5000013BC7F88830D7F88830002B08D0D7F88A
:100A600088305A1E7B68083253F82230002BEDD0B4
:100A70000023C7F8843030E07B68D7F88420083240
:100A800053F8223007F1080211461846FFF7F8FE26
:100A9000C7F88000D7F88030002B04D0FFF71CFF88
:100AA000D7F880305AE0BA68D7F88430DB0090334A
:100AB0003B4443F8502C7B68D7F88420083253F825
:100AC0002220D7F88430DB0090333B4443F84C2C91
:100AD000D7F884300133C7F88430D7F88420D7F8AA
:100AE00088309A42C8D37B689B681846FFF7B8FEE7
:100AF000FB681C4A52F8234007F1400207F16000EE
:100B0000D7F88830D7F88C10A047C7F880000023AA
:100B1000C7F8843018E07B685868D7F88430DB0069
:100B200090333B4453F8502CD7F88430DB0090339B
:100B30003B4453F84C3CD7F8841008F07BFCD7F8C2
:100B400084300133C7F88430D7F88420D7F8883050
:100B50009A42E0D3FFF7C0FED7F8803018469437AA
:100B6000BD4690BD7416000080B500AF0121044859
:100B700003F032FF03F098FF0346184680BD00BF24
:100B80004820002080B500AF00F028F80346184642
:100B900080BD80B582B000AFFFF7F4FF78607B685E
:100BA000002B01D07B6802E0FFF7DEFF034618460A
:100BB0000837BD4680BD80B582B000AF78607B68E5
:100BC0001B68002B04D17868FFF7A4FE034601E000
:100BD0006FF0850318460837BD4680BD80B584B0E8
:100BE00000AF084BFB600023BB604FF4E0737B60F9
:100BF0007A68B968F868FFF75FFC00231846103779
:100C0000BD4680BD5020002080B485B000AFF860A4
:100C1000B9607A603B606FF0850318461437BD46B3
:100C200080BC704780B485B000AFF860B9607A606E
:100C30003B606FF0850318461437BD4680BC704793
:100C400080B485B000AFF860B9607A603B606FF047
:100C5000850318461437BD4680BC704780B485B004
:100C600000AFF860B9607A603B606FF085031846AA
:100C70001437BD4680BC704780B485B000AFF860C3
:100C8000B9607A603B606FF0850318461437BD4643
:100C900080BC704780B485B000AFF860B9607A60FE
:100CA0003B606FF0850318461437BD4680BC704723
:100CB00080B485B000AFF860B9607A603B606FF0D7
:100CC000850318461437BD4680BC704780B485B094
:100CD00000AFF860B9607A603B606FF0850318463A
:100CE0001437BD4680BC704780B485B000AFF86053
:100CF000B9607A603B606FF0850318461437BD46D3
:100D000080BC704780B485B000AFF860B9607A608D
:100D10003B606FF0850318461437BD4680BC7047B2
:100D200080B485B000AFF860B9607A603B606FF066
:100D3000850318461437BD4680BC704780B485B023
:100D400000AFF860B9607A603B606FF085031846C9
:100D50001437BD4680BC704780B485B000AFF860E2
:100D6000B9607A603B606FF0850318461437BD4662
:100D700080BC704780B485B000AFF860B9607A601D
:100D80003B606FF0850318461437BD4680BC704742
:100D900080B485B000AFF860B9607A603B606FF0F6
:100DA000850318461437BD4680BC704780B485B0B3
:100DB00000AFF860B9607A603B606FF08503184659
:100DC0001437BD4680BC704780B485B000AFF86072
:100DD000B9607A603B606FF0850318461437BD46F2
:100DE00080BC704780B485B000AFF860B9607A60AD
:100DF0003B606FF0850318461437BD4680BC7047D2
:100E000080B485B000AFF860B9607A603B606FF085
:100E1000850318461437BD4680BC704780B485B042
:100E200000AFF860B9607A603B606FF085031846E8
:100E30001437BD4680BC704780B485B000AFF86001
:100E4000B9607A603B606FF0850318461437BD4681
:100E500080BC704780B485B000AFF860B9607A603C
:100E60003B606FF0850318461437BD4680BC704761
:100E700080B485B000AFF860B9607A603B606FF015
:100E8000850318461437BD4680BC704780B485B0D2
:100E900000AFF860B9607A603B606FF08503184678
:100EA0001437BD4680BC704780B485B000AFF86091
:100EB000B9607A603B606FF0850318461437BD4611
:100EC00080BC704780B485B000AFF860B9607A60CC
:100ED0003B606FF0850318461437BD4680BC7047F1
:100EE00080B485B000AFF860B9607A603B606FF0A5
:100EF000850318461437BD4680BC704780B485B062
:100F000000AFF860B9607A603B606FF08503184607
:100F10001437BD4680BC704780B485B000AFF86020
:100F2000B9607A603B606FF0850318461437BD46A0
:100F300080BC704780B485B000AFF860B9607A605B
:100F40003B606FF0850318461437BD4680BC704780
:100F500080B485B000AFF860B9607A603B606FF034
:100F6000850318461437BD4680BC704780B485B0F1
:100F700000AFF860B9607A603B606FF08503184697
:100F80001437BD4680BC704780B485B000AFF860B0
:100F9000B9607A603B606FF0850318461437BD4630
:100FA00080BC704780B485B000AFF860B9607A60EB
:100FB0003B606FF0850318461437BD4680BC704710
:100FC00080B485B000AFF860B9607A603B606FF0C4
:100FD000850318461437BD4680BC704780B485B081
:100FE00000AFF860B9607A603B606FF08503184627
:100FF0001437BD4680BC704780B485B000AFF86040
:10100000B9607A603B606FF0850318461437BD46BF
:1010100080BC704780B485B000AFF860B9607A607A
:101020003B606FF0850318461437BD4680BC70479F
:1010300080B485B000AFF860B9607A603B606FF053
:10104000850318461437BD4680BC704780B485B010
:1010500000AFF860B9607A603B606FF085031846B6
:101060001437BD4680BC704780B485B000AFF860CF
:10107000B9607A603B606FF0850318461437BD464F
:1010800080BC704780B485B000AFF860B9607A600A
:101090003B606FF0850318461437BD4680BC70472F
:1010A00080B485B000AFF860B9607A603B606FF0E3
:1010B000850318461437BD4680BC704780B485B0A0
:1010C00000AFF860B9607A603B606FF08503184646
:1010D0001437BD4680BC704780B485B000AFF8605F
:1010E000B9607A603B606FF0850318461437BD46DF
:1010F00080BC704780B485B000AFF860B9607A609A
:101100003B606FF0850318461437BD4680BC7047BE
:1011100080B485B000AFF860B9607A603B606FF072
:10112000850318461437BD4680BC704780B485B02F
:1011300000AFF860B9607A603B606FF085031846D5
:101140001437BD4680BC704780B485B000AFF860EE
:10115000B9607A603B606FF0850318461437BD466E
:1011600080BC704780B485B000AFF860B9607A6029
:101170003B606FF0850318461437BD4680BC70474E
:1011800080B485B000AFF860B9607A603B606FF002
:10119000850318461437BD4680BC704780B485B0BF
:1011A00000AFF860B9607A603B606FF08503184665
:1011B0001437BD4680BC704780B485B000AFF8607E
:1011C000B9607A603B606FF0850318461437BD46FE
:1011D00080BC704780B485B000AFF860B9607A60B9
:1011E0003B606FF0850318461437BD4680BC7047DE
:1011F00080B485B000AFF860B9607A603B606FF092
:10120000850318461437BD4680BC704780B485B04E
:1012100000AFF860B9607A603B606FF085031846F4
:101220001437BD4680BC704780B485B000AFF8600D
:10123000B9607A603B606FF0850318461437BD468D
:1012400080BC704780B485B000AFF860B9607A6048
:101250003B606FF0850318461437BD4680BC70476D
:1012600080B485B000AFF860B9607A603B606FF021
:10127000850318461437BD4680BC704780B485B0DE
:1012800000AFF860B9607A603B606FF08503184684
:101290001437BD4680BC704780B485B000AFF8609D
:1012A000B9607A603B606FF0850318461437BD461D
:1012B00080BC704780B485B000AFF860B9607A60D8
:1012C0003B606FF0850318461437BD4680BC7047FD
:1012D00080B485B000AFF860B9607A603B606FF0B1
:1012E000850318461437BD4680BC704780B485B06E
:1012F00000AFF860B9607A603B606FF08503184614
:101300001437BD4680BC704780B485B000AFF8602C
:10131000B9607A603B60FA68BB689A420DD3FA689C
:101320007B689A4209D83A68BB699A4205D33A6801
:10133000FB699A4201D8012300E0002318461437C4
:10134000BD4680BC704780B588B002AFF860B96018
:101350007A603B6001230193002300933B680122E4
:101360000121B868FFF7D0FF034683F00103DBB229
:10137000002B02D06FF0800311E0FB685B68342B18
:1013800002D06FF080030AE07B681B687B617B689A
:101390005B683B613969786903F06AFB034618466C
:1013A0001837BD4680BD80B500AF04F0B7FB002301
:1013B000184680BD80B582B000AF7860FFF7F3FFBC
:1013C000034618460837BD4680BD80B483B000AFE1
:1013D00078606FF0850318460C37BD4680BC7047B7
:1013E00080B5AEB000AF78600023C7F8B4300023FA
:1013F000C7F8B03007F1980300221A605A6007F16D
:10140000900300221A605A6000233B6507F15403E1
:101410003C2200211846FFF74FF800233B6107F1FB
:1014200014033C2200211846FFF746F80023FB6016
:101430000123C7F8A4300023C7F8A0300423C7F85D
:10144000AC300423C7F8A83004E0D7F8AC30013B37
:10145000C7F8AC30D7F8AC30002B0ED0D7F8AC3092
:101460005A1E7B68043253F82230002BEDD004E082
:10147000D7F8A830013BC7F8A830D7F8A830002B20
:1014800008D0D7F8A8305A1E7B68083253F82230AB
:10149000002BEDD0D7F8AC30002B07D0D7F8AC300C
:1014A000022B03D8D7F8A830012B01D901236DE016
:1014B0007B68586807F10C020423002107F0AEFF97
:1014C0000346C7F8A030D7F8A030042B02D06FF045
:1014D00080035BE0D7F8AC30012B27D97B685B69D0
:1014E000402B02D96FF0800350E07B6858687B681E
:1014F0005B6907F15002012107F090FF0346C7F82E
:10150000A0307B685A69D7F8A0309A4202D06FF0B9
:1015100080033BE007F15003C7F898307B685B69B4
:10152000C7F89C3007F19803C7F8B430D7F8A83053
:10153000002B12D07B681B6A402B02D96FF080030E
:1015400024E007F11003C7F890307B681B6AC7F8E6
:10155000943007F19003C7F8B030FB68D7F8B0209B
:10156000D7F8B410184604F0DDFAC7F8A400D7F88D
:10157000B030002B08D07B685868D7F89020D7F897
:101580009430002107F056FFD7F8A4301846B8373A
:10159000BD4680BD80B590B000AF7860396007F17E
:1015A0000C031946786807F033FFF863FB68B3F55E
:1015B0007D7F26DA40F2F23293420FDA002B0DD013
:1015C000002B1EDC13F1020F15D0B3F1FF3F18D131
:1015D0003B690021184607F032FF15E007F10C02C5
:1015E0003B68104698470346FB633B69F96B184616
:1015F00007F025FF08E03B690021184607F01FFFB0
:1016000002E007F02BFF00BF00BF4037BD4680BDA2
:1016100080B582B000AF4FF000414FF0FF3007F0CF
:10162000F1FE78607B6803F01003002B04D00E49B4
:101630001020FFF7AFFFEEE77B6803F02003002BDD
:1016400004D00A492020FFF7A5FFE4E77B6803F0F8
:101650004003002B04D006494020FFF79BFFDAE748
:1016600007F0FCFED7E700BFB5130000E113000050
:10167000CB1300004512000061120000F1110000C0
:101680000D120000D5110000291200007D1200008B
:1016900099120000B5120000D1120000AD0D00003B
:1016A000C90D0000050D0000210D00003D0D0000DA
:1016B000590D0000750D0000910D00008D0E000009
:1016C000A90E0000E50D0000010E00001D0E000037
:1016D000390E0000550E0000710E0000CD0C000008
:1016E000E90C0000410C00005D0C0000090C00003A
:1016F000250C0000790C0000950C0000B10C0000D6
:10170000C50E0000E10E0000FD0E0000190F0000E4
:101710006D0F0000890F0000A50F0000DD0F000015
:10172000C10F0000510F0000F90F0000350F00003D
:1017300015100000311000004D100000691000006D
:1017400085100000A1100000BD100000D91000009D
:10175000F510000011110000491100009D1100005A
:101760002D1100006511000081110000B911000069
:1017700047130000ED120000000000000000000010
:101780000348044B834202D0034B03B11847704710
:101790002830002028300020000000000548064BBB
:1017A0001B1AD90F01EBA301491002D0034B03B15F
:1017B0001847704728300020283000200000000023
:1017C00010B5064C237843B9FFF7DAFF044B13B189
:1017D0000448AFF300800123237010BDB031002016
:1017E00000000000F09D000008B5044B1BB1044947
:1017F0000448AFF30080BDE80840CFE700000000D8
:10180000B4310020F09D0000A3F5803A704700BF7E
:10181000174B002B08BF134B9D46FFF7F5FF002128
:101820008B460F461348144A121AFEF745FE0E4B1C
:10183000002B00D098470D4B002B00D0984700207C
:10184000002104000D000D48002802D00C48AFF321
:10185000008006F07DFD2000290000F011FB06F05D
:1018600051FD00BF00000800000000000000000063
:10187000000C002040300020B04A00200000000092
:101880000000000080B500AF01F0FDFB00BF80BD8F
:10189000FFF7F8FFFEE700BF80B500AF01F0F3FBF4
:1018A00000BF80BDFFF7F8FFFEE700BF80B500AFC7
:1018B00001F0E9FB00BF80BDFFF7F8FFFEE700BFC6
:1018C00080B500AF01F0DFFB00BF80BDFFF7F8FF80
:1018D000FEE700BF80B500AF01F0D5FB00BF80BDC3
:1018E000FFF7F8FFFEE700BF80B483B000AF144BF2
:1018F0001B687B60134B1B683B607B68072B19D10F
:101900003B68023B032B13D801A252F823F000BF1F
:101910002119000025190000291900002D190000C7
:10192000012308E0002306E0002304E0002302E096
:10193000002300E0002318460C37BD4680BC7047EA
:101940003001FF003401FF0080B483B000AF144BBE
:101950001B687B60134B1B683B607B68072B19D1AE
:101960003B68023B032B13D801A252F823F000BFBF
:101970008119000085190000891900008D190000E7
:10198000012308E0012306E0002304E0002302E035
:10199000002300E0002318460C37BD4680BC70478A
:1019A0003001FF003401FF0080B483B000AF144B5E
:1019B0001B687B60134B1B683B607B68072B19D14E
:1019C0003B68023B032B13D801A252F823F000BF5F
:1019D000E1190000E5190000E9190000ED19000007
:1019E000012308E0002306E0002304E0002302E0D6
:1019F000002300E0002318460C37BD4680BC70472A
:101A00003001FF003401FF0080B483B000AF144BFD
:101A10001B687B60134B1B683B607B68072B19D1ED
:101A20003B68023B032B13D801A252F823F000BFFE
:101A3000411A0000451A0000491A00004D1A000022
:101A4000012308E0012306E0012304E0012302E072
:101A5000012300E0002318460C37BD4680BC7047C8
:101A60003001FF003401FF0080B483B000AF144B9D
:101A70001B687B60134B1B683B607B68072B19D18D
:101A80003B68023B032B13D801A252F823F000BF9E
:101A9000A11A0000A51A0000A91A0000AD1A000042
:101AA000012308E0002306E0002304E0002302E015
:101AB000002300E0002318460C37BD4680BC704769
:101AC0003001FF003401FF0080B483B000AF144B3D
:101AD0001B687B60134B1B683B607B68072B19D12D
:101AE0003B68023B032B13D801A252F823F000BF3E
:101AF000011B0000051B0000091B00000D1B00005E
:101B0000012308E0002306E0002304E0002302E0B4
:101B1000002300E0002318460C37BD4680BC704708
:101B20003001FF003401FF0080B483B000AF144BDC
:101B30001B687B60134B1B683B607B68072B19D1CC
:101B40003B68023B032B13D801A252F823F000BFDD
:101B5000611B0000651B0000691B00006D1B00007D
:101B6000012308E0002306E0002304E0002302E054
:101B7000002300E0002318460C37BD4680BC7047A8
:101B80003001FF003401FF0080B483B000AF144B7C
:101B90001B687B60134B1B683B607B68072B19D16C
:101BA0003B68023B032B13D801A252F823F000BF7D
:101BB000C11B0000C51B0000C91B0000CD1B00009D
:101BC000012308E0012306E0012304E0012302E0F1
:101BD000012300E0002318460C37BD4680BC704747
:101BE0003001FF003401FF0080B400AF064B074A0C
:101BF0001B68C2F84435044B044ADB69C2F84C3513
:101C000000BFBD4680BC70470080FF0000600050F0
:101C100080B400AF4FF05023D3F8583503F00303DE
:101C2000044A22FA03F3044A136000BFBD4680BC95
:101C3000704700BF0020A107202F002080B582B090
:101C400000AF614B1B68604A43F002031360FFF76B
:101C50006BFF0346002B0CD05C4B1B68002B08D19C
:101C60005A4B0D221A605A4B01221A60584B00221F
:101C70001A6000237B6000237B6010E04FF47F013B
:101C80004FF47F027B68603352F833207B68603307
:101C9000DB000B445B6813607B6801337B607B680F
:101CA0001F2B08D84FF47F027B68603352F8333023
:101CB000B3F1FF3FE2D1FFF7D7FE0346002B05D07B
:101CC000444B29221A60444B03221A60FFF70CFE92
:101CD0000346002B07D0414B414A1A604FF0502376
:101CE0000122C3F85825FFF72FFE0346002B02D030
:101CF0003C4B00221A60FFF757FE0346002B11D021
:101D00004FF05023D3F8003403F00103002B09D027
:101D10004FF050230022C3F814214FF0502300222B
:101D2000C3F81821FFF770FE0346002B0DD04FF0CB
:101D30005023D3F8003403F00103002B05D04FF0FB
:101D400050236FF00102C3F80024FFF7BDFE0346E5
:101D5000002B02D01F4B65221A60FFF715FF0346C8
:101D6000002B21D0204B1B68002B1DDA4FF0502395
:101D70000322C3F818254FF0502301229A6000BFB8
:101D80004FF05023D3F80431002BF9D04FF05023FB
:101D90000022C3F804214FF050230122DA604FF0F3
:101DA00050230122C3F81825104BD3F88C300F4A6A
:101DB00043F44063C2F88C30FFF716FFFFF728FFAB
:101DC00000BF0837BD4680BDD0ED00E0204A00507E
:101DD0001C4900500C4700503C47005030950350C0
:101DE0004400EFBE4C2503502024035000ED00E0DA
:101DF00080B485B000AF78607B68FB60FB6883F3DC
:101E00000A8800BF00BF1437BD4680BC704780B54C
:101E100082B000AF43F65C237B6043F6DA333B606D
:101E200002F0B0FE38603B68002B01D01F2323E096
:101E300003F028FE38603B68002B01D01F231BE015
:101E400003F03AFE78607B68002B01D01F2313E07B
:101E500003F039FE0346002B07D003F03BFE786009
:101E60007B68002B03D01F2306E003F03AFE01F04D
:101E7000EBFA01F06BFB002318460837BD4680BD26
:101E800080B582B000AF4FF0FF337B600B4B18463C
:101E9000FFF7AEFFFFF7BBFF78607B68002B01D038
:101EA00001F053FC01F09CFA01F0D4FA01F0E8F8DB
:101EB000002318460837BD4680BD00BF000400203F
:101EC00090B587B000AF786039603B687B610F4B9D
:101ED0001B685B68103B3B613B693A681A623B696F
:101EE0000B4A5A627C687B6918687B6959687B6910
:101EF0009A687B69DB68A047F860F86800F077F8BB
:101F0000FB6818461C37BD4690BD00BFEC3600206C
:101F1000EDEEEEEE80B584B000AF786039600E4B28
:101F20001B685B68103BFB603B68BB60FB685B6ADF
:101F30000A4A934202D17A68BB681A6001F0AAF893
:101F40000246054B1B689A4201D001F059FC00BFC4
:101F50001037BD4680BD00BFEC360020EDEEEEEE42
:101F600080B586B000AFF860B9607A60EFF30583A2
:101F70007B617B693B613B8AC3F308039BB2002B07
:101F800001D001F0E2FB7B68002B03D00A4B1B68F9
:101F90001A6800E000227B68002B03D0064B1B6808
:101FA0005B6800E00023B968F86801F0A1F900BFA0
:101FB0001837BD4680BD00BFE836002080B483B02E
:101FC00000AFEFF3108372B67B607B6818460C3766
:101FD000BD4680BC704780B483B000AF78607B683A
:101FE00083F3108800BF0C37BD4680BC704780B5B6
:101FF00082B000AF78607B6813F1810F03D07B68FB
:1020000013F1820F09D101F065FF034683F001034C
:10201000DBB2002B01D001F098FB00BF0837BD46B2
:1020200080BD80B400AF00231846BD4680BC704719
:1020300080B400AF40F201131846BD4680BC704723
:1020400080B584B000AF786001F044FF0346FB73B5
:10205000786801F025FDB860BB68002B01D1002332
:102060000DE0FB7B1A46B968786801F099FD0346DC
:10207000002B01D0002302E0BB681B68DB68184618
:102080001037BD4680BD000080B5A8B006AFF8602F
:10209000B9607A603B6000233B6101F01BFF03469F
:1020A00087F87730BB681B0C1BB23B67BB681B0A09
:1020B000DBB2FB66BB68DBB2BB663B6F002B02DAB0
:1020C0006FF080037CE1FB6E042B07D8BB6E042B02
:1020D00004D8FA6EBB6E1344042B02D96FF0800350
:1020E0006EE1FB68002B02D16FF0800368E197F886
:1020F0007730184601F00AFF7866FB6803F08043EA
:10210000002B54D0FB68DBB23B663B6E1F2B02D921
:102110006FF0800354E1AC4A3B6E52F82330C7F8AD
:102120008030D7F88030002B02D16FF0800347E178
:10213000D7F880301B685B68FB6597F877301A46E4
:10214000D7F88010F86D01F02BFD0346002B02D06C
:102150006FF0810334E1FB681B12DBB2BB65B96D24
:10216000D7F8800001F0EAFC0346002B02D06FF0A4
:10217000800325E1FFF722FF03463B6101F0EAFB04
:10218000C7F884003B691846FFF725FFD7F884306D
:10219000002B02D16FF0820312E1D7F884300022C5
:1021A0001A60D7F8840001F09DFBF86020E0796E9A
:1021B000F86801F043FDC7F88400D7F88430002B9D
:1021C00002D16FF08003FBE0D7F884305B68002B0E
:1021D00002D06FF08003F3E0D7F88430DB68C7F8F3
:1021E0008030D7F88030002B02D16FF08003E7E019
:1021F00001237B65FB6ED90097F877207B6D0093F8
:102200000123786801F014FE0346002B02D06FF022
:102210008003D5E0BB6ED90097F877207B6D0093E3
:102220000223386801F004FE0346002B02D06FF051
:102230008003C5E007F1340320220021184601F095
:102240003CFA07F1140320220021184601F035FA68
:10225000FB6EDA0007F134037968184601F0CEF915
:10226000BB6EDA0007F114033968184601F0C6F9AD
:102270000023FB671BE0FB6FDB0088333B4453F814
:10228000540CFB6FDB0088333B4453F8501C97F829
:1022900077207B6D0093012301F0CAFD0346002BDC
:1022A00002D06FF080038BE0FB6F0133FB67FB6FA5
:1022B000FA6E9A42DFD80023FB673AE0FB6F0133E6
:1022C000BB672FE0BB6FDB0088333B4453F8542CD3
:1022D000BB6FDB0088333B4453F8503C1A44FB6F20
:1022E000DB0088333B4453F8543C9A4217D9BB6F08
:1022F000DB0088333B4453F8542CFB6FDB008833FE
:102300003B4453F8541CFB6FDB0088333B4453F8C9
:10231000503C0B449A4202D26FF0800350E0BB6FF6
:102320000133BB67BB6FFA6E9A42CBD8FB6F0133A8
:10233000FB67FB6F01331A46FB6E9342BED8002346
:10234000FB671BE0FB6FDB0088333B4453F8740CE6
:10235000FB6FDB0088333B4453F8701C97F8772001
:102360007B6D0093022301F063FD0346002B02D036
:102370006FF0800324E0FB6F0133FB67FB6FBA6EE5
:102380009A42DFD83B680593BB6E049307F11403B0
:102390000393FB6E029307F1340301937B6E00936A
:1023A0003B6FFA68D7F88010D7F8840001F086FCFC
:1023B000064B9B68D7F88410D7F8800098470346EF
:1023C00018468837BD4680BD083700203495000088
:1023D00080B58EB006AF7860396001F07BFD0346B2
:1023E000FB770023BB60786801F05AFBB861BB69DA
:1023F000002B02D16FF0810352E0BB691B689B6820
:1024000003F40073002B02D06FF0800348E0FB7FE1
:102410001A46B969786801F0C3FB0346002B02D065
:102420006FF081033CE03968B86901F087FB03462F
:10243000002B02D06FF0810332E0FB7F184601F0E1
:1024400065FD7861FFF7BAFD0346BB6001F082FAD3
:102450003861BB681846FFF7BEFD3B69002B02D10F
:102460006FF082031CE0386901F03CFAF860002349
:102470000593002304930023039300230293002376
:1024800001937B6900934FF0FF33FA68B9693869AB
:1024900001F014FC044B9B683969B86998470346FE
:1024A00018462037BD4680BD3495000080B58CB0FD
:1024B00006AF786001F00EFD0346FB757B68002BCC
:1024C00001D1002340E07B6803F08043002B02D061
:1024D0006FF0800338E0FB7D184601F017FD38618E
:1024E0003969786801F0AAFBF860FB68002B02D11B
:1024F0006FF0800328E0FB68DB68BB60BB68002BE3
:1025000002D16FF080031FE0FB685B68012B02D1F2
:102510006FF0800318E00023059300230493002349
:10252000039300230293002301933B6900936FF010
:1025300001037A68B968F86801F0C0FB044B9B6836
:10254000F968B8689847034618461837BD4680BDF5
:102550003495000080B584B000AF78603960002306
:10256000FB603B6803F000433B60104B1B685B68FB
:10257000103BFB60FB689A6A7B681340002B01D11B
:1025800001F0E3F83B68B3F1004F06D1084B1B693B
:102590007968F8689847034603E0FB681A6B7B6824
:1025A000134018461037BD4680BD00BFEC360020F2
:1025B0003495000080B588B002AF786039600023A0
:1025C0007B6100233B617B68002B05D07B685A1E32
:1025D0007B681340002B01D001F0B7F81C4B1B683F
:1025E0005B68103B3B610123FB60FB6800930223A7
:1025F00000223021386801F01BFC0346002B01D07B
:1026000001F0A3F83B691B6B002B01D101F09DF891
:102610003B691A6B7B681340002B01D101F095F8E0
:102620007968386901F0F0F978617B69002B02D193
:102630006FF08B0307E07B69183330221946386846
:1026400000F0DCFF002318461837BD4680BD00BFF0
:10265000EC36002080B58AB002AFF860B9607A60CD
:102660003B600023FB61F86801F005FBF861FB6942
:10267000002B01D101F069F80123BB61FB699B6963
:10268000002B01DA01F061F8BB68032B01D901F0DE
:102690005CF8FB69BA680A3253F82230002B01D18A
:1026A000002339E0BB69009302230022396878686F
:1026B00001F0BEFB0346002B01D001F046F8FB6998
:1026C000BA680A3253F822303A68934228BF134658
:1026D0007B61FB69BA68093253F832307A6919466E
:1026E000786800F08BFFFB69BA68093253F8322032
:1026F0007B69D118FB69BA68093243F83210FB696B
:10270000BA680A3253F822207B69D11AFB69BA6889
:102710000A3243F822107B6918462037BD4680BD37
:1027200080B586B000AFF860B9607A6000237B6145
:10273000F86801F0A0FA78617B69002B01D101F003
:1027400004F87B699B69002B01DA00F0FEFFBB688F
:10275000032B01D900F0F9FF7B69BA680A3253F8FC
:102760002230002B01D1002326E07B69BA680A32AF
:1027700053F822307A689A4205D97B69BA680A32DE
:1027800053F822307B607B69BA68093253F83220F3
:102790007B68D1187B69BA68093243F832107B69CB
:1027A000BA680A3253F822207B68D11A7B69BA686A
:1027B0000A3243F822107B6818461837BD4680BDA0
:1027C00080B588B002AFF860B9607A603B600023E2
:1027D0007B61F86801F04FFA78617B69002B01D1C9
:1027E00000F0B3FF01233B617B699B69002B01DA99
:1027F00000F0ABFFBB68032B01D900F0A6FF7B699B
:10280000BA680E3253F822207969BB680D33DB00B9
:102810000B445B68D31A3A689A4201D900F095FFDD
:102820003B690093012300223968786801F000FBBE
:102830000346002B01D000F088FF7B69BA680D3297
:1028400053F832207969BB680D33DB000B445B68B9
:1028500013443A687968184600F0D0FE7A69BB687C
:102860000D33DB0013445A683B681A447969BB682E
:102870000D33DB000B445A6000BF1837BD4680BDE6
:1028800080B586B000AF7860396000237B6100239B
:10289000BB60786801F0EFF938613B69002B01D12A
:1028A00000F053FF3B69DB68FB60FB68002B01D144
:1028B00000F04BFF3B699B6913F1020F1ED0B3F18F
:1028C000FF3F1FD13B68002B02D17B687B612FE06B
:1028D0003B6813F1820F06D16FF081037B613B6986
:1028E00002225A6024E03B6813F1830F03D16FF09A
:1028F00082037B611CE000F028FF19E03B690222A3
:102900005A6015E03B699B69002B0FDB3B687B61DC
:10291000386901F0E1FBFB681B689B6803F40073F6
:10292000002B05D03B6902225A6001E000F00DFF48
:102930007B6913F1810F05D13B691B6A002B01DB19
:1029400000F003FFFFF73AFB0346BB600C4BDB686C
:102950007969386998477861BB681846FFF73BFB8F
:102960003B695B68022B03D1386901F02DF802E066
:102970003B6900225A607B6918461837BD4680BD06
:102980003495000080B584B000AF7860786801F0BD
:10299000B7F8F8600821F86801F0E4FB00BF1037D1
:1029A000BD4680BD80B582B000AF00233B600023F0
:1029B0007B600F4B1B685B68103B7B607B681B6B0D
:1029C00003F00803002B01D100F0BFFEFFF7F6FA79
:1029D00003463B607B681B6B23F008027B681A632D
:1029E0003B681846FFF7F7FA00BF0837BD4680BDC1
:1029F000EC36002080B500AF03F0C8F800BF80BD02
:102A000080B584B000AF78603960786801F033F940
:102A1000F860FB68002B01D100F097FEFB68DB68D3
:102A20001B689B6803F40073002B01D000F08DFE3F
:102A3000FB683A685A62FB683A681A6000BF103750
:102A4000BD4680BD80B483B000AFEFF3108372B693
:102A50007B607B6818460C37BD4680BC704780B4ED
:102A600083B000AF78607B6883F3108800BF0C37B9
:102A7000BD4680BC704780B48BB000AF78607B6887
:102A80001B68FB61FB699B699A00FB691344303347
:102A9000BB617B6810337B6108237B62FB699B68A9
:102AA00003F40073002B05D1FB69DB699B007A6A94
:102AB00013447B627B699A687B6A073323F00703C0
:102AC0001A447B699A607B691A687B699B68D21A91
:102AD0007B691A607B691B683B61FB69DA683B694B
:102AE0001A603B6900225A603B690833FB60FB694E
:102AF0009B6803F40073002B1DD100233B6211E09F
:102B00003A6A13465B001344DB001A46BB69134460
:102B100019693B6A9B00FA6813440A461A603B6ACB
:102B200001333B62FB69DA693B6A9A42E8D8FB6988
:102B3000DA693B695A607B683A69DA6000BF2C3712
:102B4000BD4680BC7047000080B586B000AF78609D
:102B5000396000237B6100233B610023FB603B68FD
:102B6000002B0AD07B68002B07D07B681B68002BEA
:102B700003D07B685B68002B02D16FF0800340E0DC
:102B80007B685B687B617B681B685B693B61FFF707
:102B900059FF0346FB607B699A6C3B68C3F88C2045
:102BA0007B693A689A647B691A6B3B691A437B6953
:102BB0001A637B69DA6A3B691340002B11D07B6989
:102BC00003F134007B691A6B7B69DB6A1340194699
:102BD00000F036FB7B69DA6A3B69DB431A407B69AC
:102BE000DA62FB681846FFF73AFF3B681033074A82
:102BF00012681146184600F007FB3B6801225A6034
:102C0000002318461837BD4680BD00BFEC360020B3
:102C100080B582B000AF786039607B6810333A6865
:102C20001146184600F00CFB002318460837BD4635
:102C300080BD000080B584B000AF786039607B68EB
:102C40001B68FB607B689B6A43F008027B689A62A2
:102C50007B689A6A3B681A437B689A627B68294A58
:102C60005A637B6800229A637B68002B02D07B68E2
:102C700000229A64FB6828331A68FB681B691344B6
:102C800023F007027B681A61FB6828331B6807334F
:102C900023F007027B685A617B6800229A617B6897
:102CA0000022DA617B6800221A627B68164A5A6247
:102CB0007868FFF7E0FEFB689B68DAB27B6883F810
:102CC0003C207B68002283F83D207B680022DA8765
:102CD0007B6803F110027B681A64FB685B68002B59
:102CE00003D17B681033094A13607B683C336FF073
:102CF00001020749184600F01FFA00BF1037BD4611
:102D000080BD00BF6A626F73EDEEEEEEE836002024
:102D10003906000080B582B000AF0D4800F05AFAC5
:102D200078600B4B1B685B68103B3B603B681A6824
:102D30003B685B681946104601F0D8FF0346002B3C
:102D400001D000F002FD7B6818460837BD4680BD03
:102D5000EC36002080B584B000AF78603960002385
:102D6000BB60FFF76FFE0346BB607B681B6B3A6876
:102D70001340FB60FB68002B0AD17B683A68DA627B
:102D80007B683433074A12681146184600F03CFA53
:102D9000BB681846FFF763FEFB6818461037BD4650
:102DA00080BD00BFEC36002080B582B000AF7860F7
:102DB0007B6803F134007B681A6B7B68DB6A134025
:102DC000194600F03DFA7B680022DA6200BF08373E
:102DD000BD4680BD80B483B000AF78607B6803F0EF
:102DE0004003002B14BF01230023DBB218460C372D
:102DF000BD4680BC7047000080B586B000AF03467A
:102E0000B9607A60FB7300237B61FB7B102B00F2BF
:102E1000BE8001A252F823F05D2E0000652E000056
:102E2000132F0000732E0000292F0000792F0000BF
:102E30004D2F0000372F0000952E0000B72E000008
:102E4000D32E0000632F0000F32E0000FF2E0000A1
:102E50008F2F0000052F00000B2F0000FFF7E8F870
:102E600003469BE0BB681B681846FFF7E9F803467A
:102E700094E0BB681B681846BB6804331968BB68DC
:102E800008331B681A46BB680C331B68FFF7FCF855
:102E900078617FE0BB681B681846BB68043319681B
:102EA000BB6808331B681A46BB680C331B68FFF706
:102EB000D1FB034672E0BB681B681846BB6804334D
:102EC0001968BB6808331B681A46FFF729FC0346DC
:102ED00064E0BB681B681846BB6804331968BB68AC
:102EE00008331B681A46BB680C331B68FFF768FC85
:102EF00050E0BB681B681846FFF744FD4AE0FFF747
:102F000051FD47E0FFF776FD44E0FFF78AF80346FE
:102F100044E0BB681A68BB6804331B681946104656
:102F2000FFF756FA786135E0BB681B681846FFF773
:102F3000BDFA78612EE0BB681B681A46BB68043393
:102F40001B6819461046FFF75BFD23E0BB681A6853
:102F5000BB6804331B6819461046FFF72BFB03467A
:102F60001CE0BB681B681A46BB6804331B68194623
:102F70001046FFF785FC0DE0BB681A68BB68043398
:102F80001B6819461046FFF7E5FA034606E06FF0A6
:102F9000830303E07869FFF72AF87B69184618373E
:102FA000BD4680BD80B586B000AFF860B9607A607C
:102FB0000023FB75FB683B61BB6803F00803002B33
:102FC00006D0BB6803F00403002B01D07B683B6193
:102FD000B868FFF7FFFE0346002B06D03B691833A5
:102FE0001B68023B1B78FB7501E000F0AEFBBB6881
:102FF00003F00803002B0CBF01230023DAB297F97A
:103000001730DBB2DB09DBB25340DBB2002B01D05F
:1030100000F09BFBFB7D402B0AD0412B0CD100F034
:1030200091FFB860144BB968184600F0C1FB1EE070
:10303000386900F097FA1AE00F4AFB68D31A082B98
:1030400001D900F082FBFB7DBA6839691846FFF7A9
:10305000D3FE03461A463B691A6000F01BF802468D
:10306000064B1B689A4201D000F0CAFB00BFBB6848
:1030700018461837BD4680BD000C0020EC360020F5
:1030800041DF704700BF80B500AF00F05EFB00BFBE
:1030900080BD000080B483B000AF0A4B1B687B602A
:1030A00002E07B689B687B607B68002B03D07B68B9
:1030B0005B78012BF5D17B6818460C37BD4680BC88
:1030C000704700BFF436002080B485B000AF786050
:1030D00039607B681B68002B06D03B681A787B68D8
:1030E0001B681B789A4207D87B681A683B689A600D
:1030F0007B683A681A6019E07B681B68FB6002E035
:10310000FB689B68FB60FB689B68002B06D03B68F4
:103110001A78FB689B681B789A42F1D8FB689A681A
:103120003B689A60FB683A689A6000BF00BF14373A
:10313000BD4680BC7047000080B584B000AFF86029
:10314000B9607A60FB68002B00D1FEE7F968094896
:10315000FFF7BAFFFB685868B9687B68002200F087
:103160005DFB0121F86800F007F800BF1037BD468D
:1031700080BD00BFF036002080B483B000AF78601F
:1031800039607B68002B00D1FEE73B68DAB27B68D0
:103190005A707B685B78012B0ED10C4B1B68002B9F
:1031A00006D07B681A78094B1B681B789A4203D2B9
:1031B000064A7B68136004E0054B1B68034A1360F2
:1031C00000BF00BF0C37BD4680BC7047F4360020FE
:1031D000F036002080B584B000AF7860FFF75AFF6A
:1031E000F86000F00DFB7B68002B02D07B68FA686A
:1031F0001A60FB685B68184600F03FFB0346184600
:103200001037BD4680BD000080B582B000AF786049
:1032100039607B68002B04D07B681B68074A9342A7
:1032200000D0FEE77B683A685A6002213868FFF7F1
:10323000A3FF00BF0837BD4680BD00BF6A626F7341
:1032400080B582B000AF786039607B68002B04D015
:103250007B681B68104A934200D0FEE77B685B687E
:10326000002B14D07B685B685B78022B0FD17B68E6
:103270005B6801211846FFF77FFF7B685B685B682E
:103280003968184600F09CFA7B6800225A6000BF3B
:103290000837BD4680BD00BF6A626F7380B483B0DB
:1032A00000AF03463960FB7197F90730002B0ADB4A
:1032B0003B68DAB20C4997F907305201D2B20B449D
:1032C00083F800230AE03B68DAB20849FB7903F08F
:1032D0000F03043B5201D2B20B441A7600BF0C37E5
:1032E000BD4680BC704700BF00E100E000ED00E09B
:1032F00070B572B61446EFF30B855FF0000C002A30
:103300001FBF8CF30B886C46954683F30B880D4AE0
:103310000123136062B60E46FEF7D2FD72B6314647
:10332000FEF7F8FD5FF0000C002C1EBF8CF30B883D
:10333000A54685F30B88034C0025256062B670BD59
:1033400000BF0000F8360020402010EA0E0018D020
:1033500001B500F057FEBDE80440884211D072B6B6
:10336000EFF30982EFF30B8322E9F00F80E81C40B2
:1033700091E81C40B2E8F00F82F3098883F30B88D0
:1033800062B6704700BF0000EFF308807146EFF3AC
:103390000982EFF30B830CB406B4FFF703FE8646F5
:1033A00006BC0CBC00F0080001F00801401A01DC6A
:1033B0000DDB70470CB42DE9F00F084C254626466E
:1033C0002746A046A146A246A34630B4704730BC6B
:1033D000BDE8F00F06BC704700BF0000A5EDF5FE8C
:1033E00080B584B000AF174BFB60FB68DB68BB6047
:1033F000BB68DB431B0C1B047B60BB689AB27B6819
:10340000134343F48042FB68DA6000216FF00B0045
:10341000FFF744FF00216FF00A00FFF73FFF002194
:103420006FF00800FFF73AFF00216FF00400FFF78C
:1034300035FF03216FF00100FFF730FF00BF1037A9
:10344000BD4680BD00ED00E080B400AF00BFBD46CA
:1034500080BC7047EFF3148030F0040080F31488D0
:10346000BFF36F8F704700BF90B583B000AF0A4CB9
:1034700001F0BCFE0346A36001F0C2FE03467B6080
:103480007B6883F3888800BF01F0C6FE03461846B8
:103490000C37BD4690BD00BF00ED02E0FFF7E4FF32
:1034A000009A0B4B9A4210D10446012294432046C5
:1034B000214622462346254626462746A046A146C3
:1034C000A246A346A446A6460447FEE700BF000066
:1034D000A5EDF5FE80B500AF00214FF0FF3005F0FF
:1034E00091FF0346002BF7D130BFF5E780B586B0DA
:1034F00000AF0346FB714FF0FF333B610023FB60DD
:1035000000F07AFCB86000237B6114E00E4A7B690E
:1035100052F83330BA689A420AD1FA790A497B697B
:10352000DB000B445B689A4202D100233B6106E05A
:103530007B6901337B617A69FB689A42E6D33B6918
:1035400018461837BD4680BD4C95000080B400AFCA
:10355000034B01221A6000BFBD4680BC704700BF0C
:10356000FC36002080B58AB002AF78607B681B68AB
:10357000FB777B6804331B68BB617B6808331B687F
:10358000FB8201233B61F98A3B69009302230022FD
:10359000B86900F04DFC0346002B03D07B68032282
:1035A0001A6026E0144B1B68012B03D07B680322B2
:1035B0001A601EE0FB7F1846FFF798FF0346002BBA
:1035C00003D07B6803221A6013E0FB8A032B03D825
:1035D0007B6803221A600CE0BB69FB60FB6842F267
:1035E00016021A80FB6804225A807B6800221A6047
:1035F00000BF2037BD4680BDFC36002080B487B0B8
:1036000000AFF860B9607A60FB687B61BB683B61C2
:103610000AE03A69531C3B617B69591C7961127855
:103620001A707B68013B7B607B68002B15D07B693F
:1036300003F00103002BECD13B6903F00103002BE5
:10364000E7D10AE03A69931C3B617B69991C796177
:1036500012881A807B68023B7B607B68012B15D93E
:103660007B6903F00203002BECD13B6903F00203FA
:10367000002BE7D10AE03A69131D3B617B69191DF4
:10368000796112681A607B68043B7B607B68032B5E
:10369000F1D807E03A69531C3B617B69591C796199
:1036A00012781A707B685A1E7A60002BF2D1FB6880
:1036B00018461C37BD4680BC704780B487B000AF49
:1036C000F860B9607A60FB683B61BB68DBB21A46A0
:1036D00013461B0213441B041A46BB68DBB21B02D1
:1036E0001343BA68D2B213437B6108E03B695A1CAA
:1036F0003A61BA68D2B21A707B68013B7B607B6822
:10370000002B0DD03B6903F00303002BEED107E043
:103710003B691A1D3A617A691A607B68043B7B60D9
:103720007B68032BF4D805E03B695A1C3A61BA6800
:10373000D2B21A707B685A1E7A60002BF4D1FB68F3
:1037400018461C37BD4680BC704780B500AF02F0FC
:103750001DFA00BF80BD80B485B000AF78607B6883
:10376000FB60FB6883F30B8800BF00BF1437BD46C6
:1037700080BC704780B483B000AF78607B6803F092
:103780000703002B00D0FEE77B68083B7B607B686B
:10379000064A1A607B6804331A46044B13607B6840
:1037A00018460C37BD4680BC704700BFA5EDF5FE3E
:1037B0008546024A014B0CB4084700BFA5EDF5FE53
:1037C00080B485B000AF786039607B68FB60FB68CF
:1037D0001B69002B09D0FB681B691A463B68136004
:1037E000FB684FF0EE325A6104E0FB681B681A4632
:1037F0003B68136200BF1437BD4680BC70470000B1
:1038000005484FF080510160BFF34F8FBFF36F8FBA
:10381000704700BF1846000004ED00E080B586B098
:1038200000AFF860B9607A603B60FB681B687B6141
:103830007869FFF79FFF03463B613B69403B3B6173
:10384000402200213869FFF738FF7A683B691A6225
:103850003B69BA689A633B693A685A633B694FF0BF
:103860008072DA63FB686FF00202DA603A69FB6823
:103870001A6000BF1837BD4680BD80B586B000AF66
:1038800078607B687B617B691B6820333B617B6967
:103890005B681846FFF75FFF3B69FB60FB6883F3DB
:1038A000098800BF7B69DB6818461837BD4680BDB4
:1038B00080B483B000AFEFF3108372B67B607B6897
:1038C00018460C37BD4680BC704780B483B000AF4B
:1038D00078607B6883F3108800BF0C37BD4680BCDE
:1038E0007047000080B485B000AF78600B4B1B6858
:1038F000013303F00703094A13607B68084A126822
:103900009B1ADA00054B1B6813440133FB60FB680C
:1039100018461437BD4680BC704700BF383C0020B5
:10392000242F002080B485B000AF78607B68002B26
:1039300001D1002307E07B68013BDB08044A1268E1
:103940001344FB60FB6818461437BD4680BC7047C3
:10395000242F002080B582B000AF0C4B1B681846A6
:1039600000F06CFE78607B68002B01D1002308E03A
:10397000902200217868FFF7A0FE7B6800225A6041
:103980007B6818460837BD4680BD00BF242F002045
:1039900080B582B000AF7860094B1B687968184623
:1039A00000F083FE034683F00103DBB2002B01D05D
:1039B000044B00E0002318460837BD4680BD00BF19
:1039C000242F00200500008080B584B000AF78600F
:1039D0000023FB607B68002B00D1FEE7FFF768FF48
:1039E0000346FB60074B1B687968184600F049FEE8
:1039F000FB681846FFF769FF002318461037BD46DD
:103A000080BD00BF242F002080B588B000AF786053
:103A1000396000237B610023FB6000233B61FFF7DB
:103A200047FF0346FB607B684833BB617B689B6C48
:103A3000FB6112E0FB69DB681B685B693A689A42CC
:103A400004D1BB697B613B6901333B61FB698C330A
:103A5000BB61FB69D3F88C30FB61FB69002BE9D1BA
:103A60007B69002B12D07B691B68FB617B691B683B
:103A7000D3F88C207B691A603B69012B06D17B68E7
:103A80001A6B3B68DB431A407B681A63FB68184675
:103A9000FFF71BFFFB6918462037BD4680BD0000BD
:103AA00080B485B000AF78600023FB60134B5B6887
:103AB000BB601AE0BB681B685B687A689A420FD1EA
:103AC000FB68002B0AD0BB689A68FB689A600B4BB6
:103AD0005A68BB689A60094ABB685360BB6808E0D3
:103AE000BB68FB60FB689B68BB60BB68002BE1D1D7
:103AF000002318461437BD4680BC704700370020AD
:103B000080B485B000AF78600B4B5B68FB600AE067
:103B1000FB681B685B687A689A4201D1FB6806E023
:103B2000FB68DB6CFB60FB68002BF1D100231846BF
:103B30001437BD4680BC7047E036002080B483B0A7
:103B400000AF786039607B68002B00D1FEE77B68AE
:103B50001B689B6803F48063002B03D0B3F5806F70
:103B600008D00FE07B681B68DB683A689A420BD983
:103B70000A4B0DE07B681B68DB683A689A4205D007
:103B8000064B05E0054B03E000BF00E000BF00234B
:103B900018460C37BD4680BC704700BF030000804C
:103BA00080B588B000AFF860B9601346FB710023A0
:103BB000BB61BB68002B00D1FEE7FB79002B08D06E
:103BC000BB681B689B6803F48073002B2DD1194BD5
:103BD0002CE0194B1B685B68103BBB61BB69002B79
:103BE00001D1FFF7B2FDBB691B6830337B61002355
:103BF000FB610AE0FB699B007A6913441B68FA6861
:103C00009A4209D0FB690133FB61BB691B689A6961
:103C1000FB699A42EED800E000BFBB691B689A6955
:103C2000FB699A4201D1034B00E00023184620377C
:103C3000BD4680BD05000080EC36002080B584B014
:103C400000AF786039607868FFF76CFEF860F8685C
:103C5000FFF79EFE0346002B01D0002307E0FB6820
:103C60001B6A3A689A4201D0002300E0FB681846BC
:103C70001037BD4680BD80B584B000AF78607868ED
:103C8000FFF750FEF860F868FFF782FE0346002B4E
:103C900001D000230DE000F0AFF8B860FB68DB68EE
:103CA0005B681B685B68BA689A4201D0002300E039
:103CB000FB6818461037BD4680BD000080B586B051
:103CC00000AFF860B9607A603B60FB68002B00D100
:103CD000FEE7BB68002B00D1FEE77B6A002B03D117
:103CE000BB6A002B00D0FEE7FB6A002B03D13B6BC5
:103CF000002B00D0FEE7BB6A042B00D9FEE73B6B2C
:103D0000042B00D9FEE7BA6A3B6B1344042B00D99D
:103D1000FEE7FB681833302200211846FFF7CDFC80
:103D2000FB68334A1A61FB6800225A61FB68BA6873
:103D3000DA60304B1B685B68103B1A46FB689A6080
:103D4000FB687A6BC3F88820FB683A6A1A62FB68E2
:103D50003A689A6100237B6116E07B69DB007A6A2E
:103D600013445968FB687A690A3243F822107B6968
:103D7000DB007A6A13441968FB687A69093243F8F0
:103D800032107B6901337B617A69BB6A9A42E4D362
:103D900000237B611DE07B69DB00FA6A13445968EC
:103DA000FB687A690E3243F822107B69DB00FA6AFD
:103DB00013441968FB687A690D3243F83210FA68C7
:103DC0007B690D33DB00134400225A607B690133A9
:103DD0007B617A693B6B9A42DDD3FB687A68DA6172
:103DE000FB681A68FB685A6200BF1837BD4680BD81
:103DF0006A626F73EC36002080B483B000AF0B4B67
:103E00001B685B68103B7B607B68002B07D07B687E
:103E10001B68002B03D07B681B685B6801E04FF0D8
:103E2000FF3318460C37BD4680BC7047EC36002087
:103E300080B586B000AFF860B96011461A460B46EF
:103E4000FB711346BB7100237B61BB68002B01D162
:103E5000002337E0FB68002B01D11C4B32E0BB682C
:103E6000DA43FB689A4201D2194B2BE0BB79022B53
:103E700004D17B6943F006037B6103E07B6943F077
:103E800002037B613B6A002B04D17B6943F008038A
:103E90007B6103E07B6923F008037B61FB79002BE6
:103EA00003D07B6943F020037B61FB687A69B968C2
:103EB000184601F00BF838613B69002B01D1002353
:103EC00000E0034B18461837BD4680BD0100008056
:103ED0000400008080B582B000AF0B4B1B685B68AC
:103EE000103B7B607B68002B01D1FFF72EFC7B68C9
:103EF0001B685B68002B0CBF01230023DBB2184654
:103F00000837BD4680BD00BFEC36002080B584B0C8
:103F100000AF0346FB71FB79002B03D000F0FEFBE2
:103F2000F86002E0FFF768FFF860FB79FA68D20FEB
:103F3000D2B2934201D0FFF708FCFB681846103755
:103F4000BD4680BD80B584B000AF0023FB60264B2A
:103F500018680823902240F2AC4100F023FB234B69
:103F600000225A60224B00225A6000F0DFFB1F48FB
:103F700000F068F9B860BB68002B27D0BB681B68ED
:103F80007B607B68DB69002B06D08023194A1849C7
:103F9000B86800F0F9F9F8607B685B6A002B02D022
:103FA000B86800F0A2FABB681A68BB680433194607
:103FB000104600F007FE0346002B01D0FFF7C5FBBB
:103FC0000D4B1B68F968B8689847D0E700BF0B4BEA
:103FD0001B681A460A4B1A60074B5B6898470346F2
:103FE00018461037BD4680BD242F0020E036002043
:103FF000003700200837002034950000442F0020AF
:104000008837002080B58AB000AFFFF743F87862A8
:1040100000237B602D4B1B685B683B623B6ABB6087
:104020003B6AFB60294B1B685B68103BFB617B6A4A
:104030003C3BBB61264B1B68012B33D07B6A002BBA
:1040400030D0FA69BB699A422CD03B6A5B6803F1B5
:104050002002EFF309837B617B699A4201D9FFF764
:1040600074FBFFF725FC03467B60FB695A68BB695C
:104070005B689A420CD0BB691A68BB695B681946D9
:10408000104600F033FE0346002B01D0FFF75DFB26
:104090007B6A5B68FB600D4A7B6A13607B6818462D
:1040A000FFF713FC0B4B1B68002B08D0BB69DB68C8
:1040B000002B04D0BB69DA68064B1B681A60D7E98D
:1040C0000223104619462837BD4680BDEC36002035
:1040D000F83600208837002080B485B000AF7860C3
:1040E0007B681B691E4A934205D07B685B695B78DD
:1040F000022B00D0FEE70023FB6027E07B68FA6814
:104100000E3253F82230002B1CD07B68D3F8882065
:10411000FB68DB0013441A687B68F9680D3153F8BB
:1041200031309A4200D0FEE77B68D3F88820FB68E4
:10413000DB001A447968FB680D33DB000B445B68D5
:10414000536000E000BFFB680133FB60FB68032B9A
:10415000D4D900BF00BF1437BD4680BC704700BF34
:104160006565212180B584B000AF78603960002397
:10417000BB607B68FB60FB68002B01D1FFF7E5FAB1
:10418000FFF796FB0346BB60FB681A6B3B681A435C
:10419000FB681A63FB68DA6A3B681340002B03D0A4
:1041A000054B5B69F8689847BB681846FFF78DFBBD
:1041B00000BF1037BD4680BD3495000080B582B089
:1041C00000AF0A4B1B687B60084B1B685033074AE3
:1041D0001360064B1A68064B1B689A4201D9FFF719
:1041E000B4FA7B6818460837BD4680BD302F0020E2
:1041F000342F002080B584B000AF78600F4B1B686F
:10420000FB607B68002B01D1002313E07A68134622
:104210005B0013449B001A46084B1B681344074A73
:104220001360064B1A68064B1B689A4201D9FFF7C8
:104230008CFAFB6818461037BD4680BD382F002029
:104240003C2F002080B584B000AF78607B68002BE5
:1042500001D1FFF77AFA494B1B6813F1290F07D8F0
:10426000464B1B6803F12802454B1B689A4201D359
:1042700000237FE0414B1B68FB60404B1B68D94328
:10428000FB689869FB68DA6913465B0013445B00BE
:104290001844FB681A6A13465B0013441844FB6811
:1042A0005A6A13469B00134403440C339B00994203
:1042B0001DD3FB689969FB68DA6913465B001344F8
:1042C0005B001944FB681A6A13465B0013441944E7
:1042D000FB685A6A13469B0013440B440C339A0044
:1042E000264B1B681A44264B1B689A4201D9FFF7DC
:1042F0002CFAFB681B681B0C1B04224A934201D05A
:10430000FFF723FAFB681B689BB2B3F5817F01D3EB
:10431000FFF71BFAFB685B68002B01DAFFF715FA61
:10432000FFF74CFFB860BB68FA681A60FB689969D0
:10433000FB68DA6913465B0013445B001944FB68B1
:104340001A6A13465B0013441944FB685A6A134601
:104350009B0013440B440C339A00084B1B68134416
:10436000064A13607B685A68BB68DA647B68BA687F
:104370005A60BB6818461037BD4680BD282F002004
:104380002C2F002000005F5F80B58CB000AFF8607C
:10439000B9607A603B600023BB62FB68002B02D0EF
:1043A000BB68002B01D1FFF7D0F9FB681B687B626B
:1043B0007B6A9B699A007B6A134430333B627B6A59
:1043C000DB691846FFF716FFF8610023FB627EE009
:1043D000FA6A13465B001344DB001946FA6A134677
:1043E0005B0013449B001A46FB6913443A6A0A4473
:1043F0001A60FA6A13465B0013449B001A46FB6975
:104400001344FA685A60FA6A13465B0013449B002F
:104410001A46FB69134400229A60FA6A13465B004D
:104420001344DB001A463B6A13445B69BA6A1343C0
:10443000BB62FA6A13465B001344DB001A463B6A10
:1044400013449B68BB61BB6903F40073002B26D047
:104450007B68002B05D03B68002B02D03B68802B8B
:1044600001D0FFF772F9BB69DBB27B617B691F2B5F
:1044700006D87B699B007A6813441B68002B01D027
:10448000FFF763F9FA6A13465B0013449B00194671
:104490007B699B007A681344FA690A441A60FA6AD5
:1044A00013465B0013449B001A46FB691344BA6829
:1044B00052689A60FA6A13465B0013449B001A46DE
:1044C000FB691A44BB685A60FB6A0133FB627B6A72
:1044D000DB69FA6A9A4203D2FB69002B7FF478AF5A
:1044E000BB6A18463037BD4680BD80B586B000AF88
:1044F00078607B68002B01D1FFF727F97B681B6888
:10450000FB60FB689B699A00FB68D118FB68DA695D
:1045100013465B001344DB001944FB681A6A134618
:104520005B0013449B000B4430337B6100233B61F1
:104530002EE07B689A6A7B691B691A437B689A62E2
:104540007B691B687969786898470346002B01D01E
:10455000FFF7FBF8FB681B689BB2B3F5807F05D1C2
:104560007B69DB68184600F0A3FE0BE0FB681B6864
:104570009BB240F20112934204D17B69DB6818467A
:1045800000F0A4FE7B6914337B613B6901333B611E
:10459000FB685B6A3A699A42CBD300BF00BF183709
:1045A000BD4680BD80B586B000AFF860B9607A6066
:1045B0003B60FB68002B02D03B68002B01D11E4BF7
:1045C00035E07B6804333A6802FB03F30C33BA68C6
:1045D0009A4201D0184B2AE0BA680021F868FFF728
:1045E0006CF8FB68002B02D0FB6800221A60FB68A5
:1045F0000C337B6100233B610EE0FB681A687B692A
:104600001A60FB687A691A607A697B68134404331C
:104610007B613B6901333B613A693B689A42ECD369
:10462000FB687A685A60FB683A689A60002318460B
:104630001837BD4680BD00BF0100008080B485B042
:1046400000AF78607B68002B01D1002314E07B6809
:10465000002B03D07B681B68002B01D100230BE0EB
:104660007B681B68FB60FB681A687B681A60FB68E4
:1046700000221A60FB68043318461437BD4680BC1C
:10468000704780B485B000AF786039603B68043B08
:10469000FB607B681A68FB681A607B68FA681A60BE
:1046A00000BF1437BD4680BC704780B489B000AFEE
:1046B000786039607B680C33FB617B685B6804332E
:1046C000BB617B689B687B61BB697A6902FB03F312
:1046D000FA6913443B610023FB603B68FA699A4224
:1046E00003D83B683A699A4201D8002311E03B683D
:1046F000043BFB60FA68FB69D31ABA69B3FBF2F2B8
:10470000B96901FB02F29B1A002B01D0002300E0E3
:10471000012318462437BD4680BC704780B400AFE3
:104720004FF0FF331846BD4680BC704780B400AFE1
:1047300000BFBD4680BC70470F4B02689A4206D14D
:10474000C269A3F11023A3F1EF139A4201D0012013
:1047500070478368012BFAD8C36813B1026993428A
:10476000F5D043692BB18069C01AB0FA80F04009D6
:1047700070471846704700BF55AA00FFF8B5164BA2
:10478000996829B10846FFF7D7FF08B9CB680BB184
:104790000120F8BD0B69002BFBD0104D104E1A689C
:1047A000AA42F5D1DA69B242F2D19A68012AEFD869
:1047B000DC68002CECD01A699442E9D05F691FB123
:1047C000D3F818C06745E3D08C42E1D11946002ADE
:1047D000DFD01346E3E700BF3C3C002055AA00FFB2
:1047E000669911EE002865D070B5374D2B68002B07
:1047F00054D0AA68002A51D08342014661D86A6821
:10480000134498425DD2A0F120063046FFF794FF92
:10481000002856D151F8183C012B52D151F8144CB4
:1048200041F8180C51F8100C002C38D0A368002B5C
:1048300035D151F81C2C6368203213442061636029
:1048400000B1C460202200213046FBF735FE20690C
:10485000F0B18368E3B9264642687368134402697D
:10486000203373603261D6E9051331B38B6103B134
:104870005961416983697161B361E1B18E61B36965
:1048800003B15E6102B1D66020220021FBF714FE65
:104890002B699B0702D5FFF771FF90B970BD10B16E
:1048A0008368002BD8D0EB6841F8083C03B15E6107
:1048B000EE60EDE77047EE60E2E7002BD9D0EB60E9
:1048C000D6E7012003F01EFD3C3C00202DE9F84F07
:1048D0003E4D2B68EC68002B40D0AB68002B3DD0E0
:1048E00000283BD0002939D001FB00F6B6FBF0F0E0
:1048F000884233D1301D31D8B10733D026F00301BF
:10490000043114B92BE0A4694CB363688B42FAD329
:10491000D4F808C0BCF1000F55D1A0695B1A232B55
:104920008146676920D80123A360002F47D0B86172
:10493000A06900B1476100232A696361D207A361BE
:1049400003D5FFF71BFF00283DD12034324600215C
:104950002046FBF7B1FD2046BDE8F88F0024204635
:10496000BDE8F88F3146CCE7D4F8108001F1200E75
:10497000DFF85CB0DFF85CA004EB0E02203BC2E97C
:10498000013CC2E9034844F80EB0C2F81CA0B8F1DB
:10499000000F01D0C8F80C20C2F81890576187B1F9
:1049A000BA61906900B142610023616029692261A6
:1049B0000122C4E90533CB07A260C6D5C1E7E86090
:1049C000B7E7EA60EEE7012003F09CFC3C3C0020E6
:1049D00055AA00FF669911EE38B50D461422002144
:1049E00004461148FBF768FD1049114803F056FCD6
:1049F000232D18D914F0030304D0043DC3F104029D
:104A00001D4414442A4600212046FBF755FD064B61
:104A1000084A0948A5F12001C3E901541C60E0617E
:104A2000C4E90021DC6038BD3C3C0020E5470000C3
:104A3000CD48000055AA00FF669911EE38B504462E
:104A4000406A18B1A16A01F087FE606A03F020FC99
:104A50000021236A2C22012B14BF6FF096050D460E
:104A60002046C4E90911FBF727FD284638BD00BFE1
:104A700070B50C4D82B02B78DB0710D50C460026A4
:104A80000146224601AB281D019600F06BF820B9C3
:104A9000019BA34218BF6FF0930002B070BD6FF08E
:104AA0008800FAE7503C002038B5194C217811F005
:104AB000010102D00025284638BD0822201DFBF741
:104AC000FBFC0222237862F34203237000F024F8F7
:104AD000054640B900F042F8054620B9237843F076
:104AE00001032370E6E700F023F8237813F0060FA4
:104AF00007D10C21064801F02FFE00F031F82846BE
:104B000038BD082200210348FBF7D6FCF1E700BFBF
:104B1000503C0020543C0020044A002092F880358C
:104B200043F0010382F88035704700BF5C3C0020F1
:104B3000F8B5094F01263C4607F5B06526622046C8
:104B40002C34FFF77BFFAC42F8D197F880356FF338
:104B5000000387F88035F8BD5C3C002000207047DA
:104B6000704700BF38B5002014461D4601F0C6FD51
:104B700028B92B68A34218BF6FF0930038BD6FF0BF
:104B8000920038BD80B500AF00F0F4FD00F000FEEB
:104B90000346002B02D043F6DA3310E000F01AFE91
:104BA0000346002B02D043F6DA3308E000F020FA87
:104BB0000346002B02D043F6DA3300E00023184608
:104BC00080BD000080B58EB000AF786039607B6832
:104BD000002B02D03B68002B02D143F6DA337DE094
:104BE000012387F8333097F833301A463B681A6050
:104BF00000237B636CE07B689B699A007B68D1181B
:104C00007B68DA6913465B001344DB000B443033E6
:104C1000FB627A6B13465B0013449B001A46FB6AE7
:104C200013449B6803F00803002B4BD0002387F844
:104C30002B3000237B6200BF97F82B3083F00103F9
:104C4000DBB2002B02D043F6DA3347E07A6B13462F
:104C50005B0013449B001A46FB6A13441B683B62CB
:104C60003B6A1B68002B2FD03B6A1B68184600F07C
:104C7000CDFE97F8333083F00103DBB2002B24D054
:104C8000184B1B685A1C17490A60BB603B6A1B68BB
:104C9000FB603B6A5B683B6100237B6101237B76A1
:104CA0000023BB7601233B7607F1080319460E4823
:104CB00000F0A0FF0346FB77FB7F002B05D043F6F7
:104CC000DA330BE000BF00E000BF7B6B01337B6396
:104CD0007B681B6A7A6B9A428DD30023184638375B
:104CE000BD4680BDE0410020402F002080B487B049
:104CF00000AF78603960EFF314833B613B69FB6080
:104D00003B6803F00F03002B0CBF01230023DAB232
:104D10003B7B62F300033B73FB687B617B6983F33E
:104D20001488BFF36F8F00BF00BF002318461C37E5
:104D3000BD4680BC704790B591B000AFF860B960D7
:104D40007A60FB687B627B6A43E800F3BB61BB6906
:104D50003B62FA68BB681344013BBB62BB6A43E831
:104D600000F37B617B69FB6197F82330BB63FB7FBA
:104D70007B63FB683B6301F049FA0246BB6B9342DD
:104D80004BD301F04AFA02467B6B934245D8B86B8D
:104D900001F02FFA02463B6BD31A0133FB623B6BE7
:104DA0007A68F96A1846FBF723FB0346002B01D10A
:104DB000002387E0BB6B0133FB6315E0FB6B1846F8
:104DC00001F00CFA38633C6B01F02EFA03467A6866
:104DD00019462046FBF70CFB0346002B01D10023AC
:104DE00070E0FB6B0133FB63FB6B7A6B9A42E5D897
:104DF000786B01F0F3F93863FA68BB681A443B6BCF
:104E0000D31AFB623B6B7A68F96A1846FBF7F0FA33
:104E10000346002B55D1002354E001F02AFA024644
:104E2000BB6B93424BD301F02BFA02467B6B934250
:104E300045D8B86B01F00EFA02463B6BD31A01332A
:104E4000FB623B6B7A68F96A1846FBF7D1FA0346B6
:104E5000002B01D1002335E0BB6B0133FB6315E070
:104E6000FB6B184601F0E8F938633C6B01F00FFA70
:104E700003467A6819462046FBF7BAFA0346002B28
:104E800001D100231EE0FB6B0133FB63FB6B7A6BEC
:104E90009A42E5D8786B01F0CFF93863FA68BB68BD
:104EA0001A443B6BD31AFB623B6B7A68F96A18466B
:104EB000FBF79EFA0346002B03D1002302E00023F8
:104EC00000E0012318464437BD4690BD80B58EB042
:104ED00000AFF860B9607A6000237B637B6803F001
:104EE0002003002B18D0EFF39483FB62FB6A3B6234
:104EF00097F8203003F00103DBB2002B04D07B686D
:104F000043F008037B6003E07B6823F008037B60C9
:104F10007B6B43F012037B637B6803F00803002B79
:104F200003D07B6B43F004037B637B6803F00203D5
:104F3000002B09D07B6803F00403002B04D07B6BAB
:104F400043F001037B630CE07B6803F00203002B5A
:104F500004D07B6B43F008037B6302E04CF2DA235E
:104F600041E0FB687A6BB9681846FBF741FA0346E3
:104F7000002B14BF01230023DBB23B633B6B002BF0
:104F80002AD1FB687B627B6A43E800F37B617B6923
:104F9000FB61FA68BB681344013BBB62BB6A43E830
:104FA00000F33B613B69BB61BB7F23F07F03DBB256
:104FB000002B11D0BB7E23F07F03DBB2002B0BD084
:104FC000FA7FFB7E9A4207D0FB687A6BB968184675
:104FD000FFF7B1FE03463B633B6B002B01D0002380
:104FE00001E06FF07F0318463837BD4680BD0000F2
:104FF00080B586B000AF554800F085FE544B1B6865
:105000005A1C53490A603B60524BDB687B60514B32
:105010001B69BB600123FB6003237B740023BB740B
:1050200000233B743B461946484800F0E3FD034625
:10503000FB75FB7D002B02D043F6DA3381E0444B55
:105040001B685A1C42490A603B60434B7B60434BE0
:10505000BB600123FB6003237B740023BB7400232C
:105060003B743B461946394800F0C4FD0346FB75C6
:10507000FB7D002B02D043F6DA3362E0344B1B6831
:105080005A1C33490A603B60354B7B60354BBB6033
:105090000123FB6003237B740023BB7400233B7458
:1050A0003B461946294800F0A5FD0346FB75FB7DEC
:1050B000002B02D043F6DA3343E0254B1B685A1C21
:1050C00023490A603B60284B7B60284BBB6002236E
:1050D000FB6001237B740023BB7401233B743B46BC
:1050E00019461A4800F086FD0346FB75FB7D002B30
:1050F00002D043F6DA3324E0154B1B685A1C1449DE
:105100000A603B601A4B7B601A4BBB600223FB605A
:1051100001237B740023BB7401233B743B46194677
:105120000A4800F067FD0346FB75FB7D002B02D0AB
:1051300043F6DA3305E001220121044800F02AFD9C
:10514000002318461837BD4680BD00BF402F002001
:10515000E04100205C960000E00200002007000013
:105160008017000080170000201C0020401C002039
:10517000001C0020041C002080B582B000AF43F664
:105180005C237B6000F080FA78607B68002B02D0A3
:1051900043F6DA3326E000F089FA78607B68002B6A
:1051A00002D043F6DA331DE000F09AFA78607B68AB
:1051B000002B02D043F6DA3314E062B600BF00F0F1
:1051C000ADFA78607B68002B02D043F6DA3309E051
:1051D00000F0C2FA78607B68002B02D043F6DA3325
:1051E00000E0002318460837BD4680BD80B400AFFC
:1051F000024B1B681846BD4680BC70475C96000099
:1052000080B400AF034B1B681B681846BD4680BCCA
:10521000704700BF5C96000080B400AF034B1B6872
:1052200004331B681846BD4680BC70475C9600007E
:1052300080B483B000AF0346FB7197F90730002BB1
:105240000BDBFB7903F01F02064997F907305B0976
:10525000012000FA02F241F8232000BF0C37BD46BE
:1052600080BC704700E100E080B483B000AF03462B
:10527000FB7197F90730002B12DBFB7903F01F025B
:105280000A4997F907305B09012000FA02F220333E
:1052900041F82320BFF34F8F00BFBFF36F8F00BFD4
:1052A00000BF0C37BD4680BC704700BF00E100E086
:1052B00080B582B000AF78607B685BB21846FFF7BC
:1052C000B7FF002318460837BD4680BD80B582B0C1
:1052D00000AF78607B685BB21846FFF7C5FF00231C
:1052E00018460837BD4680BD80B483B000AF034682
:1052F000FB7197F90730002B0BDBFB7903F01F02E2
:10530000064997F907305B09012000FA02F241F8DB
:10531000232000BF0C37BD4680BC704700E100E091
:1053200080B483B000AF0346FB7197F90730002BC0
:105330000CDBFB7903F01F02074997F907305B0983
:10534000012000FA02F2603341F8232000BF0C373D
:10535000BD4680BC704700BF00E100E080B483B070
:1053600000AF0346FB7197F90730002B24DB154A89
:1053700097F907305B09A03352F82310FB7903F04B
:105380001F03012202FA03F3DA430E4897F90730AC
:105390005B090A40A03340F823200A4A97F90730F6
:1053A0005B09A03352F82320FB7903F01F0322FA94
:1053B00003F303F0010300E0002318460C37BD4659
:1053C00080BC704700E100E080B483B000AF0346CA
:1053D0003960FB7197F90730002B0ADB3B68DAB2C2
:1053E0000C4997F907305201D2B20B4483F80023DD
:1053F0000AE03B68DAB20849FB7903F00F03043B8B
:105400005201D2B20B441A7600BF0C37BD4680BCA5
:10541000704700BF00E100E000ED00E080B400AFA5
:10542000044B1B68034A23F00103136000BFBD4611
:1054300080BC7047D0ED00E080B584B000AFF8606C
:105440007A601A460B46FB721346BB72FB7AFA6807
:105450009033DB0013445B6803F00103002B06D09C
:105460000D4B0E4A40F25B110D4802F025FFFA7A0F
:10547000FB689032796843F83210BB7A002B06D073
:10548000FB7AFA689033DB00134401225A6000BFB4
:105490001037BD4680BD00BF4C95000070960000DF
:1054A0007C95000080B584B000AFF8607A601A4641
:1054B0000B46FB721346BB72FB7AFA689833DB002B
:1054C00013445B6803F00103002B06D00D4B0E4A1A
:1054D0004FF4B5710D4802F0EFFEFA7AFB6898328E
:1054E000796843F83210BB7A002B06D0FB7AFA6851
:1054F0009833DB00134401225A6000BF1037BD46C9
:1055000080BD00BFBC950000889600007C9500001F
:1055100080B582B000AF78600B46FB70FB787A688C
:1055200000210348FFF788FF00BF0837BD4680BD54
:105530000030005080B582B000AF03463960FB7187
:105540001346BB71BB79F9793A680348FFF7AAFFA4
:1055500000BF0837BD4680BD0030005080B582B026
:1055600000AF78607B681B68184600F04DF8034672
:10557000002B06D10E4B0F4A40F247210E4802F095
:105580009BFE786800F06CF80346002B08D0012BD6
:1055900008D00A4B074A4FF41371074802F08CFEFB
:1055A000074B00E0074B18460837BD4680BD00BFDB
:1055B000F4950000A0960000189600005896000090
:1055C000002584500028845080B584B000AF7860F6
:1055D0000B46FB703B1D1846FFF7C0FFF8607A686A
:1055E000FB68803253F8223023F0E043BB60FB7845
:1055F00019077A68BB681943FB68803243F82210A8
:1056000000BF1037BD4680BD80B485B000AF786064
:105610007B685B09BB600023FB60BB68002B03D089
:10562000BB68012B04D007E04FF0FF33FB6003E0C1
:105630004FF6FF73FB6000BF7B6803F01F037B60C6
:10564000FA687B6822FA03F303F00103002B14BF0E
:1056500001230023DBB218461437BD4680BC7047D7
:1056600080B485B000AF78607B681B68FB60FB6826
:1056700003F01F027B681A60FB685B091846143749
:10568000BD4680BC7047000080B500AF00216FF0C0
:105690000800FFF799FE044B5B6A034A43F470234A
:1056A00053620023184680BD00ED00E080B483B053
:1056B00000AF094BDB687B607B689BB27B607A68DC
:1056C000064B13437B60044A7B68D3600023184673
:1056D0000C37BD4680BC704700ED00E00800FA05BD
:1056E00080B400AF0B4B0C4A1B68C2F84435094B21
:1056F000094ADB69C2F84C35074B0222C3F8402542
:10570000054B0222C3F8482500231846BD4680BC3D
:10571000704700BF0080FF000060005080B582B07D
:1057200000AF0023FB7109E00A4AFB79A0334FF078
:10573000FF3142F82310FB790133FB71FB790F2B0A
:10574000F2D90320FFF70AFE002318460837BD46AA
:1057500080BD00BF00E100E080B500AF00F020FC9C
:105760000320FFF7DDFD0320FFF7BEFD00231846F1
:1057700080BD000080B500AFFFF750FE034B1B68F3
:10578000024A43F00203136000BF80BDD0ED00E089
:1057900080B500AF00F02AFC0B4B5B680A4A9268A8
:1057A0001146184600F068FC0849094800F08AFCD8
:1057B000054BDA68044B1B69013B1946104600F0A3
:1057C000ABFC0023184680BD5C960000FFFF07205D
:1057D0000080002080B500AF00214FF0A04000F015
:1057E0008DFD0021604800F089FD00214FF0502020
:1057F00000F084FD00215D4800F080FD00215C4840
:1058000000F07CFD00215B4800F078FD00215A4843
:1058100000F074FD0021594800F070FD0021584847
:1058200000F06CFD0021574800F068FD002156484B
:1058300000F064FD0021554800F060FD002154484F
:1058400000F05CFD0021534800F058FD0021524853
:1058500000F054FD0021514800F050FD0021504857
:1058600000F04CFD00214F4800F048FD00214E485B
:1058700000F044FD00214D4800F040FD00214C485F
:1058800000F03CFD00214B4800F038FD00214A4863
:1058900000F034FD0021494800F030FD0021484867
:1058A00000F02CFD0021474800F028FD002146486B
:1058B00000F024FD0021454800F020FD002144486F
:1058C00000F01CFD0021434800F018FD0021424873
:1058D00000F014FD0021414800F010FD0021404877
:1058E00000F00CFD00213F4800F008FD00213E487B
:1058F00000F004FD00213D4800F000FD00213C487F
:1059000000F0FCFC00213B4800F0F8FC00213A4884
:1059100000F0F4FC0021394800F0F0FC0021384888
:1059200000F0ECFC0021374800F0E8FC01210020E9
:10593000FFF7EEFD012200210020FFF7FBFD012211
:1059400000210120FFF7F6FD03210020FFF73CFEB8
:1059500003210120FFF738FE2B4B0122C3F800255D
:105960000023184680BD00BF00400050008000505A
:105970000090005000A0005000B0005000C0005047
:1059800000E0005000F000500000015000100150F5
:105990000040015000500150007001500080015043
:1059A0000090015000A0015000B0015000C0015013
:1059B00000D0015000E0015000F001500000025002
:1059C00000100250002002500030025000400250EF
:1059D000006002500080025000A0025000B002504F
:1059E00000D002500000035000300350004003502C
:1059F0000060035000700350009003500025845055
:105A000000288450001008500010005080B582B06B
:105A100000AF78600121786800F042FC00BF0837D1
:105A2000BD4680BD80B582B000AF00F013FE786047
:105A30007B68002B02D045F2235300E00023184678
:105A40000837BD4680BD000080B483B000AF0C4B6A
:105A5000DB687B607B689BB27B607B6823F008031C
:105A60007B607B6843F0BF6343F400337B60044A90
:105A70007B68D36000BF0C37BD4680BC704700BF59
:105A800000ED00E080B582B000AFFFF775FB7860F5
:105A90007B68002B01D07B680AE0FFF7C3FF7860CA
:105AA0007B68002B01D07B6802E0FFF7CDFF00236D
:105AB00018460837BD4680BD80B400AF00231846A5
:105AC000BD4680BC704780B400AF00231846BD4679
:105AD00080BC704780B400AF00231846BD4680BC30
:105AE000704780B400AF00BFBD4680BC7047000067
:105AF00080B400AFBFF34F8F00BF064BDB6803F4E9
:105B0000E0620449044B1343CB60BFF34F8F00BFE7
